:03000000020800F3
:0C080000787FE4F6D8FD758109020847F6
:0308E50001080AFD
:1008C40053890F758BFF758DFFC28FD28ED2ABD239
:0508D400AFE4F509226C
:0C08D900C280D2811208C475A0FF80FB11
:03001B0002088C4C
:10088C00C0E0C0D075D000C006C0070509AF097E16
:10089C0000D3EF9404748094805004D2808002C200
:1008AC0080C3EF9405EE648094804003750900D0FA
:0808BC0007D006D0D0D0E032D5
:10080C000208D9E493A3F8E493A34003F68001F221
:10081C0008DFF48029E493A3F85407240CC8C333ED
:10082C00C4540F4420C8834004F456800146F6DFBC
:10083C00E4800B01020408102040809008E5E47E5F
:10084C00019360BCA3FF543F30E509541FFEE493B1
:10085C00A360010ECF54C025E060A840B8E493A378
:10086C00FAE493A3F8E493A3C8C582C8CAC583CAA3
:10087C00F0A3C8C582C8CAC583CADFE9DEE780BE5B
:0108E800000F
:00000001FF
