:03000000020FEDFF
:0C0FED00787FE4F6D8FD75812A0206FB2F
:0E06FB00E4F508F509F50AF50B120F1BD2AF56
:10070900AC08AD09EC1202A28F0F8E0E8D0D8C0C68
:10071900AC0AAD0BEC1202A28F138E128D118C1044
:100729007B007A00790C7518027D0412060505090B
:10073900E509AE087002050814D39464EE64809448
:10074900804005E4F508F509E50B150BAE0A7002C2
:10075900150AC3949CEE6480947F50A4E4F50AF5CD
:010769000B84
:02076A00809D70
:10097800EFFBD39401748094805009EB7004C2A9F2
:100988008002D2A9EDFF7E00D39403748094805036
:1009980029EF700553B7FDC2B9EF64014E700553D6
:1009A800B7FDD2B9EF64024E700543B702C2B9EF82
:0D09B80064034E700543B702D2B97F0022E0
:1009C500EFFBD39401748094805009EB7004C2ABA3
:1009D5008002D2ABEDFF7E00D394037480948050E7
:1009E50029EF700553B7F7C2BBEF64014E7005538D
:1009F500B7F7D2BBEF64024E700543B708C2BBEF31
:0D0A050064034E700543B708D2BB7F00228A
:100F6000EFD3940174809480500DEF25E025E0FFCD
:0A0F7000E5AF54FB4FF5AFE4FF229C
:100F7A00EFD3940174809480500DEFC43354E0FF92
:0A0F8A00E5AF54DF4FF5AFE4FF229E
:10000300EFD3940174809480500EEFC4333354C003
:0B001300FFE5AF54BF4FF5AFE4FF2244
:100A1200EFFBD39401748094805009EB7004C2A858
:100A22008002D2A8EDFF7E00D3940374809480509C
:100A320029EF700553B7FEC2B8EF64014E7005533B
:100A4200B7FED2B8EF64024E700543B701C2B8EFE9
:0D0A520064034E700543B701D2B87F002247
:100A5F00EFFBD39401748094805009EB7004C2AA09
:100A6F008002D2AAEDFF7E00D3940374809480504D
:100A7F0029EF700553B7FBC2BAEF64014E700553EF
:100A8F00B7FBD2BAEF64024E700543B704C2BAEF98
:0D0A9F0064034E700543B704D2BA7F0022F5
:100FAE00EFD3940174809480500CEFC454F0FFE59D
:090FBE008F54EF4FF58FE4FF2280
:100F9400EFD3940174809480500DEFC43354E0FF78
:0A0FA400E58F54DF4FF58FE4FF22C4
:100F4500EFD3940174809480500EEFC4333354C0B2
:0B0F5500FFE58F54BF4FF58FE4FF2233
:100AAC00EFFBD39401748094805009EB7004C2ADB9
:100ABC008002D2ADEDFF7E00D394037480948050FD
:100ACC0029EF700553B7DFC2BDEF64014E700553BB
:100ADC00B7DFD2BDEF64024E700543B720C2BDEF45
:0D0AEC0064034E700543B720D2BD7F002289
:1007DB00EF30E10543E620800353E6DFEF30E00521
:1007EB0043E610800353E6EFEDFF7E00D3940374D2
:1007FB00809480502DEF700653B6DF53B5DFEF6456
:10080B00014E700653B6DF43B520EF64024E7006FF
:10081B0043B62053B5DFEF64034E700643B6204357
:05082B00B5207F002252
:10076C00EFD394017480948040037FFF2243BA80BE
:10077C00EF64017012ED90FE817006E0547FF08002
:10078C0011E04480F0800BEF700890FE83E05487FA
:10079C004DF0EBFF7E00D3940374809480502DEFCA
:1007AC00700653B6DF53B5DFEF64014E700653B6D7
:1007BC00DF43B520EF64024E700643B62053B5DF1D
:0F07CC00EF64034E700643B62043B5207F002232
:100AF900EFFBD39401748094805009EB7004C2AC6D
:100B09008002D2ACEDFF7E00D394037480948050B0
:100B190029EF700553B7EFC2BCEF64014E7005535E
:100B2900B7EFD2BCEF64024E700543B710C2BCEFF9
:0D0B390064034E700543B710D2BC7F00224C
:10092A00EFD39401748094805007E5AF54FE4FF5DD
:10093A00AFEDFF7E00D3940374809480502DEF7046
:10094A000653B6FE53B5FEEF64014E700653B6FE6B
:10095A0043B501EF64024E700643B60153B5FEEF8C
:0E096A0064034E700643B60143B5017F0022C0
:10083000EFD3940174809480500EEF33333354F827
:10084000FFE5AF54F74FF5AFEDFF7E00D39403748F
:10085000809480502DEF700653EEFE53DFFEEF6460
:10086000014E700653EEFE43DF01EF64024E700648
:1008700043EE0153DFFEEF64034E700643EE014387
:05088000DF017F0022F2
:10088500EFD3940174809480500CEFC454F0FFE5CD
:10089500AF54EF4FF5AFEDFF7E00D3940374809412
:1008A50080502DEF700653EEFD53DFFDEF64014ED2
:1008B500700653EEFD43DF02EF64024E700643EE11
:1008C5000253DFFDEF64034E700643EE0243DF0281
:0308D5007F00227F
:1008D800EFD3940174809480500BEF25E0FFE5AFCF
:1008E80054FD4FF5AFEDFF7E00D3940374809480E0
:1008F800502DEF700653B6FD53B5FDEF64014E70F1
:100908000653B6FD43B502EF64024E700643B602C5
:1009180053B5FDEF64034E700643B60243B5027F3C
:020928000022AB
:10068400EBF582758300D39403748094805030E535
:1006940082700553B77FC2BFE5826401458370054C
:1006A40053B77FD2BFE58264024583700543B780A8
:1006B400C2BFE58264034583700543B780D2BFEFB0
:1006C40014601114601214601314601D2404702447
:1006D4008DDA80208DDB801C8DDC801843BA8090FD
:1006E400FD54EDF053BA7F800BED5401FFE5D9546E
:0706F400FE4FF5D97F002243
:100B910043BA8090FA10E054F0F0EDD394037480DE
:100BA1009480500BE0FEED25E025E0FDEE4DF0EBED
:100BB100D3940374809480500690FA10E04BF0EFC8
:100BC100640190FA107006E04480F08004E0547FE4
:070BD100F053BA7F7F002200
:100BD80043BA8090FA00E054F0F0EDD394037480A7
:100BE8009480500BE0FEED25E025E0FDEE4DF0EBA6
:100BF800D3940374809480500690FA00E04BF0EF91
:100C0800640190FA007006E04480F08004E0547FAC
:070C1800F053BA7F7F0022B8
:100C1F0043BA8090FA20E054F0F0EDD3940374803F
:100C2F009480500BE0FEED25E025E0FDEE4DF0EB5E
:100C3F00D3940374809480500690FA20E04BF0EF29
:100C4F00640190FA207006E04480F08004E0547F45
:070C5F00F053BA7F7F002271
:100C660043BA8090FA30E054F0F0EDD394037480E8
:100C76009480500BE0FEED25E025E0FDEE4DF0EB17
:100C8600D3940374809480500690FA30E04BF0EFD2
:100C9600640190FA307006E04480F08004E0547FEE
:070CA600F053BA7F7F00222A
:100CAD0043BA8090FA38E054F0F0EDD39403748099
:100CBD009480500BE0FEED25E025E0FDEE4DF0EBD0
:100CCD00D3940374809480500690FA38E04BF0EF83
:100CDD00640190FA387006E04480F08004E0547F9F
:070CED00F053BA7F7F0022E3
:100CF40043BA8090FA40E054F0F0EDD3940374804A
:100D04009480500BE0FEED25E025E0FDEE4DF0EB88
:100D1400D3940374809480500690FA40E04BF0EF33
:100D2400640190FA407006E04480F08004E0547F4F
:070D3400F053BA7F7F00229B
:100D3B0043BA8090FA48E054F0F0EDD394037480FA
:100D4B009480500BE0FEED25E025E0FDEE4DF0EB41
:100D5B00D3940374809480500690FA48E04BF0EFE4
:100D6B00640190FA487006E04480F08004E0547F00
:070D7B00F053BA7F7F002254
:100D820043BA8090FA50E054F0F0EDD394037480AB
:100D92009480500BE0FEED25E025E0FDEE4DF0EBFA
:100DA200D3940374809480500690FA50E04BF0EF95
:100DB200640190FA507006E04480F08004E0547FB1
:070DC200F053BA7F7F00220D
:100DC90043BA8090FA58E054F0F0EDD3940374805C
:100DD9009480500BE0FEED25E025E0FDEE4DF0EBB3
:100DE900D3940374809480500690FA58E04BF0EF46
:100DF900640190FA587006E04480F08004E0547F62
:070E0900F053BA7F7F0022C5
:100E100043BA8090FA60E054F0F0EDD3940374800C
:100E20009480500BE0FEED25E025E0FDEE4DF0EB6B
:100E3000D3940374809480500690FA60E04BF0EFF6
:100E4000640190FA607006E04480F08004E0547F12
:070E5000F053BA7F7F00227E
:100E570043BA8090FA68E054F0F0EDD394037480BD
:100E67009480500BE0FEED25E025E0FDEE4DF0EB24
:100E7700D3940374809480500690FA68E04BF0EFA7
:100E8700640190FA687006E04480F08004E0547FC3
:070E9700F053BA7F7F002237
:100E9E0043BA8090FA70E054F0F0EDD3940374806E
:100EAE009480500BE0FEED25E025E0FDEE4DF0EBDD
:100EBE00D3940374809480500690FA70E04BF0EF58
:100ECE00640190FA707006E04480F08004E0547F74
:070EDE00F053BA7F7F0022F0
:100EE50043BA8090FE50E054CFF0EDD39403748064
:100EF5009480500AE0FEEDC454F0FDEE4DF0EF6431
:100F05000190FE507006E04480F08004E0547FF0CC
:060F150053BA7F7F0022A9
:060499008B1D8A1E891F65
:10049F00EF64016003020602752401F525F526F5C8
:1004AF0027F528F529F52AFFEFC3948074809480EF
:1004BF00500F74802FF582E43400F583E4F00F8041
:1004CF00E7E4FFEFC3948074809480500F74002F83
:1004DF00F582E43400F583E4F00F80E7AB1DAA1E2C
:1004EF00A91F1202DBFFE598543F4FF598EF64C048
:1004FF006008EF644060030205B1900002120433FC
:10050F007F007E307D2A7C0012036F8F238E228D19
:10051F00218C20E4FFFE7D01FCAB23AA22A921A898
:10052F0020C312040F40037FFF22C3E49523F5235A
:10053F00E49522F52274019521F521E49520F5200B
:10054F00AB1DAA1EA91F9000011202F464027026AF
:10055F00538EEF438E01538EF7438E04AF23AE229B
:10056F00AD21AC2078081204208FD68523D753AF46
:10057F00FB438E108066C28E538EFE5389BF538904
:10058F00CF438E40AF23AE22AD21AC2078081204AA
:10059F00208F8D85238BC2AB5389BF538FFDD28E96
:1005AF00803AAB1DAA1EA91F1202DBFF7E0070143A
:1005BF009000081202F464017005438E20801D53D1
:1005CF008EDF8018EF64804E70129000081202F4D4
:1005DF0064017005438780800353877FAB1DAA1E7C
:1005EF00A91F9000071202F47004C29C8002D29CD3
:0505FF007F00227FFFD8
:0106040022D3
:0A0FF9008F99752701E52770FC228F
:100FC7001202DBFF600C120FF9740129F9E43AFAF7
:030FD70080EE2287
:05001E00AE07020FF91E
:10002600EFD394077480948040037FFF221202DB93
:10003600FED394037480948040037FFF22EF7044C4
:10004600EE700B9000011202F4F4529352941202D5
:10005600DB6401700B9000011202F44293F4529497
:100066001202DBFE6402700A9000011202F442934F
:100076004294EE6403700D9000011202F4FEF452F5
:1000860093EE4294EF640170461202DBFE700B9011
:1000960000011202F4F452915292EE6401700B9038
:1000A60000011202F44291F452921202DB640270D1
:1000B6000A9000011202F4429142921202DB64039A
:1000C600700D9000011202F4FEF45291EE4292EF8E
:1000D600640270461202DBFE700B9000011202F4FD
:1000E600F452955296EE6401700B9000011202F4E0
:1000F6004295F452961202DB6402700A90000112D5
:1001060002F4429542961202DB6403700D900001E0
:100116001202F4FEF45295EE4296EF640370461214
:1001260002DBFE700B9000011202F4F452B152B2DF
:10013600EE6401700B9000011202F442B1F452B267
:100146001202DB6402700A9000011202F442B1420C
:10015600B21202DB6403700D9000011202F4FEF489
:1001660052B1EE42B2EF640470461202DBFE700B2F
:100176009000011202F4F452B352B4EE6401700B13
:100186009000011202F442B3F452B41202DB64028C
:10019600700A9000011202F442B342B41202DB6408
:1001A60003700D9000011202F4FEF452B3EE42B455
:1001B600EF640570461202DBFE700B90000112021E
:1001C600F4F452C952CAEE6401700B900001120297
:1001D600F442C9F452CA1202DB6402700A900001AA
:1001E6001202F442C942CA1202DB6403700D900087
:1001F600011202F4FEF452C9EE42CAEF64067046DA
:100206001202DBFE700B9000011202F4F452CB5284
:10021600CCEE6401700B9000011202F442CBF45252
:10022600CC1202DB6402700A9000011202F442CB87
:1002360042CC1202DB6403700D9000011202F4FE40
:10024600F452CBEE42CCEF640770491202DBFF7E1C
:1002560000700B9000011202F4F452E152E2EF64D6
:10026600014E700B9000011202F442E1F452E212C8
:1002760002DB6402700A9000011202F442E142E2DB
:100286001202DB6403700D9000011202F4FFF452B7
:07029600E1EF42E27F0022CC
:03002300020B4687
:100B4600C0E0C083C082C0D075D000C007309828EE
:100B5600C298E52A7022C3E5289480748094804068
:100B660003752800AF28052874002FF582E43400A9
:100B7600F583E599F0752905309905C29975270021
:0B0B8600D007D0D0D082D083D0E03266
:100F1B00751440751501E4751980751825F517F5CD
:100F2B0016F51BF51CFB7A0079147F011204997DD1
:090F3B00017F01120AF953A23FE3
:010F4400228A
:0A1003008F99752701E52770FC2284
:100FDA001202DBFF600C121003740129F9E43AFAD9
:030FEA0080EE2274
:020605008D174F
:100607008B1D8A1E891F7F031210037FFC121003A4
:10061700E4F519F51AC3E51A95187480F865199861
:100627005051751B00751C01E517FD7C00D3E51CB7
:100637009D7480F8651B985030E51A2401FFE43556
:1006470019FE120321AB1DE51F2FF9E51E3EFAC364
:10065700E9951CF9EA951BFA1202DBFF1210030554
:100667001CE51C70C3051B80BF051AE51A70A6059B
:0D0677001980A27FFC1210037F0302100304
:10029D0075F020800E75F010800575F0087D007EDC
:1002AD00007F003392D530D503120401EC3340109A
:1002BD00EF33FFEE33FEED33FDEC33FCD5F0ED22E5
:0E02CD00E5F0247EA2D513CC92E7CDCEFF2221
:1002DB00BB010689828A83E0225002E722BBFE0221
:0902EB00E32289828A83E4932254
:1002F400BB010CE58229F582E5833AF583E02250BF
:1003040006E92582F8E622BBFE06E92582F8E22208
:0D031400E58229F582E5833AF583E4932222
:10032100EF8DF0A4A8F0CF8CF0A428CE8DF0A42EF0
:02033100FE22AA
:1003330075F008758200EF2FFFEE33FECD33CDCC81
:1003430033CCC58233C5829BED9AEC99E582984004
:100353000CF582EE9BFEED9AFDEC99FC0FD5F0D6E1
:10036300E4CEFBE4CDFAE4CCF9A88222B800C1B90B
:100373000059BA002DEC8BF084CFCECDFCE5F0CB49
:10038300F97818EF2FFFEE33FEED33FDEC33FCEB82
:1003930033FB10D703994004EB99FB0FD8E5E4F93D
:1003A300FA227818EF2FFFEE33FEED33FDEC33FC2A
:1003B300C933C910D7059BE99A4007EC9BFCE99A1E
:1003C300F90FD8E0E4C9FAE4CCFB2275F010EF2F63
:1003D300FFEE33FEED33FDCC33CCC833C810D70763
:1003E3009BEC9AE899400AED9BFDEC9AFCE899F89E
:0E03F3000FD5F0DAE4CDFBE4CCFAE4C8F92231
:0E040100C3E49FFFE49EFEE49DFDE49CFC220C
:10040F00EB9FF5F0EA9E42F0E99D42F0E89C45F043
:01041F0022BA
:10042000E8600FECC313FCED13FDEE13FEEF13FFBA
:03043000D8F122DE
:10043300BB010DE58229F582E5833AF58302047059
:100443005007E92582F8020463BBFE07E92582F819
:1004530002047CE58229F582E5833AF58302048967
:0D046300E6FB08E6F908E6FA08E6CBF82209
:0C047000E0F8A3E0F9A3E0FAA3E0FB220F
:0D047C00E2FB08E2F908E2FA08E2CBF82200
:10048900E493F8740193F9740293FA740393FB22C9
:00000001FF
