:10001E003F065B4F666D7D077F6F777C395E79712A
:10002E000040761E7038375C733E783D6750376EF1
:10003E00BF86DBCFE6EDFD87FFEF46010204081019
:10004E0020408000010200030000000400000000B8
:03005E000000009F
:100A6E007522FFE4F521FB7A007921FF1203F2755E
:100A7E0022FFE4F521FB7A0079217F011203F27542
:100A8E0022FFE4F521FB7A0079217F061203F2752D
:0F0A9E0022FFE4F521FB7A0079217F070203F2A2
:100B4C00E4F521F522752301F524F5257526A2750A
:0E0B5C002740752801FB7A007921FF0200C6B0
:1000A600752301752201E4F525F524752110F52C3B
:0800B600FB7A00792102078C9E
:10066900120A6E120B4C1200A6D2AFE4F51BFFEF73
:10067900C39408748094805009740A2FF876100F77
:1006890080ED120A2CC2D5C3E508943C748094808D
:100699004002D2D5C3E512943C748094804002D2C2
:1006A900D5C3E5159418748094804002D2D530D50D
:1006B9000BE4F508F51275150C1209981209E57580
:1006C9000C11750F11E4F518F513F514F517F51656
:1006D900F5093000FDC200051AE51A70020519C3B3
:1006E90094E8E5199403400BE4F519F51A120A2C5C
:1006F9001209E50509C3E50994327480948040061E
:10070900E4F509120922AF13EF60C76411701605E9
:1007190015C3E5159418748094804003E4F5151207
:1007290009981209E5E513641270161515C3E51544
:10073900941874809480400375151712099812094A
:10074900E5E51364137018F5080512C3E512943C26
:10075900748094804003E4F5121209981209E5E5C2
:100769001364147018F5081512C3E512943C7480CB
:100779009480400375123B1209981209E5E4F513B8
:030789000206DB8A
:1009E500C3E515940A74809480400AE51575F00AEC
:1009F50084F50A8003750A10E51575F00A8485F0FB
:100A05000B750C11E51275F00A84F50DE51275F0FC
:100A15000A8485F00EE50875F00A84F510E5087579
:070A2500F00A8485F01122A4
:100A2C007B007A0079217528037F02120066E5218C
:100A3C00C4540775F00AA4FFE521540F2FF508E5FF
:100A4C0022C4540775F00AA4FFE522540F2FF512A7
:100A5C00E523C4540375F00AA4FFE523540F2FF5C6
:010A6C001574
:010A6D002266
:10099800E50875F00A84C454F0FFE50875F00A8488
:1009A800E5F02FF521E51275F00A84C454F0FFE54F
:1009B8001275F00A84E5F02FF522E51575F00A8422
:1009C800C454F0FFE51575F00A84E5F02FF5237B94
:0D09D800007A0079217528037F02020B21AF
:040003007F3CDFFE61
:0100070022D6
:10092200AE177580F0120003E58054F0F51775805C
:100932000F120003E580540F42176317FFEE65178D
:100942007050AE14851714E5146044C2D5EE7004DD
:10095200D2D58016EEB514120516E516C39414749A
:100962008094804005751612D2D530D525E514C481
:10097200540F90005193FE6019E514540F93FF60D9
:1009820011EE25E025E0FEEF2E240CF5138003E4A2
:05099200F5167580FF61
:01099700223D
:100AEA00C37407951BFFE49400FE74492FF58274C2
:100AFA00003EF583E493F4F5F8740A251BF8E690B2
:100B0A00001E93F4F5E8051BC3E51B940874809452
:070B1A00804003E4F51B22FB
:1003F200EFD394077480948040037F012212089205
:10040200FED394037480948040037F0222EF7044F1
:10041200EE700B9000011208ABF452935294120842
:10042200926401700B9000011208AB4293F4529453
:10043200120892FE6402700A9000011208AB429305
:100442004294EE6403700D9000011208ABFEF45268
:1004520093EE4294EF64017046120892FE700B9084
:1004620000011208ABF452915292EE6401700B90AB
:1004720000011208AB4291F4529212089264027087
:100482000A9000011208AB42914292120892640350
:10049200700D9000011208ABFEF45291EE4292EF01
:1004A20064027046120892FE700B9000011208ABB3
:1004B200F452955296EE6401700B9000011208AB53
:1004C2004295F452961208926402700A9000011248
:1004D20008AB429542961208926403700D90000197
:1004E2001208ABFEF45295EE4296EF640370461288
:1004F2000892FE700B9000011208ABF452B152B296
:10050200EE6401700B9000011208AB42B1F452B2DA
:100512001208926402700A9000011208AB42B142C2
:10052200B21208926403700D9000011208ABFEF43F
:1005320052B1EE42B2EF64047046120892FE700BA2
:100542009000011208ABF452B352B4EE6401700B86
:100552009000011208AB42B3F452B4120892640242
:10056200700A9000011208AB42B342B412089264BE
:1005720003700D9000011208ABFEF452B3EE42B4C8
:10058200EF64057046120892FE700B90000112088B
:10059200ABF452C952CAEE6401700B90000112080A
:1005A200AB42C9F452CA1208926402700A90000166
:1005B2001208AB42C942CA1208926403700D90003D
:1005C200011208ABFEF452C9EE42CAEF640670464D
:1005D200120892FE700B9000011208ABF452CB523B
:1005E200CCEE6401700B9000011208AB42CBF452C6
:1005F200CC1208926402700A9000011208AB42CB3E
:1006020042CC1208926403700D9000011208ABFEF6
:10061200F452CBEE42CCEF64077049120892FF7E8F
:1006220000700B9000011208ABF452E152E2EF6449
:10063200014E700B9000011208AB42E1F452E2123B
:1006420008926402700A9000011208AB42E142E291
:100652001208926403700D9000011208ABFFF4526D
:07066200E1EF42E27F0022FC
:10078C0043BA809000021208AB6401704290FE8064
:10079C00E04440F090FE82E4F09000031208AB902D
:1007AC00FE817006E0547FF08004E04480F0120873
:1007BC0092543FFF90FE80E054C04FF09000041222
:1007CC0008AB640190FE8870030208670208619010
:1007DC00FE80E054BFF090FE84E4F0900005120817
:1007EC00AB640190FE837006E04440F08004E0545A
:1007FC00BFF09000061208AB640190FE837006E017
:10080C004420F08004E054DFF09000071208AB6441
:10081C000190FE837006E04410F08004E054EFF089
:10082C009000081208AB640190FE837006E0440847
:10083C00F08004E054F7F09000091208AB25E0FFBB
:10084C0090FE85E054014FF090000A1208AB640151
:10085C0090FE857006E054FEF08004E04401F090B8
:10086C00000B1208ABFFE5BA54CF4FF5BA9000015C
:10087C001208AB90FE807006E0547FF08004E044D8
:06088C0080F053BA7F2248
:0C000E0090FE82E030E6F9E054BFF022E2
:090BE10090FE817401F002000E87
:0E0BB90090FE86EFF090FE817402F002000EB6
:100B6A00AE0743BA80120BE17FA2120BB9120B7FB8
:050B7A00AF06120BB9EB
:090B7F0090FE817403F002000EE7
:0F0B9B0090FE817404F012000E90FE87E0FF229E
:0E0BC70090FE82E4F090FE817405F002000EB4
:0F0BAA0090FE827401F090FE817405F002000E3F
:090BEA0090FE817406F002000E79
:100B21008B258A268927120B6AAB250527E527AA7B
:100B3100267002052614F9120892FF120BB9120B46
:0B0B41007FD528E5120BEA53BA7F2293
:10006600120B6A120BE17FA3120BB9120B7F120B54
:100076009BEF1208D8740129F9E43AFAE5286401DD
:100086006003120BC7D528E6120BAA120BEA53BA65
:020096007F22C7
:0300C300020B88A5
:070B8800C0D075D000C007CA
:070B8F00AFBA43BA808FBA30
:050B9600D007D0D032B1
:03000B00020AAD39
:100AAD00C0E0C0F0C083C082C0D075D000C000C00F
:100ABD0001C002C003C004C005C006C007120AEA87
:100ACD00D200D007D006D005D004D003D002D0017B
:0D0ADD00D000D0D0D082D083D0F0D0E03255
:03001B00020008D8
:0100080032C5
:030063000200098F
:0100090032C4
:03009B0002000A56
:01000A0032C3
:0300A30002001A3E
:01001A0032B3
:1000C600AD07EDD394047480948040037F0122ED44
:1000D600600302019BC28C9000021208AB6401709F
:1000E60004D2A98002C2A99000011208ABFED394E3
:1000F600037480948040037F0222EEFF7E00700529
:1001060053B7FDC2B9EF64014E700553B7FDD2B9BE
:10011600EF64024E700543B702C2B9EF64034E7036
:100126000543B702D2B9120892FEC39403748094B1
:100136008040037F0222E58954CF4EF58990000363
:100146001208ABFF7E0064017003538E7FEF4E7082
:1001560003438E80EF64024E700543890480035387
:1001660089FB9000041208AB64017005438F01807F
:1001760003538FFE9000051208EAE5F0F58C900017
:10018600051208EAF58A9000071208AB64017002AE
:10019600D28C7F0022ED64016003020263C28E905E
:1001A60000021208AB64017004D2AB8002C2AB90AD
:1001B60000011208ABFED394037480948040037F41
:1001C6000222EEFF7E00700553B7F7C2BBEF640153
:1001D6004E700553B7F7D2BBEF64024E700543B7B6
:1001E60008C2BBEF64034E700543B708D2BB1208C2
:1001F60092FEC394037480948040037F0222E589B3
:1002060054CF4EF5899000031208ABFF7E006401BF
:100216007003538EBFEF4E7003438E40EF64024E61
:10022600700543894080035389BF9000041208ABD0
:1002360064017005438F028003538FFD9000051201
:1002460008EAE5F0F58D9000051208EAF58B9000B6
:10025600071208AB64017002D28E7F0022ED6402A1
:10026600707C538EEF9000021208AB640170054358
:10027600AF04800353AFFB9000031208ABFED39488
:10028600027480948040037F0222EEFF7E006401A8
:100296007003538EFBEF4E7003438E04EF64024EE1
:1002A6007005438E088003538EF79000041208AB46
:1002B60064017005438F048003538FFB9000051281
:1002C60008EAE5F0F5D69000051208EAF5D79000A1
:1002D600071208AB64017003438E107F0022ED64A1
:1002E60003707C53D1F79000021208AB64017005CD
:1002F60043AF20800353AFDF9000031208ABFED359
:1003060094027480948040037F0222EEFF7E006494
:1003160001700353D1FDEF4E700343D102EF640227
:100326004E700543D104800353D1FB90000412089C
:10033600AB6401700543D101800353D1FE900005E3
:100346001208EAE5F0F5D49000051208EAF5D59012
:1003560000071208AB6401700343D1087F0022ED49
:10036600640460030203EF53D17F9000021208ABCE
:100376006401700543AF40800353AFBF9000031282
:1003860008ABFD7C00D394027480948040037F0206
:1003960022ED64014C700353D1DF9000031208ABC9
:1003A600700343D1209000031208AB64027005432A
:1003B600D140800353D1BF9000041208AB64017092
:1003C6000543D110800353D1EF9000051208EAFDD2
:1003D600ACF0ECF5D2AF058FD39000071208AB64F2
:0C03E60001700343D1807F00227F0222BF
:03000000020BD51B
:0C0BD500787FE4F6D8FD75812C020669DB
:10089200BB010689828A83E0225002E722BBFE0264
:0908A200E32289828A83E4932297
:1008AB00BB010CE58229F582E5833AF583E0225002
:1008BB0006E92582F8E622BBFE06E92582F8E2224C
:0D08CB00E58229F582E5833AF583E4932266
:1008D800BB010689828A83F0225002F722BBFE01FF
:0208E800F322F9
:1008EA00BB0110E58229F582E5833AF583E0F5F04C
:1008FA00A3E0225009E92582F886F008E622BBFE29
:10090A000AE92582F8E2F5F008E222E5832AF5836E
:08091A00E993F5F0A3E9932233
:00000001FF
