:03000000020A12DF
:0C0A1200787FE4F6D8FD758141020A5996
:0B000E000000007F0B7EBEDEFEDFFC6A
:0100190022C4
:0E14C100AD07AF051DEF600512000E80F5228D
:10136A004C003C005A005A008700870000000046E3
:08137A0000360101010101012F
:101343007533037534FF7B007A007933E4FF1200B1
:10135300A67B007A0079337F011200A67B007A0016
:0713630079337F030200A6AD
:10148900E4F541F5417FFE1214C10541E541C394DC
:031499000A40F214
:01149C00222D
:050003007F200214C182
:060931008B3A8A3B893C71
:10093700E4F540AB3DAA3EA93F854082758300742C
:100947000112067FE540C39404503EE54025E024AC
:100957003CF582E43400F583E0FEA3E024E2FFEEF9
:1009670034FFFEAB3AAA3BA93C75F002E540A4F57B
:100977008285F083EE8FF0120740853D36853E373E
:10098700853F38120BBD121489E54025E0243CF55C
:1009970082E43400F583E0FEA3E0241EFFE43EFE7C
:1009A700AB3AAA3BA93C75F002E540A4F58285F075
:1009B70083EE8FF0120740853D36853E37853F38F9
:1009C700120BBD121489E54025E0243CF582E4347E
:1009D70000F583E0FEA3E0FFAB3AAA3BA93C75F024
:1009E70002E540A4F58285F083EE8FF0120740857B
:1009F7003D36853E37853F38120BBD1214890540B9
:0A0A0700E540C39406500302093ACB
:010A110022C2
:100C5900900024E4F0A3745AF0A3E4F0A3745AF0CA
:100C6900A3E4F0A37487F0A3E4F0A37487F0E4A3EA
:100C7900F0A3F0A3F0A3F075360175370075383687
:100C89007B017A007924120BBD7536017537007521
:0B0C990038367B017A007924020C0B36
:100CA400900024E4F0A374B4F0A3E4F0A3745AF025
:100CB400A3E4F0A37487F0A3E4F0A37487F0E4A39F
:100CC400F0A3F0A3F0A3F07536017537007538363C
:100CD4007B017A007924120BBD75360175370075D6
:0B0CE40038367B017A007924020C0BEB
:100A9E00E4F532E53225E02400F582E43400F583F6
:100AAE00E4F0A3F074182532F582E43400F583E403
:100ABE00F0E53225E0240CF582E43400F583E4F011
:100ACE00A3F0741E2532F582E43400F583E4F005BC
:100ADE0032E532B406BD1213431210F312112E1268
:100AEE000C59E4F5327FFE1214C10532E532C3947F
:080AFE003240F2120CA480E763
:1000A600EFD3940740037FFF22120639FED3940351
:1000B60040037FFF22EF7041EE700B9000011206A5
:1000C60052F452935294120639B4010B9000011265
:1000D60006524293F45294120639FEB4020A900074
:1000E6000112065242934294EEB4030D900001129F
:1000F6000652FEF45293EE4294EF640170431206E8
:1001060039FE700B900001120652F452915292EE93
:10011600B4010B9000011206524291F4529212065B
:1001260039B4020A90000112065242914292120616
:1001360039B4030D900001120652FEF45291EE42BC
:1001460092EF64027043120639FE700B90000112A2
:100156000652F452955296EEB4010B900001120627
:10016600524295F45296120639B4020A90000112D0
:10017600065242954296120639B4030D90000112BA
:100186000652FEF45295EE4296EF64037043120651
:1001960039FE700B900001120652F452B152B2EEC3
:1001A600B4010B90000112065242B1F452B212068B
:1001B60039B4020A90000112065242B142B2120646
:1001C60039B4030D900001120652FEF452B1EE420C
:1001D600B2EF64047043120639FE700B90000112F0
:1001E6000652F452B352B4EEB4010B90000112065B
:1001F6005242B3F452B4120639B4020A9000011204
:10020600065242B342B4120639B4030D90000112ED
:100216000652FEF452B3EE42B4EF64057043120682
:1002260039FE700B900001120652F452C952CAEE02
:10023600B4010B90000112065242C9F452CA1206CA
:1002460039B4020A90000112065242C942CA120685
:1002560039B4030D900001120652FEF452C9EE4263
:10026600CAEF64067043120639FE700B9000011245
:100276000652F452CB52CCEEB4010B90000112069A
:100286005242CBF452CC120639B4020A9000011243
:10029600065242CB42CC120639B4030D900001122D
:1002A6000652FEF452CBEE42CCEF640770431206C0
:1002B60039FF700B900001120652F452E152E2EF40
:1002C600B4010B90000112065242E1F452E212060A
:1002D60039B4020A90000112065242E142E21206C5
:1002E60039B4030D900001120652FFF452E1EF42B9
:0402F600E27F002281
:03000B0002107D63
:10107D00C0E0C0F0C083C082C0D075D000C000C039
:10108D0001C002C003C004C005C006C00712076D31
:10109D00D007D006D005D004D003D002D001D000A7
:0B10AD00D0D0D082D083D0F0D0E03251
:03001B000210B818
:1010B800C0E0C0F0C083C082C0D075D000C000C0FE
:1010C80001C002C003C004C005C006C00712084F13
:1010D800D007D006D005D004D003D002D001D0006C
:0B10E800D0D0D082D083D0F0D0E03216
:0300630002000890
:03000800B2ED3224
:03009B00020095CB
:03009500B2EC3298
:0300A300020098C0
:03009800B2EB3296
:1002FA00AD07ED7079C28C120639FEC39403400330
:10030A007FFF22E58954FC4EF589900001120652BE
:10031A00FED3940240037FFF22EE7006538E7F5372
:10032A0089FB900001120652B40106438E8053895C
:10033A00FB900001120652B40203438904900002A2
:10034A00120652FFE58F54FE4FF58F9000031207F5
:10035A0008E5F0F58C900003120708F58A9000056D
:10036A001206527004C28C8002D28C7F0022ED6485
:10037A00016003020400C28E120639FEC3940340D0
:10038A00037FFF22EEC454F0FFE58954CF4FF5896D
:10039A00900001120652FED3940240037FFF22EE20
:1003AA007006538EBF5389BF900001120652B401E2
:1003BA0006438E405389BF900001120652B40203CD
:1003CA0043894090000212065225E0FFE58F54FD52
:1003DA004FF58F900003120708E5F0F58D900003A2
:1003EA00120708F58B9000051206527004C28E801F
:1003FA0002D28E7F0022ED6402705B538EEF900072
:10040A0001120652FF7006538EFB538EF7EFB401AA
:10041A0006438E04538EF7EFB40203438E0890000E
:10042A000212065225E025E0FFE58F54FB4FF58FB7
:10043A00900003120708E5F0F5D6900003120708AA
:10044A00F5D7900005120652C454F0FFE58E54EF1A
:10045A004FF58E7F0022ED6403706853D1F7900048
:10046A0001120652FED3940240037FFF22EE700669
:10047A0053D1FD53D1FB900001120652B401064339
:10048A00D10253D1FB900001120652B4020343D1A8
:10049A0004900002120652FFE5D154FE4FF5D190A6
:1004AA000003120708E5F0F5D4900003120708F5D7
:1004BA00D590000512065233333354F8FFE5D15470
:1004CA00F7806DED6404706E53D17F9000011206BF
:1004DA0052FED3940240037FFF22EE700653D1DF0F
:1004EA0053D1BF900001120652B4010643D12053E2
:1004FA00D1BF900001120652B4020343D1409000CA
:10050A0002120652C454F0FFE5D154EF4FF5D190D0
:10051A000003120708FDACF0ECF5D2AF058FD390BB
:10052A000005120652C43333335480FFE5D1547F99
:09053A004FF5D17F00227FFF2262
:1011A300EFD394015009EF7004C2A98002D2A9EDD4
:1011B300D394035020ED700553B7FDC2B9BD0105AB
:1011C30053B7FDD2B9BD020543B702C2B9BD03058A
:0811D30043B702D2B97F0022EC
:1011DB00EFD394015009EF7004C2AB8002D2ABED98
:1011EB00D394035020ED700553B7F7C2BBBD010577
:1011FB0053B7F7D2BBBD020543B708C2BBBD03054E
:08120B0043B708D2BB7F0022AB
:10143200EFD39401500DEF25E025E0FFE5AF54FB1B
:061442004FF5AFE4FF22AC
:10144800EFD39401500DEFC43354E0FFE5AF54DF00
:061458004FF5AFE4FF2296
:1013D600EFD39401500EEFC4333354C0FFE5AF543E
:0713E600BF4FF5AFE4FF2249
:10121300EFD394015009EF7004C2A88002D2A8ED65
:10122300D394035020ED700553B7FEC2B8BD01053A
:1012330053B7FED2B8BD020543B701C2B8BD03051B
:0812430043B701D2B87F00227D
:10124B00EFD394015009EF7004C2AA8002D2AAED29
:10125B00D394035020ED700553B7FBC2BABD010503
:10126B0053B7FBD2BABD020543B704C2BABD0305DF
:08127B0043B704D2BA7F002240
:10147400EFD39401500CEFC454F0FFE58F54EF4FB9
:05148400F58FE4FF22DA
:10145E00EFD39401500DEFC43354E0FFE58F54DF0A
:06146E004FF58FE4FF22A0
:1013ED00EFD39401500EEFC4333354C0FFE58F5447
:0713FD00BF4FF58FE4FF2252
:10128300EFD394015009EF7004C2AD8002D2ADEDEB
:10129300D394035020ED700553B7DFC2BDBD0105E4
:1012A30053B7DFD2BDBD020543B720C2BDBD0305A1
:0812B30043B720D2BD7F0022E9
:10001E00EF30E10543E620800353E6DFEF30E005E5
:10002E0043E610800353E6EFEDD394035024ED70B6
:10003E000653B6DF53B5DFBD010653B6DF43B52019
:10004E00BD020643B62053B5DFBD030643B62043BB
:05005E00B5207F002227
:100B6400EFD3940140037FFF2243BA80BF0112ED0B
:100B740090FE817006E0547FF08011E04480F080A4
:100B84000BEF700890FE83E054874DF0EBD3940391
:100B94005024EB700653B6DF53B5DFBB010653B6E2
:100BA400DF43B520BB020643B62053B5DFBB0306C3
:090BB40043B62043B5207F002266
:1012BB00EFD394015009EF7004C2AC8002D2ACEDB5
:1012CB00D394035020ED700553B7EFC2BCBD01059D
:1012DB0053B7EFD2BCBD020543B710C2BCBD03056B
:0812EB0043B710D2BC7F0022C2
:10116900EFD394015007E5AF54FE4FF5AFEDD3949B
:10117900035024ED700653B6FE53B5FEBD01065368
:10118900B6FE43B501BD020643B60153B5FEBD0324
:0A1199000643B60143B5017F0022B2
:100CEF00EFD39401500EEF33333354F8FFE5AF5485
:100CFF00F74FF5AFEDD394035024ED700653EEFE8E
:100D0F0053DFFEBD010653EEFE43DF01BD02064376
:100D1F00EE0153DFFEBD030643EE0143DF017F000B
:010D2F0022A1
:100D3000EFD39401500CEFC454F0FFE5AF54EF4FE4
:100D4000F5AFEDD394035024ED700653EEFD53DF61
:100D5000FDBD010653EEFD43DF02BD020643EE0278
:0F0D600053DFFDBD030643EE0243DF027F002297
:100D6F00EFD39401500BEF25E0FFE5AF54FD4FF5A6
:100D7F00AFEDD394035024ED700653B6FD53B5FD7C
:100D8F00BD010653B6FD43B502BD020643B602537D
:0E0D9F00B5FDBD030643B60243B5027F002238
:100B0600EBD394035020EB700553B77FC2BFBB01F4
:100B16000553B77FD2BFBB020543B780C2BFBB0335
:100B26000543B780D2BFEF1460111460121460132E
:100B360014601D240470248DDA80208DDB801C8DCA
:100B4600DC801843BA8090FD54EDF053BA7F800BD9
:0E0B5600ED5401FFE5D954FE4FF5D97F002282
:100DAD0043BA8090FA10E054F0F0EDD39403500B59
:100DBD00E0FEED25E025E0FDEE4DF0EBD394035084
:100DCD000690FA10E04BF090FA10E0BF0105448058
:0C0DDD00F08003547FF053BA7F7F0022A7
:100DE90043BA8090FA00E054F0F0EDD39403500B2D
:100DF900E0FEED25E025E0FDEE4DF0EBD394035048
:100E09000690FA00E04BF090FA00E0BF010544803B
:0C0E1900F08003547FF053BA7F7F00226A
:100E250043BA8090FA20E054F0F0EDD39403500BD0
:100E3500E0FEED25E025E0FDEE4DF0EBD39403500B
:100E45000690FA20E04BF090FA20E0BF01054480BF
:0C0E5500F08003547FF053BA7F7F00222E
:100E610043BA8090FA30E054F0F0EDD39403500B84
:100E7100E0FEED25E025E0FDEE4DF0EBD3940350CF
:100E81000690FA30E04BF090FA30E0BF0105448063
:0C0E9100F08003547FF053BA7F7F0022F2
:100E9D0043BA8090FA38E054F0F0EDD39403500B40
:100EAD00E0FEED25E025E0FDEE4DF0EBD394035093
:100EBD000690FA38E04BF090FA38E0BF0105448017
:0C0ECD00F08003547FF053BA7F7F0022B6
:100ED90043BA8090FA40E054F0F0EDD39403500BFC
:100EE900E0FEED25E025E0FDEE4DF0EBD394035057
:100EF9000690FA40E04BF090FA40E0BF01054480CB
:0C0F0900F08003547FF053BA7F7F002279
:100F150043BA8090FA48E054F0F0EDD39403500BB7
:100F2500E0FEED25E025E0FDEE4DF0EBD39403501A
:100F35000690FA48E04BF090FA48E0BF010544807E
:0C0F4500F08003547FF053BA7F7F00223D
:100F510043BA8090FA50E054F0F0EDD39403500B73
:100F6100E0FEED25E025E0FDEE4DF0EBD3940350DE
:100F71000690FA50E04BF090FA50E0BF0105448032
:0C0F8100F08003547FF053BA7F7F002201
:100F8D0043BA8090FA58E054F0F0EDD39403500B2F
:100F9D00E0FEED25E025E0FDEE4DF0EBD3940350A2
:100FAD000690FA58E04BF090FA58E0BF01054480E6
:0C0FBD00F08003547FF053BA7F7F0022C5
:100FC90043BA8090FA60E054F0F0EDD39403500BEB
:100FD900E0FEED25E025E0FDEE4DF0EBD394035066
:100FE9000690FA60E04BF090FA60E0BF010544809A
:0C0FF900F08003547FF053BA7F7F002289
:1010050043BA8090FA68E054F0F0EDD39403500BA6
:10101500E0FEED25E025E0FDEE4DF0EBD394035029
:101025000690FA68E04BF090FA68E0BF010544804D
:0C103500F08003547FF053BA7F7F00224C
:1010410043BA8090FA70E054F0F0EDD39403500B62
:10105100E0FEED25E025E0FDEE4DF0EBD3940350ED
:101061000690FA70E04BF090FA70E0BF0105448001
:0C107100F08003547FF053BA7F7F002210
:1000660043BA8090FE50E054CFF0EDD39403500A8B
:10007600E0FEEDC454F0FDEE4DF090FE50E0BF0101
:0F008600054480F08003547FF053BA7F7F00223F
:10149D00000000000000000000000000000000003F
:0214AD0000003D
:07138200010800021B00003E
:1013B400753301E4F534F535753801FB7A0079337A
:1013C400FF1202FAE4F58AF58CFD7F011211A3D213
:0113D400AF69
:0113D50022F5
:101404007E007C007D641206A17D091206B3EF24E0
:07141400F4FFEE3401FE229B
:0412F300AF03AE0295
:1012F700EEC313FEEF13FF7C007D051206A1C3E4C6
:101307009FFFE49EFEEF240AFFE43EFEEF258AF5E9
:031317008A8E8C2F
:01131A0022B0
:1010F30078247C007D017BFF7A14799D7E007F0C30
:1011030012061378307C007D017BFF7A1479A97E67
:10111300007F061206131213B47536017537007576
:0B11230038307B017A007924020BBDFC
:060BBD008B338A348935F8
:100BC300E4F539AB33AA34A93575F002E539A4F558
:100BD3008285F083120708FF121404E53925E02407
:100BE3000FF8A60608A607AB36AA37A938853982B7
:100BF300758300120652FF74092539F8A6070539D3
:070C0300E539C3940640BC73
:010C0A0022C7
:10076D00E50825E0240FF8E6FE08E6FBAA06740965
:10077D002508F8E6F9E508B40700400302084E9095
:10078D000793F82828730207A80207BF0207D802AB
:10079D0007F102080A02082302083CE924FF9280AF
:1007AD001212F3C3E51C9BF51CE51B9AF51B75088E
:1007BD000122C280E924FF92811212F3C3E51C9B32
:1007CD00F51CE51B9AF51B75080222C281E924FF71
:1007DD0092821212F3C3E51C9BF51CE51B9AF51BC7
:1007ED0075080322C282E924FF92831212F3C3E536
:1007FD001C9BF51CE51B9AF51B75080422C283E9A9
:10080D0024FF92841212F3C3E51C9BF51CE51B9A81
:10081D00F51B75080522C284E924FF92851212F397
:10082D00C3E51C9BF51CE51B9AF51B75080622C23A
:10083D0085AF1CAE1B1212F7E4F508751B4E751C27
:01084D00208A
:01084E002287
:1014AF00000000000000000000000000000000002D
:0214BF0000002B
:07138900011D00023000000D
:10139100753301E4F534F535753801FB7A0079339D
:1013A1007F011202FAE4F58BF58DFD7F011211DB4D
:0213B100D2AFB9
:0113B3002217
:10141B007E007C007D641206A17D091206B3EF24C9
:07142B00F4FFEE3401FE2284
:04131B00AF03AE026C
:10131F00EEC313FEEF13FF7C007D051206A1C3E49D
:10132F009FFFE49EFEEF240AFFE43EFEEF258BF5C0
:03133F008B8E8D05
:011342002288
:10112E0078247C007D017BFF7A1479AF7E007F0CE2
:10113E0012061378307C007D017BFF7A1479BB7E1A
:10114E00007F06120613121391753601753700755E
:0B115E0038307B017A007924020C0B72
:060C0B008B338A348935A9
:100C1100E4F539AB33AA34A93575F002E539A4F509
:100C21008285F083120708FF12141BE53925E024A1
:100C310024F8A60608A607AB36AA37A93885398253
:100C4100758300120652FF741E2539F8A60705396F
:070C5100E539C3940640BC25
:010C58002279
:10084F00E51D25E02424F8E6FE08E6FBAA06741E43
:10085F00251DF8E6F9E51DB40700400302093090A5
:10086F000875F828287302088A0208A10208BA023C
:10087F0008D30208EC02090502091EE924FF92942D
:10088F0012131BC3E5319BF531E5309AF530751D19
:10089F000122C294E924FF929512131BC3E5319BE9
:1008AF00F531E5309AF530751D0222C295E924FF26
:1008BF0092B212131BC3E5319BF531E5309AF53037
:1008CF00751D0322C2B2E924FF92B312131BC3E5B5
:1008DF00319BF531E5309AF530751D0422C2B3E92D
:1008EF0024FF92B412131BC3E5319BF531E5309A07
:1008FF00F530751D0522C2B4E924FF92B512131B02
:10090F00C3E5319BF531E5309AF530751D0622C2EE
:10091F00B5AF31AE3012131FE4F51D75304E753182
:01092F0020A7
:0109300022A4
:100A1E00020A9EE493A3F8E493A34003F68001F246
:100A2E0008DFF48029E493A3F85407240CC8C333D9
:100A3E00C4540F4420C8834004F456800146F6DFA8
:100A4E00E4800B010204081020408090136AE47EBB
:100A5E00019360BCA3FF543F30E509541FFEE4939D
:100A6E00A360010ECF54C025E060A840B8E493A364
:100A7E00FAE493A3F8E493A3C8C582C8CAC583CA8F
:100A8E00F0A3C8C582C8CAC583CADFE9DEE780BE47
:01139000005C
:10054300E709F608DFFA8046E709F208DFFA803E9A
:1005530088828C83E709F0A3DFFA8032E309F60887
:10056300DFFA8078E309F208DFFA807088828C83EF
:10057300E309F0A3DFFA806489828A83E0A3F608A3
:10058300DFFA805889828A83E0A3F208DFFA804C7D
:1005930080D280FA80C680D4806980F28033801054
:1005A30080A680EA809A80A880DA80E280CA8033BD
:1005B30089828A83ECFAE493A3C8C582C8CCC58335
:1005C300CCF0A3C8C582C8CCC583CCDFE9DEE78005
:1005D3000D89828A83E493A3F608DFF9ECFAA9F084
:1005E300EDFB2289828A83ECFAE0A3C8C582C8CCDA
:1005F300C583CCF0A3C8C582C8CCC583CCDFEADEF3
:10060300E880DB89828A83E493A3F208DFF980CC54
:1006130088F0EF60010E4E60C388F0ED2402B4044D
:100623000050B9F582EB2402B4040050AF232345F4
:0606330082239005937381
:10063900BB010689828A83E0225002E722BBFE02BF
:09064900E32289828A83E49322F2
:10065200BB010CE58229F582E5833AF583E022505D
:1006620006E92582F8E622BBFE06E92582F8E222A7
:0D067200E58229F582E5833AF583E49322C1
:10067F00F8BB010DE58229F582E5833AF583E8F0B1
:10068F00225006E92582C8F622BBFE05E92582C85D
:02069F00F22245
:1006A100EF8DF0A4A8F0CF8CF0A428CE8DF0A42E6D
:0206B100FE2227
:1006B300BC000BBE0029EF8DF084FFADF022E4CC2B
:1006C300F875F008EF2FFFEE33FEEC33FCEE9DECF4
:1006D300984005FCEE9DFE0FD5F0E9E4CEFD22ED3A
:1006E300F8F5F0EE8420D21CFEADF075F008EF2F84
:1006F300FFED33FD4007985006D5F0F222C398FD75
:050703000FD5F0EA2211
:10070800BB0110E58229F582E5833AF583E0F5F02F
:10071800A3E0225009E92582F886F008E622BBFE0C
:100728000AE92582F8E2F5F008E222E5832AF58352
:08073800E993F5F0A3E9932217
:10074000F8BB0111E58229F582E5833AF583E8F0EB
:10075000E5F0A3F0225009E92582C8F608A6F022A8
:0D076000BBFE09E92582C8F2E5F008F2228F
:00000001FF
