:03000000020026D5
:0C002600787FE4F6D8FD75814E02006D75
:10016600C2907B007A00790012011A7FE812017FA3
:090176007F12120199B29080F28F
:0501A100032400000032
:10011A0053877F759850538EBF538EFE53890F4372
:10012A008920758BF3758DF3C2ABD28ED2AFD2AC68
:07013A008B248A258926228F
:080199002000FD8F99D2002225
:100141008B088A09890AAB08AA09A90A1200036067
:1001510013050AE50A7002050914F9120003FF12DA
:05016100019980E2227B
:030023000200B226
:1000B200C0E0C0F0C083C082C0D075D000C000C014
:1000C20001C002C003C004C005C006C007309826A4
:1000D200C2988599A085A099D20085A027E52545DB
:1000E20026452460117B007A0079278526828525A2
:1000F200837D01120020309904C299C200D007D03A
:1001020006D005D004D003D002D001D000D0D0D088
:0801120082D083D0F0D0E0326E
:0B018D000000007F0B7EBEDEFEDFFCEA
:010198002244
:0E017F00AD07AF051DEF600512018D80F52262
:10003200020166E493A3F8E493A34003F68001F27D
:1000420008DFF48029E493A3F85407240CC8C333CF
:10005200C4540F4420C8834004F456800146F6DF9E
:10006200E4800B01020408102040809001A1E47E8C
:10007200019360BCA3FF543F30E509541FFEE49393
:10008200A360010ECF54C025E060A840B8E493A35A
:10009200FAE493A3F8E493A3C8C582C8CAC583CA85
:1000A200F0A3C8C582C8CAC583CADFE9DEE780BE3D
:0101A6000058
:10000300BB010689828A83E0225002E722BBFE02FB
:09001300E32289828A83E493222E
:06001C008A838982E4736F
:00000001FF
