:10000000020FA97DA37C08ED1D70011C144C70F734
:0F001000EF1F70011E144E70EA22AE07020FB5EB
:10002300020EFCEC4D6011E8497017ED33EC33041C
:10003300600DE4FCFFFEFD22E933E8330470F802AF
:10004300023F12020A58046009E4CC2481500628B6
:100053005009020249284003020246C0E0EB4A70FD
:1000630044B98006D0E0FB020235EF4E701CBD8020
:1000730008EBFFEAFEE9FD80EBE98DF0A4FEE5F075
:1000830002010FE9CDF9EAFEEBFFEF89F0A4FCE5ED
:10009300F0CE89F0A42EFFE435F0CD89F0A42DFE37
:1000A300E435F08067EF4E7005BD80D780C3EF8BDA
:1000B300F0A4ACF0EE8BF0A42CFCE435F0F8EF8A5E
:1000C300F0A42CE5F038FCE433CB8DF0A42CFCE554
:1000D300F03BF8EE8AF0A42CFCE5F038F8E433CFDB
:1000E30089F0A42CFCE5F038CF3400CE89F0A42F9E
:1000F300FFE5F03EFEE433C98DF0A42EFEE5F039B2
:10010300CD8AF0A42FFFE5F03EFEE43DFD33D0E0C1
:10011300FB50070BBB000F020249EC2CFCEF33FF33
:10012300EE33FEED33FD020221020249EC5D046071
:1001330005E85904700302023F12020A580460F6EC
:10014300EC4860F2EC7004FDFEFF22C860DB248102
:10015300C85009C398600250060202469850CAF577
:1001630082E9294B4A7005AB8202023575F0007CA7
:100173001A7880C3EF9BEE9AED99400DC3EF9BFF76
:10018300EE9AFEED99FDE842F0DC23ACF0D0E0FFFF
:10019300D0E0FED0E0FDAB8220E7101BEB60BAECB1
:1001A3002CFCEF33FFEE33FEED33FD020221E803B7
:1001B300F830E705C0F075F000EF2FFFEE33FEEDEA
:1001C30033FD40B830E7C280AA75F020800E75F089
:1001D30010800575F0087D007E007F003392D530D6
:1001E300D503120614EC334010EF33FFEE33FEED6C
:1001F30033FDEC33FCD5F0ED22E5F0247EA2D513DC
:10020300CC92E7CDCEFF22E9D2E7C933E833F892A7
:10021300D5EDD2E7CD33EC33FC5002B2D522EC302E
:10022300E7100FBF000C0EBE00080DBD00040BEB62
:100233006014A2D5EB13FCED92E7FD2274FFFCFDE5
:10024300FEFF22E480F8A2D574FF13FC7D80E480D6
:10025300EFF920E72824F950037907E4F42402FB9B
:1002630018DBFDE624FB5014E9600DE4F618E60400
:10027300F6B40A08E4F6D9F57401F60A22C2D522C7
:10028300ED33EC3392D5FA602AB4FF33EDC2E77B4A
:10029300FF60067A0279A8E4227A0279B120D504B4
:1002A3007A0279AC224E614E002B494E46002D490D
:1002B3004E4600E47A08F608DAFC7B00740722E86D
:1002C300C0E0ECC0E0EDC0E0EEC0E0EFC0E0EA75F6
:1002D300F010A4CAABF075F04DA42BFBE435F0FC91
:1002E300EA2410FAEB34C5FBEC34D9FCEDC2E7FF8A
:1002F30075F056A4F42411C5F0F434C58FF0A42A84
:10030300E5F03BE43CF620E7141204AED0E0FFD066
:10031300E0FED0E0FDD0E0FC12012F8014F40412C3
:1003230004AED0E0FFD0E0FED0E0FDD0E0FC120050
:1003330026D0E0F8E6FAEDD2E7CD33EC332482FBA6
:10034300E4C3CF33CFCE33CECD33CD33DBF37B0713
:1003530075F00A846004F6081B0AE5F0F6088FF0CE
:10036300740AA4FFACF08EF0740AA42CFEACF05017
:10037300010C8DF0740AA42CFDE435F0F608DBDEE5
:1003830074072202023FE86480F8E933E83360111E
:100393000460F0ED33EC337009E8FCE9FDEAFEEBB1
:1003A300FF220460DED3EB9FEA9EE99DE8C2E78C5F
:1003B300F0C2F795F0400CE8CCF8E9CDF9EACEFAB3
:1003C300EBCFFB12020A85D0F05804700320D5B39B
:1003D300E80470075002B2D502024992D5EC0460DA
:1003E300F7E4CCC0E0C398F8603B94186008400D74
:1003F300D0E0FB020221E4FBFAC9FC8028E830E4E8
:1004030006E4C9FBE4CAFCE830E305E4C9CACBFC53
:10041300E854076010F8C3E913F9EA13FAEB13FB86
:10042300EC13FCD8F130F52FC3E49CFCEF9BFFEEFB
:100433009AFEED99FDD0E0FBEF4E4D4C701222DB9E
:1004430003020246EC2CFCEF33FFEE33FEED33FDEB
:10045300ED30E7EB020221EF2BFFEE3AFEED39FD23
:10046300D0E0FB50130BBB0003020249ED13FDEE7A
:1004730013FEEF13FFEC13FC0202213F8000004147
:1004830020000042C80000447A0000461C40004798
:10049300C35000497424004B1896804CBEBC205AAC
:1004A3000E1BCA6753C21C749DC5AEFB600654077E
:1004B300601C23231204DCEB543860091204C812B5
:1004C30004D7120026ECF8EDF9EEFAEFCB22EB128B
:1004D30004D780F1543803241C90047EFE93FC0E51
:1004E300EE93FD0EEE930ECE93FF22BB010689829F
:1004F3008A83E0225002E722BBFE02E32289828A3A
:1005030083E49322BB010CE58229F582E5833AF566
:1005130083E0225006E92582F8E622BBFE06E925A0
:1005230082F8E222E58229F582E5833AF583E493B2
:1005330022BB010689828A83F0225002F722BBFE86
:1005430001F32275F008758200EF2FFFEE33FECD25
:1005530033CDCC33CCC58233C5829BED9AEC99E580
:100563008298400CF582EE9BFEED9AFDEC99FC0F10
:10057300D5F0D6E4CEFBE4CDFAE4CCF9A88222B8D8
:1005830000C1B90059BA002DEC8BF084CFCECDFC5D
:10059300E5F0CBF97818EF2FFFEE33FEED33FDECEA
:1005A30033FCEB33FB10D703994004EB99FB0FD8D3
:1005B300E5E4F9FA227818EF2FFFEE33FEED33FD71
:1005C300EC33FCC933C910D7059BE99A4007EC9B70
:1005D300FCE99AF90FD8E0E4C9FAE4CCFB2275F000
:1005E30010EF2FFFEE33FEED33FDCC33CCC833C811
:1005F30010D7079BEC9AE899400AED9BFDEC9AFC17
:10060300E899F80FD5F0DAE4CDFBE4CCFAE4C8F9C5
:1006130022C3E49FFFE49EFEE49DFDE49CFC22EBE9
:100623009FF5F0EA9E42F0E99D42F0E89C45F022F6
:10063300E8600FECC313FCED13FDEE13FEEF13FFA5
:10064300D8F122BB010DE58229F582E5833AF583D2
:100653000206B95007E92582F80206ACBBFE07E99A
:100663002582F80206C5E58229F582E5833AF583FA
:100673000206D2FAE6FB0808E6F925F0F618E6CA00
:100683003AF622D083D082F8E49370127401937007
:100693000DA3A393F8740193F5828883E473740222
:1006A300936860EFA3A3A380DFE6FB08E6F908E6FF
:1006B300FA08E6CBF822E0F8A3E0F9A3E0FAA3E016
:1006C300FB22E2FB08E2F908E2FA08E2CBF822E4B3
:1006D30093F8740193F9740293FA740393FB22E57C
:1006E3003C2428F8E6053C2278253007027828E4E4
:1006F30075F0011206760204EE2000EB7F2ED20085
:100703008018EF540F2490D43440D4FF30040BEFFF
:1007130024BFB41A0050032461FFE53D6002153D78
:100723000540E5407002053F30070D7825E475F07C
:1007330001120676EF02053402001A7403D2078011
:1007430003E4C207F53C8B258A268927E4F53DF5AA
:100753003FF540E53D60077F2012071D80F5753E9C
:10076300FFC201C200C202C203C205C206C208120E
:1007730006EBFF700D3007057F0012072EAF40AE6A
:100783003F22B4255FC2D5C2041206EBFF24D0B4C6
:100793000A00501A75F00A783D30D50508B6FF01F6
:1007A30006C6A426F620D5047002D20380D924CF2E
:1007B300B41A00EF5004C2E5D204020A1BD201802E
:1007C300C6D20080C0D20280BCD2D580BAD2058006
:1007D300B47F2012071D2002077401B53D0040F1CC
:1007E3001206E2FF12071D020756D208D2068095B1
:1007F3001206E2FB1206E2FA1206E2F94A4B70060F
:1008030079127A0B7BFF20022EE53D602A7E008E53
:100813008275830012050760060EEE653E70F0C216
:10082300D5EBC0E0EAC0E0E9C0E0EE120A7BD0E01D
:10083300F9D0E0FAD0E0FB1204EEFF60AAEBC0E0CF
:10084300EAC0E0E9C0E012071DD0E02401F9D0E0DE
:100853003400FAD0E0FBE53E0460DCD53ED9808766
:10086300D20280A2120A5E60F7E53E700104120212
:1008730054A93E600DE53E600914F53E120B05EFE9
:1008830060F3EA30E702F404C3995077EAF4253EB3
:100893000430E701E404F53E800D120A5E60C1EA0C
:1008A300053E253E120254EA783BF630E701E42583
:1008B3003E04D53E0420050114120A7BE4C0E01275
:1008C3000B05783BE6601320E70714F61207058053
:1008D3002204F6D0E014C0E07F00120705E53E6075
:1008E300071206FC153E800B3005031206FCD0E010
:1008F300020756D0E00480C5120A5E60A0E53E04FC
:10090300120254783BEAF6E53E2005026001042416
:1009130004120A7B74FF04C0E0120B05120705E5FD
:100923003E20050260031206FCD0E0B53EE87F4599
:1009330012070F783BE67F2B30E7047F2DF404C0CA
:10094300E012071DD0E075F00A84C0F0120706D04C
:10095300E0120706020756791080027908C206C220
:10096300088008D2D5790A8004790AC2D5E53E0405
:100973007002F53EE4FAFDFEFF1206E2FC7B08205E
:1009830001131206E2FD7B1030000A1206E2FE128A
:1009930006E2FF7B20EC3382D592D55013C3E430BB
:1009A30000069FFFE49EFEE42001039DFDE49CFC02
:1009B300E4CBF8C201EC700CCFCECDCCE824F8F830
:1009C30070F38017C3EF33FFEE33FEED33FDEC33EB
:1009D300FCEB33FB994002FB0FD8E9EB300105F840
:1009E300D0E0C448B201C0E00AEC4D4E4F78207B02
:1009F3000070C2EAB53E0040BCC0E0120A7DD0F0F0
:100A0300D0E0200104C4C0E0C4B201C0F012070664
:100A1300D0F0D5F0EB02075612068607F353095AB6
:100A23005807C44C07C042095E4F0966440966492A
:100A330007D943096C55089D4608FB450867470BD2
:100A4300325007C82D07CC2E07EF2B07D02307ED15
:100A5300200B1B2A078848000007E7E53EB4FF0385
:100A6300753E061206E2FC1206E2FD1206E2FE12D3
:100A730006E2FF7834020283790AA2D520031430F8
:100A83000509B910020404B9080104A2D52006021D
:100A93005001042002689202B53D005034C0E07F4B
:100AA300203003197F30A20272067205500F120A1A
:100AB300D4C202C206C205C2087F30800F300503CC
:100AC300E9C0E012071D300503D0E0F9D0E0B53DE1
:100AD300CC3005177F30B9100C12071D7F58300436
:100AE300077F788003B9080312071D3002057F2DA5
:100AF30002071D7F202008F87F2B2006F322920295
:100B030080CF7F00B4070050052434F8E6FF222885
:100B13006E756C6C2900D2011206E23001F8C20135
:100B2300783D30D50108F60207882D504349581205
:100B330006E22403B405004001E4900B2D93120751
:100B43000E743A12070ED203753D0402095A8B2E16
:100B53008A2F8930EF64016003020CBA750801F52E
:100B630009F50AF50BF50CF50DF50EFFEFC39480AF
:100B730074809480500F74802FF582E43400F583E1
:100B8300E4F00F80E7E4FFEFC39480748094805017
:100B93000F74002FF582E43400F583E4F00F80E74F
:100BA300AB2EAA2FA9301204EEFFE598543F4FF560
:100BB30098EF64C06008EF64406003020C69900022
:100BC300021206467F007E607D547C001205828FF0
:100BD300348E338D328C31E4FFFE7D01FCAB34AABD
:100BE30033A932A831C312062240037FFF22C3E494
:100BF3009534F534E49533F53374019532F532E4E5
:100C03009531F531AB2EAA2FA930900001120507BB
:100C130064027026538EEF438E01538EF7438E0486
:100C2300AF34AE33AD32AC3178081206338FD6858C
:100C330034D753AFFB438E108066C28E538EFE5360
:100C430089BF5389CF438E40AF34AE33AD32AC311D
:100C530078081206338F8D85348BC2AB5389BF530B
:100C63008FFDD28E803AAB2EAA2FA9301204EEFF4D
:100C73007E00701490000812050764017005438E0E
:100C830020801D538EDF8018EF64804E7012900019
:100C93000812050764017005438780800353877F2B
:100CA300AB2EAA2FA9309000071205077004C29C2F
:100CB3008002D29C7F00227FFF22120F8F120F47E8
:100CC300120F6ED2AF7BFF7A0F79BF120744E4F5A0
:100CD30022C3E5229404748094804003020D787F3C
:100CE300FA7E00120003C3E52294037480948050BB
:100CF3001AAF22120D848E238F247BFF7A0F79E1A2
:100D030085222885232985242A801B7F0F120D84A1
:100D13008E238F2485230F8524107BFF7A0F79EE92
:100D2300852328852429120744AC23AD24E412012A
:100D3300D17BEC7A517998783F120026C004C00524
:100D4300C006C007AC0FAD10E41201D1A804A90579
:100D5300AA06AB07D007D006D005D00412012F8F07
:100D63002B8E2A8D298C287BFF7A0F79FB1207445F
:100D73000522020CD47BFF7A107906120744020C79
:100D8300D1EFD3940F7480948040028063E4F5BD67
:100D9300F5BEE5BC54F044404FF5BC00000000E450
:100DA300FDEDC394FA748094805045E5BC30E53D75
:100DB30053BCDFE5DEAFBD30E50EEFFEACBEECFBB2
:100DC300EEF525EBF52680207525008F26E5BEC4BC
:100DD300540FFBE526C4F8540FC868FFE525C45437
:100DE300F048F525EF4BF526AE25AF26220D80B151
:100DF3007E107F0022900001120507FFE5DE54F00C
:100E03004FF5DE900002120507C43354E0FFE5DE20
:100E130054DF4FF5DE1204EED3941F748094805098
:100E23003D900003120507FFD39401748094805012
:100E33002D900004120507FED39403748094805010
:100E43001D43BA80EEC43354E0FEEFC4333333544E
:100E5300804EFF1204EE4F90FEA8F053BA7F22EFAC
:100E6300FBD39401748094805009EB7004C2AD806D
:100E730002D2ADEDFF7E00D3940374809480502999
:100E8300EF700553B7DFC2BDEF64014E700553B772
:100E9300DFD2BDEF64024E700543B720C2BDEF64DD
:100EA300034E700543B720D2BD7F0022EFFBD394DE
:100EB30001748094805009EB7004C2AC8002D2AC00
:100EC300EDFF7E00D39403748094805029EF700566
:100ED30053B7EFC2BCEF64014E700553B7EFD2BCFA
:100EE300EF64024E700543B710C2BCEF64034E704B
:100EF3000543B710D2BC7F0022C0E0C083C082C0CC
:100F0300D075D000C007309828C298E50E7022C370
:100F1300E50C9480748094804003750C00AF0C053D
:100F23000C74002FF582E43400F583E599F0750D18
:100F330005309905C299750B00D007D0D0D082D067
:100F430083D0E032752540752601752A007529C2C4
:100F5300752801752700752C017B007A0079257FA0
:100F630001120B517D017F01020EAF75251FE4F5C0
:100F730028752901F526752701FB7A007925120DBD
:100F8300F87F01120F9CE4FDFF020E6243910F53A1
:100F930092F053B1FC53B2FC22EF6401700443BCE2
:100FA300802253BC7F22787FE4F6D8FD758140020E
:100FB3000CBD8F99750B01E50B70FC22535443381C
:100FC30020414420746F205541525420546573745A
:100FD3002050726F6772616D6D65210D0A00414487
:100FE3002562643D253034642020004144726566E7
:100FF3003D25303464202000563D2530342E3366A1
:061003002020000D0A0090
:00000001FF
