:03000000020A549D
:0C0A5400787FE4F6D8FD758142020A9B11
:0C0B9A00010800010900010A01010B0123
:10080000D291120BDC7F901208D79290A291B090F7
:1008100092917F411208D79290A291B0909291123A
:100820000BDC7F911208D79290A291B0909291D256
:10083000001209968F09120BEF120BDC7F90120841
:10084000D79290A291B09092917F431208D7929044
:10085000A291B0909291120BDC7F911208D79290E6
:10086000A291B0909291D2001209968F08120BEFCC
:10087000E50A6508603D85080A120BDC7F901208C6
:10088000D79290A291B09092917F401208D7929007
:10089000A291B0909291AF081208D79290A291B015
:1008A000909291120BEFE508540FF50CE508C45433
:1008B0000FF50DE50B6509601085090BE509540F6F
:1008C000F50EE509C4540FF50F7B007A00790C7D15
:0708D00004120AE002080215
:100BC400E509540FF50EE509C4540FF50F7B007ABF
:080BD40000790C7D08020AE023
:100BA60011323F065B4F666D7D077F6F777C395E3E
:0D0BB600797100082A7FBFDFEFF7FBFDFE1D
:0B0C02007B007A007922AD21020AE09D
:080B2B008B148A1589168D1741
:100B3300E4FFFED3ED940874809480400375170896
:100B4300851721C3EF95177480F86E98501BAB146B
:100B5300AA15A9168F828E83120B6DFD74222FF8AE
:090B6300A6050FBF00010E80DAA7
:010B6C002266
:080AE0008B188A19891A8D1B7D
:100AE800E4FFFEC2A7C2A6C3EF951B7480F86E98F8
:100AF8005030E4F580D2A7C2A7742A2FF8E6F58013
:100B0800D2A6C2A6AB18AA19A91A8F828E83120B75
:100B18006D2432F8E6F580D2A7C2A70FBF00010EF8
:020B280080C586
:010B2A0022A8
:100BDC00D2A5D2A40000000000C2A50000000000B5
:030BEC00C2A4227E
:100BEF00C2A5D2A40000000000D2A50000000000A2
:030BFF00C2A4226B
:1008D700C2A4EFC41313135401139200A20092A5EC
:1008E700D2A40000000000C2A4EFC41313540313E2
:1008F7009200A20092A5D2A40000000000C2A4EFBB
:10090700C4135407139200A20092A5D2A4000000BA
:100917000000C2A4EFC4540F139200A20092A5D204
:10092700A40000000000C2A4EF131313541F139276
:1009370000A20092A5D2A40000000000C2A4EF13F9
:1009470013543F139200A20092A5D2A40000000006
:1009570000C2A4EFC313139200A20092A5D2A40071
:1009670000000000C2A4EF13920000A20092A5D2DB
:10097700A40000000000C2A40000000000D2A5D21D
:0E098700A40000000000A2A59200C2A4A200DD
:01099500223F
:10099600C2A4E4000000D2A40000000000A2A53317
:1009A600C2A425E0FF000000D2A40000000000A2BF
:1009B600A5E4334207C2A4EF25E0FF000000D2A45D
:1009C6000000000000A2A5E4334207C2A4EF25E020
:1009D600FF000000D2A40000000000A2A5E43342FC
:1009E60007C2A4EF25E0FF000000D2A4000000002B
:1009F60000A2A5E4334207C2A4EF25E0FF000000F1
:100A0600D2A40000000000A2A5E4334207C2A4EF6E
:100A160025E0FF000000D2A40000000000A2A5E42B
:100A2600334207C2A4EF25E0FF000000D2A4000075
:100A3600000000A2A5E4334207C2A40000000000A3
:0D0A4600A20092A5D2A40000000000C2A4EE
:010A53002280
:100A6000020800E493A3F8E493A34003F68001F2A4
:100A700008DFF48029E493A3F85407240CC8C33397
:100A8000C4540F4420C8834004F456800146F6DF66
:100A9000E4800B0102040810204080900B9AE47E51
:100AA000019360BCA3FF543F30E509541FFEE4935B
:100AB000A360010ECF54C025E060A840B8E493A322
:100AC000FAE493A3F8E493A3C8C582C8CAC583CA4D
:100AD000F0A3C8C582C8CAC583CADFE9DEE780BE05
:010BC3000031
:100B6D00BB010CE58229F582E5833AF583E022503D
:100B7D0006E92582F8E622BBFE06E92582F8E22287
:0D0B8D00E58229F582E5833AF583E49322A1
:00000001FF
