:03000000021DC717
:0C1DC700787FE4F6D8FD758157021E0EEF
:102C97000000009000A9740BF0A374BEF09000AA86
:0D2CA700E014F070F89000A9E014F070F057
:012CB40022FD
:0C2DA200AE071FEE6005122C9780F52292
:101D3900434845434B204D4F44554C452E2E2E00CC
:101D49004730312D53204F6E6C696E650047303135
:101D59002D53204F66666C696E6500536574204D7E
:101D69004F44455F525800536574204D4F44455FB9
:101D7900545800526563656976696E672E2E2E0088
:101D890052656365697665643A20257320202000D1
:101D9900643A200025732025730025732020202014
:101DA9000053656E64696E672025732020200053F7
:0E1DB900554343454553004661696C6564001F
:052DAE00C18A011F00B5
:10002600E49000A9F0A374F0F07B017A0079A97F2F
:100036000112146D9000AA7410F07B017A0079A960
:050046007F0402146DAF
:062DF000120026021B0088
:10238A00E49000ECF0A374FFF07B017A0079EC7F13
:10239A000612146D9000ED740FF07B017A0079EC4F
:1023AA007F0712146D9000ED7401F0FB7A0079EC4E
:1023BA007F0212146D9000ED7401F0FB7A0079EC43
:0523CA007F0402146D08
:102A6B00E49000EEF0A37420F07B017A0079EE7F06
:102A7B000512146D9000EF7402F07B017A0079EE71
:102A8B007F0412146D9000EF7470F07B017A007963
:062A9B00EE7F0702146D3E
:102C33009000E3741FF0E49000E6F0A304F0E49046
:102C430000E4F0A304F0FB7A0079E31221E67F01AC
:032C5300022DB996
:1018E200E4F522F523122DF0122AA1122DD77BFF47
:1018F2007A1D7939E4FDFF122499121FCC9200124D
:101902001FCC920030000F7BFF7A1D7949AD1FE496
:10191200FF122499800F7BFF7A1D7956AD1FE4FFD9
:1019220012249980FE051F121F5000000000007B48
:10193200FF300A0F7A1D7964AD1FE4FF1224997FEC
:1019420001800D7A1D7970AD1FE4FF122499E4FF26
:0A195200122C770000000000051FB2
:09195C00851F24200A03021A620F
:10196500752AFF752B1D752C7C7B017A00799512E4
:10197500105A7B017A007995AD24E4FF122499056C
:10198500247B017A007981122047900080EFF06076
:10199500C6E0FF7E007B017A00798B75340A121B45
:1019A500E2752AFF752B1D752C89752D01752E0085
:1019B500752F8B7B017A00799512105A7B017A007D
:1019C5007995AD24E4FF1224990524752AFF752B1A
:1019D5001D752C997B017A00799512105AE4F5252D
:0B19E500900080E0FFE525C39F504507
:1019F00074812525F582E43400F583E0F526FF7E29
:101A0000007B017A00798B75340A121BE2752AFF7C
:101A1000752B1D752C9D752D01752E00752F9575D7
:101A2000300175310075328B7B017A007995121087
:011A30005A5B
:101A3100052580B0752AFF752B1D752CA3752D0109
:101A4100752E00752F957B017A00799512105A7BBE
:0E1A5100017A007995AD24E4FF122499052452
:101A5F0002195CAF2390008AEFF07E007B017A00C1
:101A6F00798B752C0A122AD5752AFF752B1D752CAB
:101A7F00AA752D01752E00752F8B7B017A00799534
:101A8F0012105A7B017A007995AD24E4FF12249944
:101A9F0005247B017A00798A7D01121E53900089FB
:101AAF00EFF0BF200B752AFF752B1D752CB8800921
:101ABF00752AFF752B1D752CC07B017A0079951245
:101ACF00105A7B017A007995AD24E4FF1224990511
:101ADF00240523E52370020522D39464E522648054
:0E1AEF0094804005E4F522F5237FB8122DA265
:031AFD0002195C6F
:10004E000000000000000000002F0000000007006C
:10005E00070000147F147F1400242A7F2A120062E6
:10006E006408132300364955225000000503000092
:10007E0000001C224100000041221C000014083E1A
:10008E0008140008083E0808000000A060000008E0
:10009E000808080800006060000000201008040234
:1000AE00003E5149453E0000427F400000426151F2
:1000BE004946002141454B31001814127F1000278C
:1000CE0045454539003C4A4949300001710905034F
:1000DE0000364949493600064949291E0000363680
:1000EE0000000000563600000008142241000014E3
:1000FE0014141414000041221408000201510906C0
:10010E0000324959513E007C1211127C007F494940
:10011E004936003E41414122007F4141221C007F71
:10012E0049494941007F09090901003E4149497A7F
:10013E00007F0808087F0000417F410000204041F9
:10014E003F01007F08142241007F40404040007F65
:10015E00020C027F007F0408107F003E4141413EA9
:10016E00007F09090906003E4151215E007F0919F1
:10017E0029460046494949310001017F0101003FEE
:10018E004040403F001F2040201F003F4038403F6E
:10019E0000631408146300070870080700615149D2
:1001AE00454300007F41410000552A552A55000065
:1001BE0041417F00000402010204004040404040E3
:1001CE00000001020400002054545478007F48447B
:1001DE00443800384444442000384444487F0038B2
:1001EE005454541800087E0901020018A4A4A47CDB
:1001FE00007F080404780000447D400000408084A5
:10020E007D00007F102844000000417F4000007CEC
:10021E0004180478007C08040478003844444438F8
:10022E0000FC242424180018242418FC007C080444
:10023E00040800485454542000043F444020003C1D
:10024E004040207C001C2040201C003C4030403CA4
:10025E00004428102844001CA0A0A07C0044645434
:10026E004C44141414141414000000000000000078
:10027E000000000000000000000000F80000000078
:10028E00000000333000000000100C06100C0600B9
:10029E00000000000000000040C07840C078400020
:1002AE00043F04043F040400007088FC0830000082
:1002BE00001820FF211E0000F008F000E0180000DA
:1002CE0000211C031E211E0000F008887000000093
:1002DE001E2123241927211010160E0000000000E5
:1002EE000000000000000000000000E01804020002
:1002FE00000000071820400000020418E000000073
:10030E000040201807000000404080F08040400070
:10031E000202010F01020200000000F000000000C6
:10032E000101011F0101010000000000000000009A
:10033E0080B070000000000000000000000000000F
:10034E000001010101010101000000000000000098
:10035E000030300000000000000000008060180433
:10036E00006018060100000000E010080810E00010
:10037E00000F102020100F00001010F800000000D9
:10038E000020203F20200000007008080888700020
:10039E0000302824222130000030088888483000A0
:1003AE000018202020110E000000C02010F80000C0
:1003BE0000070424243F240000F808888808080059
:1003CE000019212020110E0000E01088881800006E
:1003DE00000F112020110E0000380808C838080040
:1003EE000000003F000000000070880808887000C0
:1003FE00001C222121221C0000E010080810E00041
:10040E000000312222110F00000000C0C0000000C9
:10041E0000000030300000000000008000000000EE
:10042E0000008060000000000000804020100800E6
:10043E0000010204081020004040404040404000AF
:10044E00040404040404040000081020408000008A
:10045E000020100804020100007048080808F0008F
:10046E000000003036010000C030C828E810E0005F
:10047E000718272423140B000000C038E0000000EA
:10048E00203C23020227382008F888888870000054
:10049E00203F202020110E00C03008080808380028
:1004AE00071820202010080008F808080810E0009F
:1004BE00203F202020100F0008F88888E808100040
:1004CE00203F20202320180008F88888E808100014
:1004DE00203F200003000000C0300808083800004C
:1004EE0007182020221E020008F808000008F8084D
:1004FE00203F210101213F20000808F808080000D4
:10050E000020203F2020000000000808F808080006
:10051E00C08080807F00000008F888C0281808007E
:10052E00203F20012638200008F8080000000000B7
:10053E00203F20202020300008F8F800F8F80800AE
:10054E00203F003F003F200008F830C00008F808A8
:10055E00203F200007183F00E01008080810E000B8
:10056E000F10202020100F0008F808080808F000CF
:10057E00203F210101010000E01008080810E000F2
:10058E000F18242438504F0008F888888888700087
:10059E00203F2000030C3020007088080808380027
:1005AE000038202121221C00180808F8080818001D
:1005BE000000203F2000000008F808000008F8089E
:1005CE00001F202020201F000878880000C838084F
:1005DE00000007380E010000F80800F80008F800C7
:1005EE00033C0700073C0300081868808068180861
:1005FE0020302C03032C30200838C800C8380800DF
:10060E000000203F2000000010080808C83808002D
:10061E002038262120201800000000FE02020200D1
:10062E000000007F40404000000C30C00000000081
:10063E00000000010638C00000020202FE000000A9
:10064E00004040407F00000000000402020204004F
:10065E00000000000000000000000000000000008C
:10066E008080808080808080000202040000000074
:10067E00000000000000000000008080808000006C
:10068E000019242222223F2008F80080800000005A
:10069E00003F112020110E0000000080808000001D
:1006AE00000E112020201100000000808088F8002C
:1006BE00000E112020103F2000008080808000005E
:1006CE00001F222222221300008080F088888818C2
:1006DE000020203F202000000000808080808000CD
:1006EE00006B94949493600008F800808080000062
:1006FE00203F210000203F2000809898000000003D
:10070E000020203F2020000000000080989800006C
:10071E0000C08080807F000008F80000808080008C
:10072E00203F24022D302000000808F800000000B1
:10073E000020203F2020000080808080808080006C
:10074E00203F20003F20003F8080008080800000FE
:10075E00203F210000203F2000008080808000008C
:10076E00001F202020201F008080008080000000BD
:10077E0080FFA12020110E000000008080808000EC
:10078E00000E112020A0FF808080800080808000DD
:10079E0020203F212000010000008080808080000A
:1007AE000033242424241900008080E0808000007F
:1007BE000000001F202000008080000000808000CC
:1007CE00001F202020103F2080808000008080802D
:1007DE0000010E30080601008080008000808080BD
:1007EE000F300C030C300F000080800080808000E2
:1007FE000020312E0E31200080808000008080800D
:10080E0080818E70180601000080808080808000BC
:10081E000021302C2221300000000000807C0202DA
:10082E0000000000003F404000000000FF000000FC
:10083E0000000000FF0000000002027C80000000AB
:10084E000040403F000000000006010102020404C7
:08085E00000000000000000092
:101B0000D2957F64122DA2C2957F64122DA2D29528
:101B1000E4FD7FAE1228EAE4FDFF1228EAE4FD7F2F
:101B2000101228EAE4FD7F401228EAE4FD7F8112CA
:101B300028EAE4FD7FCF1228EAE4FD7FA11228EA1B
:101B4000E4FD7FC81228EAE4FD7FA61228EAE4FD3E
:101B50007FA81228EAE4FD7F3F1228EAE4FD7FD344
:101B60001228EAE4FDFF1228EAE4FD7FD51228EAF4
:101B7000E4FD7F801228EAE4FD7FD91228EAE4FD23
:101B80007FF11228EAE4FD7FDA1228EAE4FD7F12F1
:101B90001228EAE4FD7FDB1228EAE4FD7F401228E8
:101BA000EAE4FD7F201228EAE4FD7F021228EAE43D
:101BB000FD7F8D1228EAE4FD7F141228EAE4FD7F00
:101BC000A41228EAE4FD7FA61228EAE4FD7FAF1202
:101BD00028EAE4FD7FAF1228EA122414E4FDFF0294
:021BE000000300
:0728E300F583E493FF7D0182
:1028EA00ED6004D2968002C296C297E49000ACF0E2
:1028FA00C294EF30E704D2C48002C2C4D294EF2556
:10290A00E0FF9000ACE004F0E0B408E4D297D2967D
:01291A00229A
:10000300AE07ED24B0FFE4FD1228EAEE54F0C45429
:100013000F4410FF1228EAEE540F4401FF0228EAAE
:10241400E49000A9F09000A9E0FFC394085033EFC2
:1024240024B0FFE4FD1228EAE4FF1228EA7F101228
:1024340028EAE49000AAF07D01E4FF1228EA900063
:10244400AAE004F0E0C3948040ED9000A9E004F019
:0224540080C343
:012456002263
:102D4F0053070FEFC3940A500574302FFF22EF245F
:032D5F0037FF2219
:041C9B00AC07AA05E3
:101C9F00EB24E09000F0F0C394004006EBD3947E69
:101CAF0040069000F0741FF0ECD3947F4004E4FCE6
:101CBF000A0AAF04AD02120003E49000F1F09000A5
:101CCF00F1E0FFC3940850259000F0E075F010A4E8
:101CDF002FF582E435F0F583E5822476F582E583EE
:101CEF0034021228E39000F1E004F080D1AF04EA4F
:101CFF0004FD120003E49000F1F09000F1E0FFC347
:101D0F00940850259000F0E075F010A42FF582E4B0
:101D1F0035F0F583E582247EF582E58334021228BF
:091D2F00E39000F1E004F080D122
:011D38002288
:0A2344008F498D4A8B4B8A4C894D5E
:10234E00E49000F2F0AB4BAA4CA94D9000F2E0F5F0
:10235E0082758300120EFEFB6021AD4AAF49121C3E
:10236E009B74082549F549D394784007E4F549054F
:0B237E004A054A9000F2E004F080CA1B
:012389002231
:0A229A00FF122D4FAB07AF04AD4457
:0222A400AE0783
:1022A600EB24E09000AAF0EED3947F4003E4FE0D09
:1022B600AF06120003E49000ABF09000ABE0FFC362
:1022C600940650259000AAE075F006A4244EF582E7
:1022D600E5F03400F583E5822FF582E43583122894
:0922E600E39000ABE004F080D1AC
:0122EF0022CC
:0A2499008D278B288A29892AAC07B9
:1024A300E49000A9F0AB28AA29A92A9000A9E0F595
:1024B30082758300120EFEFB601CAF04AD2712224F
:1024C300A474062CFCD394784004E4FC0527900004
:0624D300A9E004F080CF37
:0124D90022E0
:0A22F0008D448B458A468947AC07F0
:1022FA00E49000F3F09000F3E0FFC39548503A0CE5
:10230A00AB45AA46A9478F82758300120EFEC454B4
:10231A000F12229A74062CFCAB45AA46A9479000D4
:10232A00F3E0F582758300120EFE12229A74092CCC
:09233A00FC9000F3E004F080BC0B
:012343002277
:10146D00EFD3940740037FFF22120EE5FED39403C2
:10147D0040037FFF22EF7041EE700B900001120EC2
:10148D00FEF452935294120EE5B4010B900001122A
:10149D000EFE4293F45294120EE5FEB4020A900031
:1014AD0001120EFE42934294EEB4030D9000011210
:1014BD000EFEFEF45293EE4294EF64017043120E51
:1014CD00E5FE700B900001120EFEF452915292EE59
:1014DD00B4010B900001120EFE4291F45292120EC5
:1014ED00E5B4020A900001120EFE42914292120ED4
:1014FD00E5B4030D900001120EFEFEF45291EE4282
:10150D0092EF64027043120EE5FE700B9000011213
:10151D000EFEF452955296EEB4010B900001120E90
:10152D00FE4295F45296120EE5B4020A9000011295
:10153D000EFE42954296120EE5B4030D9000011277
:10154D000EFEFEF45295EE4296EF64037043120EBA
:10155D00E5FE700B900001120EFEF452B152B2EE88
:10156D00B4010B900001120EFE42B1F452B2120EF4
:10157D00E5B4020A900001120EFE42B142B2120E03
:10158D00E5B4030D900001120EFEFEF452B1EE42D1
:10159D00B2EF64047043120EE5FE700B9000011261
:1015AD000EFEF452B352B4EEB4010B900001120EC4
:1015BD00FE42B3F452B4120EE5B4020A90000112C9
:1015CD000EFE42B342B4120EE5B4030D90000112AB
:1015DD000EFEFEF452B3EE42B4EF64057043120EEC
:1015ED00E5FE700B900001120EFEF452C952CAEEC8
:1015FD00B4010B900001120EFE42C9F452CA120E34
:10160D00E5B4020A900001120EFE42C942CA120E42
:10161D00E5B4030D900001120EFEFEF452C9EE4228
:10162D00CAEF64067043120EE5FE700B90000112B6
:10163D000EFEF452CB52CCEEB4010B900001120E03
:10164D00FE42CBF452CC120EE5B4020A9000011208
:10165D000EFE42CB42CC120EE5B4030D90000112EA
:10166D000EFEFEF452CBEE42CCEF64077043120E29
:10167D00E5FF700B900001120EFEF452E152E2EF05
:10168D00B4010B900001120EFE42E1F452E2120E73
:10169D00E5B4020A900001120EFE42E142E2120E82
:1016AD00E5B4030D900001120EFEFFF452E1EF427E
:0416BD00E27F0022A6
:10291B00EFD394015009EF7004C2A98002D2A9ED44
:10292B00D394035020ED700553B7FDC2B9BD01051B
:10293B0053B7FDD2B9BD020543B702C2B9BD0305FA
:08294B0043B702D2B97F00225C
:10295300EFD394015009EF7004C2AB8002D2ABED08
:10296300D394035020ED700553B7F7C2BBBD0105E7
:1029730053B7F7D2BBBD020543B708C2BBBD0305BE
:0829830043B708D2BB7F00221C
:102CE300EFD39401500DEF25E025E0FFE5AF54FB52
:062CF3004FF5AFE4FF22E3
:102CF900EFD39401500DEFC43354E0FFE5AF54DF37
:062D09004FF5AFE4FF22CC
:102CB500EFD39401500EEFC4333354C0FFE5AF5446
:072CC500BF4FF5AFE4FF2251
:10298B00EFD394015009EF7004C2A88002D2A8EDD6
:10299B00D394035020ED700553B7FEC2B8BD0105AB
:1029AB0053B7FED2B8BD020543B701C2B8BD03058C
:0829BB0043B701D2B87F0022EE
:1029C300EFD394015009EF7004C2AA8002D2AAED9A
:1029D300D394035020ED700553B7FBC2BABD010574
:1029E30053B7FBD2BABD020543B704C2BABD030550
:0829F30043B704D2BA7F0022B1
:102D2500EFD39401500CEFC454F0FFE58F54EF4FEF
:052D3500F58FE4FF2210
:102D0F00EFD39401500DEFC43354E0FFE58F54DF40
:062D1F004FF58FE4FF22D6
:102CCC00EFD39401500EEFC4333354C0FFE58F544F
:072CDC00BF4FF58FE4FF225A
:1029FB00EFD394015009EF7004C2AD8002D2ADED5C
:102A0B00D394035020ED700553B7DFC2BDBD010554
:102A1B0053B7DFD2BDBD020543B720C2BDBD030511
:082A2B0043B720D2BD7F002259
:1023CF00EF30E10543E620800353E6DFEF30E00511
:1023DF0043E610800353E6EFEDD394035024ED70E2
:1023EF000653B6DF53B5DFBD010653B6DF43B52045
:1023FF00BD020643B62053B5DFBD030643B62043E7
:05240F00B5207F002252
:10224100EFD3940140037FFF2243BA80BF0112ED17
:1022510090FE817006E0547FF08011E04480F080B0
:102261000BEF700890FE83E054874DF0EBD394039D
:102271005024EB700653B6DF53B5DFBB010653B6EE
:10228100DF43B520BB020643B62053B5DFBB0306CF
:0922910043B62043B5207F002272
:102A3300EFD394015009EF7004C2AC8002D2ACED25
:102A4300D394035020ED700553B7EFC2BCBD01050D
:102A530053B7EFD2BCBD020543B710C2BCBD0305DB
:082A630043B710D2BC7F002232
:1028A900EFD394015007E5AF54FE4FF5AFEDD39444
:1028B900035024ED700653B6FE53B5FEBD01065311
:1028C900B6FE43B501BD020643B60153B5FEBD03CD
:0A28D9000643B60143B5017F00225B
:1024DA00EFD39401500EEF33333354F8FFE5AF5482
:1024EA00F74FF5AFEDD394035024ED700653EEFE8B
:1024FA0053DFFEBD010653EEFE43DF01BD02064374
:10250A00EE0153DFFEBD030643EE0143DF017F0008
:01251A00229E
:10255C00EFD39401500CEFC454F0FFE5AF54EF4FA0
:10256C00F5AFEDD394035024ED700653EEFD53DF1D
:10257C00FDBD010653EEFD43DF02BD020643EE0234
:0F258C0053DFFDBD030643EE0243DF027F002253
:10259B00EFD39401500BEF25E0FFE5AF54FD4FF562
:1025AB00AFEDD394035024ED700653B6FD53B5FD38
:1025BB00BD010653B6FD43B502BD020643B6025339
:0E25CB00B5FDBD030643B60243B5027F0022F4
:10218800EBD394035020EB700553B77FC2BFBB015C
:102198000553B77FD2BFBB020543B780C2BFBB039D
:1021A8000543B780D2BFEF14601114601214601396
:1021B80014601D240470248DDA80208DDB801C8D32
:1021C800DC801843BA8090FD54EDF053BA7F800B41
:0E21D800ED5401FFE5D954FE4FF5D97F0022EA
:1025D90043BA8090FA10E054F0F0EDD39403500B15
:1025E900E0FEED25E025E0FDEE4DF0EBD394035040
:1025F9000690FA10E04BF090FA10E0BF0105448014
:0C260900F08003547FF053BA7F7F002262
:1026150043BA8090FA00E054F0F0EDD39403500BE8
:10262500E0FEED25E025E0FDEE4DF0EBD394035003
:102635000690FA00E04BF090FA00E0BF01054480F7
:0C264500F08003547FF053BA7F7F002226
:1026510043BA8090FA20E054F0F0EDD39403500B8C
:10266100E0FEED25E025E0FDEE4DF0EBD3940350C7
:102671000690FA20E04BF090FA20E0BF010544807B
:0C268100F08003547FF053BA7F7F0022EA
:10268D0043BA8090FA30E054F0F0EDD39403500B40
:10269D00E0FEED25E025E0FDEE4DF0EBD39403508B
:1026AD000690FA30E04BF090FA30E0BF010544801F
:0C26BD00F08003547FF053BA7F7F0022AE
:1026C90043BA8090FA38E054F0F0EDD39403500BFC
:1026D900E0FEED25E025E0FDEE4DF0EBD39403504F
:1026E9000690FA38E04BF090FA38E0BF01054480D3
:0C26F900F08003547FF053BA7F7F002272
:1027050043BA8090FA40E054F0F0EDD39403500BB7
:10271500E0FEED25E025E0FDEE4DF0EBD394035012
:102725000690FA40E04BF090FA40E0BF0105448086
:0C273500F08003547FF053BA7F7F002235
:1027410043BA8090FA48E054F0F0EDD39403500B73
:10275100E0FEED25E025E0FDEE4DF0EBD3940350D6
:102761000690FA48E04BF090FA48E0BF010544803A
:0C277100F08003547FF053BA7F7F0022F9
:10277D0043BA8090FA50E054F0F0EDD39403500B2F
:10278D00E0FEED25E025E0FDEE4DF0EBD39403509A
:10279D000690FA50E04BF090FA50E0BF01054480EE
:0C27AD00F08003547FF053BA7F7F0022BD
:1027B90043BA8090FA58E054F0F0EDD39403500BEB
:1027C900E0FEED25E025E0FDEE4DF0EBD39403505E
:1027D9000690FA58E04BF090FA58E0BF01054480A2
:0C27E900F08003547FF053BA7F7F002281
:1027F50043BA8090FA60E054F0F0EDD39403500BA7
:10280500E0FEED25E025E0FDEE4DF0EBD394035021
:102815000690FA60E04BF090FA60E0BF0105448055
:0C282500F08003547FF053BA7F7F002244
:1028310043BA8090FA68E054F0F0EDD39403500B62
:10284100E0FEED25E025E0FDEE4DF0EBD3940350E5
:102851000690FA68E04BF090FA68E0BF0105448009
:0C286100F08003547FF053BA7F7F002208
:10286D0043BA8090FA70E054F0F0EDD39403500B1E
:10287D00E0FEED25E025E0FDEE4DF0EBD3940350A9
:10288D000690FA70E04BF090FA70E0BF01054480BD
:0C289D00F08003547FF053BA7F7F0022CC
:102B6C0043BA8090FE50E054CFF0EDD39403500A5A
:102B7C00E0FEEDC454F0FDEE4DF090FE50E0BF01D0
:0F2B8C00054480F08003547FF053BA7F7F00220E
:101ED300900001120EFEB4010553CE7F800343CE62
:101EE30080120EE5C4333354C0FFE5CE54BF4FF523
:101EF300CE900002120EFEC43354E0FFE5CE54DF51
:101F03004FF5CE900003120EFEC454F0FFE5CE54FD
:101F1300EF4FF5CE900004120EFE33333354F8FF27
:101F2300E5CE54F74FF5CE900005120EFE25E025C1
:101F3300E0FFE5CE54FB4FF5CE900006120EFEFFF8
:0D1F4300E5CE54FC4FF5CEE4F556C20B225E
:102D7500EF700753CEEF53CE7F2243CE1043CE8064
:012D8500222B
:082DE0008FCFD20B200BFD2266
:03004B0002245735
:10245700C0E0C083C082C0D075D000C007E5CE30D1
:10246700E404C20B801EE557C394804003755700F0
:10247700AF57055774002FF582E43400F583E5CF95
:10248700F075560575CDC0D007D0D0D082D083D097
:02249700E03231
:052DB3000351000000C7
:102B9B0053877F759850538EBF538EFE53890F43C7
:102BAB008920758BF3758DF3C2ABD28ED2AFD2ACBD
:072BBB008B518A528953225D
:082DE800200CFD8F99D20C2292
:102BE9008B4E8A4F8950AB4EAA4FA950120EE56001
:102BF900130550E5507002054F14F9120EE5FF1246
:052C09002DE880E2222D
:030023000220B602
:1020B600C0E0C0F0C083C082C0D075D000C000C0F0
:1020C60001C002C003C004C005C006C0073098297D
:1020D600C2988599A085A099D20C9000BBE5A0F086
:1020E600E5524553455160117B017A0079BB855312
:1020F600828552837D01120FFC309904C299C20C6D
:10210600D007D006D005D004D003D002D001D0002D
:0B211600D0D0D082D083D0F0D0E032D7
:1021E600900001120EFEFFE5DE54F04FF5DE900082
:1021F60002120EFEC43354E0FFE5DE54DF4FF5DE77
:10220600120EE5FFD3941F5031900003120EFEFE0E
:10221600D394015025900004120EFEFDD394035072
:102226001943BA80EDC43354E0FDEEC4333333545E
:0B223600804D4F90FEA8F053BA7F22AD
:0B2DB900BF010443BC802253BC7F22FA
:10212100EFD3940F4002805AE4F5BDF5BEE5BC54EF
:10213100F044404FF5BC00000000E4FDE5BC30E593
:102141003D53BCDFE5DEAFBD30E50EEFFEACBEECCE
:10215100FBEEF554EBF55580207554008F55E5BE27
:10216100C4540FFBE555C4F8540FC868FFE554C4C7
:1021710054F048F554EF4BF555AE54AF55220DBD13
:06218100FABA7E107F0097
:012187002235
:102AD500E4F52DF52EC3EE64809480501BC3E49F6E
:102AE500FFE49EFE742D120F2B740129F9E43AFAC6
:102AF500152C752D00752E01852C34121BE2EF2542
:022B05002EFFA1
:012B070022AB
:0A1BE2008E2F8F308B318A32893349
:101BEC00E530452F70157430120F2BAB31AA32A98A
:101BFC0033900001E4120F3D7F0122E534D39407AA
:101C0C004003753407E534149000A9F0E4F535E58C
:051C1C0030452F603A85
:101C2100AE2FAF307C007D0A120F5F8D36E5362472
:101C310030FFE433FEE53525E024AAF582E43400E3
:101C4100F583EEF0A3EFF0AE2FAF307C007D0A12EA
:061C51000F5F8E2F8F30A3
:101C5700053580C0E4FF9000A9E0FEEFC39E502445
:101C6700E535602025E024A8F582E43400F583A358
:101C7700E0AB31AA32A9338F82758300120F3D0F73
:101C8700153580D2AB31AA32A9338F82758300E430
:031C9700120F3DEC
:011C9A002227
:092DCE00851E0F7510040216C1E8
:0E16C1008F0B8E0A8D098C088B0C8A0D890EFA
:1016CF00E49000EAF0E510D394064003751006E4A9
:1016DF00FFFEFDFCAB0BAA0AA909A808120A645069
:1016EF002FAB0CAA0DA90E742D120F2B7401250E02
:1016FF00F50EE4350DF50D9000EA7401F0AF0BAE69
:10170F000AAD09AC08120ADD8F0B8E0A8D098C0801
:10171F00AF0BAE0AAD09AC08120B2C9000E8EEF03F
:10172F00A3EFF0AF0BAE0AAD09AC08C004C005C003
:10173F0006C0079000E8E0FCA3E0FDE4120AF3A85E
:10174F0004A905AA06AB07D007D006D005D004120E
:10175F0008698F0B8E0A8D098C089000E8E0FEA3B4
:10176F00E0FFAB0CAA0DA90E850F34121BE29000FF
:10177F00EBEFF09000EAE02FF0EF3395E0FEEF256E
:10178F000EF50EEE350DF50DAB0CFAA90E742E12EB
:10179F000F2B7401250EF50EE4350DF50D9000EAB3
:1017AF00E004F0E0FFC3E50F9F14F50FD394005052
:1017BF000122E510700CAB0CAA0DA90E120F2B0213
:0217CF0018DC24
:1017D100D20DE49000EBF09000EBE0FD3395E0FCDE
:1017E100C3ED950F7480F86C98506EC3ED9510742D
:1017F100806C985064AF0BAE0AAD09AC08E4FBFAFB
:101801007920784112095E8F0B8E0A8D098C08129E
:101811000B2C9000EBE02411F8A607AF0BAE0AAD3C
:1018210009AC08C004C005C006C007E02411F8E6F1
:10183100FCE4120AF8A804A905AA06AB07D007D050
:1018410006D005D0041208698F0B8E0A8D098C0809
:101851009000EBE004F00217D89000EBE0FF90005D
:10186100EAE02FF0AB0CAA0DA90EEF3395E08F82C1
:10187100F583E4120F3D805B9000EBE0FFC36480D1
:1018810094804057EF7006300D03E0802C300D221C
:101891009000EBE0FF2411F8E670179000EAE014E5
:1018A100F0AB0CAA0DA90EEF3395E08F82F583E41E
:1018B100801EC20D9000EBE0FF2411F8E62430FEFB
:1018C100AB0CAA0DA90EEFFD3395E08D82F583EEE9
:0B18D100120F3D9000EBE014F0809D32
:0518DC009000EAE0FFAE
:0118E10022E4
:0F2D8600A5A5A5A5A5000000000034431010016D
:102AA100E49000A9F0A3743CF07B017A0079A97F3E
:102AB1000212146D9000AA7402F07B017A0079A9C8
:102AC100FF12146D9000AA7404F07B017A0079A9B9
:042AD100FF02146D7F
:092DD700D2A5C2A5D2C2D2A422E9
:101FCC00C20175270578287C007D007BFF7A2D796E
:101FDC00867E007F05120EBF782D7C007D007BFF76
:101FEC007A2D798B7E007F05120EBFAF271527EF58
:021FFC0060463D
:101FFE007B007A007928753C057F10122B087B0038
:10200E007A00792D7537057F10122B3BE4F532746B
:10201E002D2532F8E6FF74282532F8E6B5070705B8
:10202E0032E532B405E9E532B40504D20180077F0A
:04203E00F4122DA2C9
:0420420080B3A201C4
:012046002277
:062B08008B398A3A893B7B
:102B0E00C2A4EF4420FF12251BE4F53DE53DC3951D
:102B1E003C5017AB39AA3AA93B853D82758300120A
:0C2B2E000EFEFF12251B053D80E2D2A424
:012B3A002278
:062B3B008B348A35893657
:102B4100C2A412251BE4F538E538C3953750197F27
:102B5100FF12251BAB34AA35A9368538827583004F
:0A2B6100EF120F3D053880E0D2A40A
:012B6B002247
:101F5000782E7C007D007BFF7A2D79907E007F05B6
:101F6000120EBFD2A57F70122C567D017F1C122D40
:101F7000627D077F1D122D627F1C122D957F1D1221
:101F80002D957D0AE4FF122D627D017F01122D62E5
:101F90007D017F02122D627D037F03122D627DFF82
:101FA0007F04122D627D3C7F05122D627D267F0607
:101FB000122D627B007A00792E7D05122D3A7B006E
:0C1FC0007A00792E753705E4FF022C0E24
:022C56008F33BA
:102C5800E4F534533370122DC48F34C2A47F271285
:0F2C6800251BE5334534FF12251BD2A4022DC4D2
:092DC400C2A47F0712251BD2A452
:012DCD0022E3
:102D62008D33C2A4EF4420FF12251BAF3312251B63
:032D7200D2A422C6
:0C2D9500C2A412251B7FFF12251BD2A434
:012DA100220F
:102D3A00EDD3940540047F058002AF05AD078D3CB5
:052D4A007F10022B08C0
:102C0E00E537D3940540047E058002AE378E37EF4C
:102C1E00D3940540047E058002AE07EE240AFF859C
:052C2E00373C022B08F9
:022C77008F2E9E
:102C7900E4FDFF122D95AD07E52E70055305FE8085
:0E2C890008E52EB40103430501E4FF022D62AD
:081E53008B278A2889298D2ABA
:101E5B00E4F52BF52CF52DC2A47FE112251BD2A4A2
:101E6B00C2A5AB27AA28A929852A3C7FA0122B083B
:101E7B00D2A520C2047F0080027F01EF60227F0188
:101E8B00122DA2052DE52DAE2C7002052C14FFBED4
:101E9B0001E0BFF4DD122DD7121F50E4FF122C7797
:101EAB007F07122D958F2BAD2B7F07122D62E52B04
:101EBB0030E40A7DFF7FE1122D627F1022E52B308B
:071ECB00E5037F20227FFFE9
:011ED20022ED
:062047008B278A2889297D
:10204D00E4F52AF52BF52CC2A47FE212251BD2A4B0
:10205D0020C2047F0080027F01EF60187F64122D83
:10206D00A2AF2C052CEFB41EE7122DD7121F507FF7
:10207D0001122C777F07122D958F2AAD2A7F07121B
:10208D002D62E52A30E61F7F60122D958F2BAB2731
:10209D00AA28A929852B377F61122B3B7DFF7FE273
:0820AD00122D62AF2B227F000F
:0120B5002208
:02251B00AD070A
:10251D00E49000A9F0A3F0C2A39000A9F0ED30E77C
:10252D0004D2A28002C2A2ED25E0FDD2A30090004C
:10253D00AAE025E0F030A104E04401F0C2A3009030
:0E254D0000A9E004F0E0B408D49000AAE0FF7A
:01255B00225D
:10086600020B98E86480F8E933E83360110460F01D
:10087600ED33EC337009E8FCE9FDEAFEEBFF2204F8
:1008860060DED3EB9FEA9EE99DE8C2E78CF0C2F7F3
:1008960095F0400CE8CCF8E9CDF9EACEFAEBCFFBBF
:1008A600120B6385D0F05804700320D5B3E80470AA
:1008B600075002B2D5020BA292D5EC0460F7E4CC45
:1008C600C0E0C398F8603B94186008400DD0E0FB88
:1008D600020B7AE4FBFAC9FC8028E830E406E4C996
:1008E600FBE4CAFCE830E305E4C9CACBFCE85407DC
:1008F6006010F8C3E913F9EA13FAEB13FBEC13FCE7
:10090600D8F130F52FC3E49CFCEF9BFFEE9AFEED89
:1009160099FDD0E0FBEF4E4D4C701222DB03020B2B
:100926009FEC2CFCEF33FFEE33FEED33FDED30E7AD
:10093600EB020B7AEF2BFFEE3AFEED39FDD0E0FB32
:1009460050130BBB0003020BA2ED13FDEE13FEEFDB
:0809560013FFEC13FC020B7A05
:10095E00EC4D6011E8497017ED33EC3304600DE493
:10096E00FCFFFEFD22E933E8330470F8020B981207
:10097E000B6358046009E4CC248150062850090208
:10098E000BA2284003020B9FC0E0EB4A7044B980D3
:10099E0006D0E0FB020B8EEF4E701CBD8008EBFF05
:1009AE00EAFEE9FD80EBE98DF0A4FEE5F0020A47D0
:1009BE00E9CDF9EAFEEBFFEF89F0A4FCE5F0CE8974
:1009CE00F0A42EFFE435F0CD89F0A42DFEE435F031
:1009DE008067EF4E7005BD80D780C3EF8BF0A4AC5F
:1009EE00F0EE8BF0A42CFCE435F0F8EF8AF0A42C9A
:1009FE00E5F038FCE433CB8DF0A42CFCE5F03BF8AD
:100A0E00EE8AF0A42CFCE5F038F8E433CF89F0A49C
:100A1E002CFCE5F038CF3400CE89F0A42FFFE5F0A2
:100A2E003EFEE433C98DF0A42EFEE5F039CD8AF0FA
:100A3E00A42FFFE5F03EFEE43DFD33D0E0FB500772
:100A4E000BBB000F020BA2EC2CFCEF33FFEE33FEC0
:060A5E00ED33FD020B7AEE
:100A640074F8CC6480CCC86480C8F58204604FC339
:100A7400EB9FF5F0EA9E42F0E99D42F0E89C45F0D8
:100A8400603C501DE5825FFFE582D313CB5BCBF462
:100A94002B5582FB50280ABA002409B9002008808B
:100AA4001DE5825BFBE582D313CF5FCFF4C3132F25
:100AB4005582FF50090EBE00050DBD00010CC3EBAD
:100AC4009FF5F0EA9E42F0E99D42F0E89C45F06013
:090AD40007CC4820E701B3EC2235
:100ADD00ED33EC33600A047003BD8004ECB2E7FC27
:010AED0022E6
:100AEE0075F020800E75F010800575F0087D007E83
:100AFE00007F003392D530D503120FB4EC33401083
:100B0E00EF33FFEE33FEED33FDEC33FCD5F0ED228B
:0E0B1E00E5F0247EA2D513CC92E7CDCEFF22C7
:100B2C00EDD2E7CD33EC3392D524814006E4FFFEC1
:100B3C00FDFC22FCE4CFCECDCC24E0501174FF8020
:100B4C00EDC3CC13CCCD13CDCE13CECF13CF0470BD
:070B5C00F030D5DE020FB4FA
:100FFE00E53E242AF8E6053E227827300802782AB4
:10100E00E475F001120FC2020EE52001EB7F2ED225
:10101E00018018EF540F2490D43440D4FF30050BC8
:10102E00EF24BFB41A0050032461FFE53F600215A0
:10103E003F0542E5427002054130080D7827E47500
:10104E00F001120FC2EF020F2B022BC27403D20853
:10105E008003E4C208F53E8B278A288929E4F53FF0
:10106E00F541F542E53F60077F2012103980F57596
:10107E0040FFC202C201C203C204C206C207C209B5
:10108E00121007FF700D3008057F0012104AAF4294
:10109E00AE4122B4255FC2D5C205121007FF24D07F
:1010AE00B40A00501A75F00A783F30D50508B6FF1D
:1010BE000106C6A426F620D5047002D20480D924D7
:1010CE00CFB41A00EF5004C2E5D205021337D20294
:1010DE0080C6D20180C0D20380BCD2D580BAD206DF
:1010EE0080B47F201210392003077401B53F0040F1
:1010FE00F1120FFEFF121039021072D209D20780C0
:10110E0095120FFEFB120FFEFA120FFEF94A4B70EC
:10111E0006792E7A147BFF20032EE53F602A7E008F
:10112E008E82758300120EFE60060EEE654070F024
:10113E00C2D5EBC0E0EAC0E0E9C0E0EE121397D0F2
:10114E00E0F9D0E0FAD0E0FB120EE5FF60AAEBC0AA
:10115E00E0EAC0E0E9C0E0121039D0E02401F9D095
:10116E00E03400FAD0E0FBE5400460DCD540D980E5
:10117E0087D20380A212137A60F7E5407001041241
:10118E000BADA940600DE540600914F54012142125
:10119E00EF60F3EA30E702F404C3995077EAF425DE
:1011AE00400430E701E404F540800D12137A60C16B
:1011BE00EA05402540120BADEA783DF630E701E432
:1011CE00254004D5400420060114121397E4C0E014
:1011DE00121421783DE6601320E70714F612102151
:1011EE00802204F6D0E014C0E07F00121021E5400A
:1011FE0060071210181540800B300603121018D01D
:10120E00E0021072D0E00480C512137A60A0E540AF
:10121E0004120BAD783DEAF6E540200602600104AB
:05122E002404121397D7
:1012330074FF04C0E0121421121021E540200602BD
:101243006003121018D0E0B540E87F4512102B78E8
:101253003DE67F2B30E7047F2DF404C0E012103904
:10126300D0E075F00A84C0F0121022D0E0121022F0
:10127300021072791080027908C207C2098008D26D
:10128300D5790A8004790AC2D5E540047002F54095
:10129300E4FAFDFEFF120FFEFC7B08200213120F7F
:1012A300FEFD7B1030010A120FFEFE120FFEFF7BC4
:1012B30020EC3382D592D55013C3E43001069FFF4F
:1012C300E49EFEE42002039DFDE49CFCE4CBF8C213
:1012D30002EC700CCFCECDCCE824F8F870F3801775
:1012E300C3EF33FFEE33FEED33FDEC33FCEB33FBA7
:1012F300994002FB0FD8E9EB300205F8D0E0C4486F
:10130300B202C0E00AEC4D4E4F78207B0070C2EA77
:10131300B5400040BCC0E0121399D0F0D0E02002E9
:1013230004C4C0E0C4B202C0F0121022D0F0D5F061
:10133300EB021072120FD2110F5312765810E04CB9
:1013430010DC42127A4F12824412824910F5431282
:10135300885511B946121745118347144E5010E4AE
:101363002D10E82E110B2B10EC2311092014372A12
:1013730010A44800001103E540B4FF0375400612B2
:101383000FFEFC120FFEFD120FFEFE120FFEFF7882
:1013930036020BDC790AA2D5200414300609B910F1
:1013A300020404B9080104A2D52007025001042055
:1013B30003689203B53F005034C0E07F2030041926
:1013C3007F30A20372077206500F1213F0C203C2DA
:1013D30007C206C2097F30800F300603E9C0E0125E
:1013E3001039300603D0E0F9D0E0B53FCC30061712
:1013F3007F30B9100C1210397F583005077F788081
:1014030003B908031210393003057F2D0210397F09
:10141300202009F87F2B2007F322920380CF7F003F
:10142300B4070050052436F8E6FF22286E756C6C6D
:101433002900D202120FFE3002F8C202783F30D5E3
:101443000108F60210A42D50434958120FFE24033D
:10145300B405004001E49014499312102A743A121F
:0A146300102AD204753F040212762D
:100B6300E9D2E7C933E833F892D5EDD2E7CD33ECD8
:070B730033FC5002B2D52251
:100B7A00EC30E7100FBF000C0EBE00080DBD0004DC
:100B8A000BEB6014A2D5EB13FCED92E7FD2274FF88
:100B9A00FCFDFEFF22E480F8A2D574FF13FC7D80E1
:030BAA00E480EFF5
:100BAD00F920E72824F950037907E4F42402FB180F
:100BBD00DBFDE624FB5014E9600DE4F618E604F6BF
:0F0BCD00B40A08E4F6D9F57401F60A22C2D5225B
:100BDC00ED33EC3392D5FA602AB4FF33EDC2E77BE8
:100BEC00FF60067A0C7901E4227A0C790A20D5048C
:100BFC007A0C7905224E614E002B494E46002D4948
:100C0C004E4600E47A08F608DAFC7B00740722E80A
:100C1C00C0E0ECC0E0EDC0E0EEC0E0EFC0E0EA7593
:100C2C00F010A4CAABF075F04DA42BFBE435F0FC2E
:100C3C00EA2410FAEB34C5FBEC34D9FCEDC2E7FF27
:100C4C0075F056A4F42411C5F0F434C58FF0A42A21
:100C5C00E5F03BE43CF620E714120DAFD0E0FFD0FA
:100C6C00E0FED0E0FDD0E0FC120CE28014F40412A3
:100C7C000DAFD0E0FFD0E0FED0E0FDD0E0FC1209DB
:100C8C005ED0E0F8E6FAEDD2E7CD33EC332482FB0C
:100C9C00E4C3CF33CFCE33CECD33CD33DBF37B07B1
:100CAC0075F00A846004F6081B0AE5F0F6088FF06C
:100CBC00740AA4FFACF08EF0740AA42CFEACF050B5
:100CCC00010C8DF0740AA42CFDE435F0F608DBDE83
:030CDC0074072278
:100CDF00020BA2EC5D046005E859047003020B9847
:100CEF00120B63580460F6EC4860F2EC7004FDFEE2
:100CFF00FF22C860DB2481C85009C39860025006E8
:100D0F00020B9F9850CAF582E9294B4A7005AB82B6
:100D1F00020B8E75F0007C1A7880C3EF9BEE9AED74
:100D2F0099400DC3EF9BFFEE9AFEED99FDE842F05F
:100D3F00DC23ACF0D0E0FFD0E0FED0E0FDAB8220B2
:100D4F00E7101BEB60BAEC2CFCEF33FFEE33FEED3C
:100D5F0033FD020B7AE803F830E705C0F075F000B9
:100D6F00EF2FFFEE33FEED33FD40B830E7C280AA20
:100D7F003F8000004120000042C80000447A00007C
:100D8F00461C400047C35000497424004B189680FE
:100D9F004CBEBC205A0E1BCA6753C21C749DC5AEF5
:100DAF00FB60065407601C2323120DDDEB543860E3
:100DBF0009120DC9120DD812095EECF8EDF9EEFA11
:100DCF00EFCB22EB120DD880F1543803241C900D79
:100DDF007FFE93FC0EEE93FD0EEE930ECE93FF224D
:101DD3000218E2E493A3F8E493A34003F68001F22C
:101DE30008DFF48029E493A3F85407240CC8C33311
:101DF300C4540F4420C8834004F456800146F6DFE0
:101E0300E4800B0102040810204080902DAEE47E94
:101E1300019360BCA3FF543F30E509541FFEE493D4
:101E2300A360010ECF54C025E060A840B8E493A39B
:101E3300FAE493A3F8E493A3C8C582C8CAC583CAC6
:101E4300F0A3C8C582C8CAC583CADFE9DEE780BE7E
:012DB800001A
:100DEF00E709F608DFFA8046E709F208DFFA803EE6
:100DFF0088828C83E709F0A3DFFA8032E309F608D3
:100E0F00DFFA8078E309F208DFFA807088828C833A
:100E1F00E309F0A3DFFA806489828A83E0A3F608EE
:100E2F00DFFA805889828A83E0A3F208DFFA804CC8
:100E3F0080D280FA80C680D4806980F2803380109F
:100E4F0080A680EA809A80A880DA80E280CA803308
:100E5F0089828A83ECFAE493A3C8C582C8CCC58380
:100E6F00CCF0A3C8C582C8CCC583CCDFE9DEE78050
:100E7F000D89828A83E493A3F608DFF9ECFAA9F0CF
:100E8F00EDFB2289828A83ECFAE0A3C8C582C8CC25
:100E9F00C583CCF0A3C8C582C8CCC583CCDFEADE3E
:100EAF00E880DB89828A83E493A3F208DFF980CCA0
:100EBF0088F0EF60010E4E60C388F0ED2402B40499
:100ECF000050B9F582EB2402B4040050AF23234540
:060EDF008223900E3F7318
:100EE500BB010689828A83E0225002E722BBFE020B
:090EF500E32289828A83E493223E
:100EFE00BB010CE58229F582E5833AF583E02250A9
:100F0E0006E92582F8E622BBFE06E92582F8E222F2
:0D0F1E00E58229F582E5833AF583E493220C
:100F2B00BB010689828A83F0225002F722BBFE01A5
:020F3B00F3229F
:100F3D00F8BB010DE58229F582E5833AF583E8F0EA
:100F4D00225006E92582C8F622BBFE05E92582C896
:020F5D00F2227E
:100F5F00BC000BBE0029EF8DF084FFADF022E4CC76
:100F6F00F875F008EF2FFFEE33FEEC33FCEE9DEC3F
:100F7F00984005FCEE9DFE0FD5F0E9E4CEFD22ED85
:100F8F00F8F5F0EE8420D21CFEADF075F008EF2FCF
:100F9F00FFED33FD4007985006D5F0F222C398FDC0
:050FAF000FD5F0EA225D
:0E0FB400C3E49FFFE49EFEE49DFDE49CFC224E
:100FC200FAE6FB0808E6F925F0F618E6CA3AF62230
:100FD200D083D082F8E4937012740193700DA3A3AE
:100FE20093F8740193F5828883E4737402936860C2
:060FF200EFA3A3A380DFC2
:060FF8008A838982E47384
:102BC200EFB40A07740D122BCD740A309811A8992C
:102BD200B8130CC2983098FDA899C298B811F63073
:072BE20099FDC299F599224B
:00000001FF
