:030000000222EDEC
:0C22ED00787FE4F6D8FD75814F021710D1
:0B22F9000000007F0B7EBEDEFEDFFC5D
:0123040022B6
:0E22D200AD07AF051DEF60051222F980F52261
:0A2305002575202020252E326600E9
:102290007534037535FF7B007A0079347F040212B0
:0122A0003904
:1022A1007534037535FF7B007A0079347F010212A2
:0122B10039F3
:10219400750801750901E4F50A750B01F50C750D57
:1021A40001750E02FB7A00790812161BE4F5A2FDF4
:0521B4007F010219CFBC
:0F22C300E4F539753A01FB7A007939FF021239D7
:1021D9001222C375341FE4F537753801F5357536A4
:0E21E90001FB7A0079341218687F010222E0AF
:10171000E4F522F5231222901214B01221D91222DC
:05172000A1D294C29566
:101725007F081217858E248F25AC24AD25E4120A77
:1017350011E4FBFA7980784512096FE4FBFA79C860
:1017450078421208668F298E288D278C267537FFDB
:1017550075382375390585243A85253B8F3F8E3E9F
:101765008D3D8C3C7B007A00792A120E267B007A0F
:0E17750000792AE4FDFF12206D7FE81222D2D7
:0217830080A044
:10004E000000000000000000002F0000000007006C
:10005E00070000147F147F1400242A7F2A120062E6
:10006E006408132300364955225000000503000092
:10007E0000001C224100000041221C000014083E1A
:10008E0008140008083E0808000000A060000008E0
:10009E000808080800006060000000201008040234
:1000AE00003E5149453E0000427F400000426151F2
:1000BE004946002141454B31001814127F1000278C
:1000CE0045454539003C4A4949300001710905034F
:1000DE0000364949493600064949291E0000363680
:1000EE0000000000563600000008142241000014E3
:1000FE0014141414000041221408000201510906C0
:10010E0000324959513E007C1211127C007F494940
:10011E004936003E41414122007F4141221C007F71
:10012E0049494941007F09090901003E4149497A7F
:10013E00007F0808087F0000417F410000204041F9
:10014E003F01007F08142241007F40404040007F65
:10015E00020C027F007F0408107F003E4141413EA9
:10016E00007F09090906003E4151215E007F0919F1
:10017E0029460046494949310001017F0101003FEE
:10018E004040403F001F2040201F003F4038403F6E
:10019E0000631408146300070870080700615149D2
:1001AE00454300007F41410000552A552A55000065
:1001BE0041417F00000402010204004040404040E3
:1001CE00000001020400002054545478007F48447B
:1001DE00443800384444442000384444487F0038B2
:1001EE005454541800087E0901020018A4A4A47CDB
:1001FE00007F080404780000447D400000408084A5
:10020E007D00007F102844000000417F4000007CEC
:10021E0004180478007C08040478003844444438F8
:10022E0000FC242424180018242418FC007C080444
:10023E00040800485454542000043F444020003C1D
:10024E004040207C001C2040201C003C4030403CA4
:10025E00004428102844001CA0A0A07C0044645434
:10026E004C44141414141414000000000000000078
:10027E000000000000000000000000F80000000078
:10028E00000000333000000000100C06100C0600B9
:10029E00000000000000000040C07840C078400020
:1002AE00043F04043F040400007088FC0830000082
:1002BE00001820FF211E0000F008F000E0180000DA
:1002CE0000211C031E211E0000F008887000000093
:1002DE001E2123241927211010160E0000000000E5
:1002EE000000000000000000000000E01804020002
:1002FE00000000071820400000020418E000000073
:10030E000040201807000000404080F08040400070
:10031E000202010F01020200000000F000000000C6
:10032E000101011F0101010000000000000000009A
:10033E0080B070000000000000000000000000000F
:10034E000001010101010101000000000000000098
:10035E000030300000000000000000008060180433
:10036E00006018060100000000E010080810E00010
:10037E00000F102020100F00001010F800000000D9
:10038E000020203F20200000007008080888700020
:10039E0000302824222130000030088888483000A0
:1003AE000018202020110E000000C02010F80000C0
:1003BE0000070424243F240000F808888808080059
:1003CE000019212020110E0000E01088881800006E
:1003DE00000F112020110E0000380808C838080040
:1003EE000000003F000000000070880808887000C0
:1003FE00001C222121221C0000E010080810E00041
:10040E000000312222110F00000000C0C0000000C9
:10041E0000000030300000000000008000000000EE
:10042E0000008060000000000000804020100800E6
:10043E0000010204081020004040404040404000AF
:10044E00040404040404040000081020408000008A
:10045E000020100804020100007048080808F0008F
:10046E000000003036010000C030C828E810E0005F
:10047E000718272423140B000000C038E0000000EA
:10048E00203C23020227382008F888888870000054
:10049E00203F202020110E00C03008080808380028
:1004AE00071820202010080008F808080810E0009F
:1004BE00203F202020100F0008F88888E808100040
:1004CE00203F20202320180008F88888E808100014
:1004DE00203F200003000000C0300808083800004C
:1004EE0007182020221E020008F808000008F8084D
:1004FE00203F210101213F20000808F808080000D4
:10050E000020203F2020000000000808F808080006
:10051E00C08080807F00000008F888C0281808007E
:10052E00203F20012638200008F8080000000000B7
:10053E00203F20202020300008F8F800F8F80800AE
:10054E00203F003F003F200008F830C00008F808A8
:10055E00203F200007183F00E01008080810E000B8
:10056E000F10202020100F0008F808080808F000CF
:10057E00203F210101010000E01008080810E000F2
:10058E000F18242438504F0008F888888888700087
:10059E00203F2000030C3020007088080808380027
:1005AE000038202121221C00180808F8080818001D
:1005BE000000203F2000000008F808000008F8089E
:1005CE00001F202020201F000878880000C838084F
:1005DE00000007380E010000F80800F80008F800C7
:1005EE00033C0700073C0300081868808068180861
:1005FE0020302C03032C30200838C800C8380800DF
:10060E000000203F2000000010080808C83808002D
:10061E002038262120201800000000FE02020200D1
:10062E000000007F40404000000C30C00000000081
:10063E00000000010638C00000020202FE000000A9
:10064E00004040407F00000000000402020204004F
:10065E00000000000000000000000000000000008C
:10066E008080808080808080000202040000000074
:10067E00000000000000000000008080808000006C
:10068E000019242222223F2008F80080800000005A
:10069E00003F112020110E0000000080808000001D
:1006AE00000E112020201100000000808088F8002C
:1006BE00000E112020103F2000008080808000005E
:1006CE00001F222222221300008080F088888818C2
:1006DE000020203F202000000000808080808000CD
:1006EE00006B94949493600008F800808080000062
:1006FE00203F210000203F2000809898000000003D
:10070E000020203F2020000000000080989800006C
:10071E0000C08080807F000008F80000808080008C
:10072E00203F24022D302000000808F800000000B1
:10073E000020203F2020000080808080808080006C
:10074E00203F20003F20003F8080008080800000FE
:10075E00203F210000203F2000008080808000008C
:10076E00001F202020201F008080008080000000BD
:10077E0080FFA12020110E000000008080808000EC
:10078E00000E112020A0FF808080800080808000DD
:10079E0020203F212000010000008080808080000A
:1007AE000033242424241900008080E0808000007F
:1007BE000000001F202000008080000000808000CC
:1007CE00001F202020103F2080808000008080802D
:1007DE0000010E30080601008080008000808080BD
:1007EE000F300C030C300F000080800080808000E2
:1007FE000020312E0E31200080808000008080800D
:10080E0080818E70180601000080808080808000BC
:10081E000021302C2221300000000000807C0202DA
:10082E0000000000003F404000000000FF000000FC
:10083E0000000000FF0000000002027C80000000AB
:10084E000040403F000000000006010102020404C7
:08085E00000000000000000092
:1014B000D2C27F641222D2C2C27F641222D2D2C2AE
:1014C000E4FD7FAE12212DE4FDFF12212DE4FD7F0E
:1014D0001012212DE4FD7F4012212DE4FD7F8112A9
:1014E000212DE4FD7FCF12212DE4FD7FA112212DBE
:1014F000E4FD7FC812212DE4FD7FA612212DE4FD1D
:101500007FA812212DE4FD7F3F12212DE4FD7FD322
:1015100012212DE4FDFF12212DE4FD7FD512212D96
:10152000E4FD7F8012212DE4FD7FD912212DE4FD01
:101530007FF112212DE4FD7FDA12212DE4FD7F12CF
:1015400012212DE4FD7FDB12212DE4FD7F401221CD
:101550002DE4FD7F2012212DE4FD7F0212212DE4D8
:10156000FD7F8D12212DE4FD7F1412212DE4FD7FDE
:10157000A412212DE4FD7FA612212DE4FD7FAF12E0
:10158000212DE4FD7FAF12212D1220EDE4FDFF029D
:0215900021B97F
:07212600F583E493FF7D0146
:10212D00ED6004D2C38002C2C3C2C4E4FEEEC39408
:10213D0008748094805015C2C0EF30E704D2C1807E
:10214D0002C2C1D2C0EF25E0FF0E80E1D2C4D2C3DE
:01215D00225F
:1021B900AC07ED24B0FFE4FD12212DEC54F0C4541A
:1021C9000F4410FF12212DEC540F4401FF02212D61
:1020ED00E4FCECC3940874809480502CEC24B0FF75
:1020FD00E4FD12212DE4FF12212D7F1012212DE47C
:10210D00FBEBC3948074809480500A7D01E4FF1230
:08211D00212D0B80EC0C80CA9F
:012125002297
:1022790053070FEFC3940A74809480500574302F6C
:07228900FF22EF2437FF22C2
:06159200AA07A905AF0342
:10159800EF24E0FBC3748094804006EFD3947E4030
:1015A800027B1FEAD3947F748094804004E4FA0994
:1015B80009AF02AD011221B9E4FCECC394087480B0
:1015C8009480501D75F010EBA42CF582E435F0F5ED
:1015D80083E5822476F582E58334021221260C8085
:1015E800D9AF02E904FD1221B9E4FCECC3940874F4
:1015F800809480501D75F010EBA42CF582E435F032
:10160800F583E582247EF582E58334021221260CD7
:0216180080D977
:01161A0022AD
:0A206D008F348D358B368A378938A1
:10207700E4F539AB36AA37A938853982758300125A
:102087000D47FB6021AD35AF341215927408253426
:10209700F534D39478748094804007E4F53405359B
:0620A7000535053980CD6E
:0120AD002210
:0A1C8B00FF122279AB07AD10AF0F76
:101C9500EB24E0FBEFD3947F748094804003E4FF52
:101CA5000D1221B9E4FCECC3940674809480501D98
:101CB50075F006EBA4244EF582E5F03400F583E5D6
:0D1CC500822CF582E435831221260C80D993
:011CD20022EF
:0A20AE008F168D178B188A19891AF6
:1020B800E4F51BAB18AA19A91A851B8275830012AF
:1020C8000D47FB601FAD17AF16121C957406251639
:1020D800F516D39478748094804005E4F5160517B6
:0420E800051B80CF85
:0120EC0022D1
:0A1A21008F0F8D108B118A128913AC
:101A2B00E4F515E515C395145039050FAB11AA1242
:101A3B00A913851582758300120D47C4540F121C10
:101A4B008B7406250FF50FAB11AA12A913851582FE
:101A5B00758300120D47121C8B7409250FF50F05AA
:031A6B001580C023
:011A6E002255
:10186800900001120D47FFE5DE54F04FF5DE9000C1
:1018780002120D47C43354E0FFE5DE54DF4FF5DEB6
:10188800120D2ED3941F74809480503D9000031243
:101898000D47FFD3940174809480502D900004125A
:1018A8000D47FED3940374809480501D43BA80EE94
:1018B800C43354E0FEEFC433333354804EFF120D6B
:0A18C8002E4F90FEA8F053BA7F22C5
:0D22E000EF6401700443BC802253BC7F22D8
:10178500EFD3940F7480948040028063E4F5BDF537
:10179500BEE5BC54F044404FF5BC00000000E4FD3C
:1017A500EDC394FA748094805045E5BC30E53D5313
:1017B500BCDFE5DEAFBD30E50EEFFEACBEECFBEE0B
:1017C500F534EBF53580207534008F35E5BEC4540E
:1017D5000FFBE535C4F8540FC868FFE534C454F071
:1017E50048F534EF4BF535AE34AF35220D80B17E7B
:0317F500107F0062
:0117F80022CE
:10123900EFD394077480948040037FFF22120D2E10
:10124900FED394037480948040037FFF22EF70449F
:10125900EE700B900001120D47F452935294120D47
:101269002E6401700B900001120D474293F45294C1
:10127900120D2EFE6402700A900001120D4742936E
:101289004294EE6403700D900001120D47FEF45272
:1012990093EE4294EF64017046120D2EFE700B908E
:1012A9000001120D47F452915292EE6401700B90B5
:1012B9000001120D474291F45292120D2E640270F0
:1012C9000A900001120D4742914292120D2E6403B9
:1012D900700D900001120D47FEF45291EE4292EF0B
:1012E90064027046120D2EFE700B900001120D471C
:1012F900F452955296EE6401700B900001120D475D
:101309004295F45296120D2E6402700A9000011251
:101319000D4742954296120D2E6403700D900001FF
:10132900120D47FEF45295EE4296EF640370461291
:101339000D2EFE700B900001120D47F452B152B2FE
:10134900EE6401700B900001120D4742B1F452B2E4
:10135900120D2E6402700A900001120D4742B1422B
:10136900B2120D2E6403700D900001120D47FEF4A8
:1013790052B1EE42B2EF64047046120D2EFE700BAC
:10138900900001120D47F452B352B4EE6401700B90
:10139900900001120D4742B3F452B4120D2E6402AB
:1013A900700A900001120D4742B342B4120D2E6427
:1013B90003700D900001120D47FEF452B3EE42B4D2
:1013C900EF64057046120D2EFE700B900001120D90
:1013D90047F452C952CAEE6401700B900001120D14
:1013E9004742C9F452CA120D2E6402700A900001D4
:1013F900120D4742C942CA120D2E6403700D9000A6
:1014090001120D47FEF452C9EE42CAEF6406704656
:10141900120D2EFE700B900001120D47F452CB52A3
:10142900CCEE6401700B900001120D4742CBF452CF
:10143900CC120D2E6402700A900001120D4742CBA6
:1014490042CC120D2E6403700D900001120D47FE5F
:10145900F452CBEE42CCEF64077049120D2EFF7E99
:1014690000700B900001120D47F452E152E2EF6453
:10147900014E700B900001120D4742E1F452E21245
:101489000D2E6402700A900001120D4742E142E2FA
:10149900120D2E6403700D900001120D47FFF452D6
:0714A900E1EF42E27F0022A7
:101ABD00EFFBD39401748094805009EB7004C2A99C
:101ACD008002D2A9EDFF7E00D394037480948050E0
:101ADD0029EF700553B7FDC2B9EF64014E70055380
:101AED00B7FDD2B9EF64024E700543B702C2B9EF2C
:0D1AFD0064034E700543B702D2B97F00228A
:101B0A00EFFBD39401748094805009EB7004C2AB4C
:101B1A008002D2ABEDFF7E00D39403748094805090
:101B2A0029EF700553B7F7C2BBEF64014E70055336
:101B3A00B7F7D2BBEF64024E700543B708C2BBEFDA
:0D1B4A0064034E700543B708D2BB7F002234
:10221200EFD3940174809480500DEF25E025E0FF08
:0A222200E5AF54FB4FF5AFE4FF22D7
:10222C00EFD3940174809480500DEFC43354E0FFCD
:0A223C00E5AF54DF4FF5AFE4FF22D9
:10002E00EFD3940174809480500EEFC4333354C0D8
:0B003E00FFE5AF54BF4FF5AFE4FF2219
:101B5700EFFBD39401748094805009EB7004C2A802
:101B67008002D2A8EDFF7E00D39403748094805046
:101B770029EF700553B7FEC2B8EF64014E700553E5
:101B8700B7FED2B8EF64024E700543B701C2B8EF93
:0D1B970064034E700543B701D2B87F0022F1
:101BA400EFFBD39401748094805009EB7004C2AAB3
:101BB4008002D2AAEDFF7E00D394037480948050F7
:101BC40029EF700553B7FBC2BAEF64014E70055399
:101BD400B7FBD2BAEF64024E700543B704C2BAEF42
:0D1BE40064034E700543B704D2BA7F00229F
:10226000EFD3940174809480500CEFC454F0FFE5D8
:092270008F54EF4FF58FE4FF22BB
:10224600EFD3940174809480500DEFC43354E0FFB3
:0A225600E58F54DF4FF58FE4FF22FF
:1021F700EFD3940174809480500EEFC4333354C0EE
:0B220700FFE58F54BF4FF58FE4FF226E
:101BF100EFFBD39401748094805009EB7004C2AD63
:101C01008002D2ADEDFF7E00D394037480948050A6
:101C110029EF700553B7DFC2BDEF64014E70055364
:101C2100B7DFD2BDEF64024E700543B720C2BDEFEE
:0D1C310064034E700543B720D2BD7F002232
:1018D200EF30E10543E620800353E6DFEF30E00519
:1018E20043E610800353E6EFEDFF7E00D3940374CA
:1018F200809480502DEF700653B6DF53B5DFEF644E
:10190200014E700653B6DF43B520EF64024E7006F7
:1019120043B62053B5DFEF64034E700643B620434F
:05192200B5207F00224A
:1017F900EFD394017480948040037FFF2243BA8021
:10180900EF64017012ED90FE817006E0547FF08064
:1018190011E04480F0800BEF700890FE83E054875C
:101829004DF0EBFF7E00D3940374809480502DEF2C
:10183900700653B6DF53B5DFEF64014E700653B639
:10184900DF43B520EF64024E700643B62053B5DF7F
:0F185900EF64034E700643B62043B5207F002294
:101C3E00EFFBD39401748094805009EB7004C2AC16
:101C4E008002D2ACEDFF7E00D3940374809480505A
:101C5E0029EF700553B7EFC2BCEF64014E70055308
:101C6E00B7EFD2BCEF64024E700543B710C2BCEFA3
:0D1C7E0064034E700543B710D2BC7F0022F6
:101A6F00EFD39401748094805007E5AF54FE4FF587
:101A7F00AFEDFF7E00D3940374809480502DEF70F0
:101A8F000653B6FE53B5FEEF64014E700653B6FE15
:101A9F0043B501EF64024E700643B60153B5FEEF36
:0E1AAF0064034E700643B60143B5017F00226A
:10192700EFD3940174809480500EEF33333354F81F
:10193700FFE5AF54F74FF5AFEDFF7E00D394037487
:10194700809480502DEF700653EEFE53DFFEEF6458
:10195700014E700653EEFE43DF01EF64024E700640
:1019670043EE0153DFFEEF64034E700643EE01437F
:05197700DF017F0022EA
:10197C00EFD3940174809480500CEFC454F0FFE5C5
:10198C00AF54EF4FF5AFEDFF7E00D394037480940A
:10199C0080502DEF700653EEFD53DFFDEF64014ECA
:1019AC00700653EEFD43DF02EF64024E700643EE09
:1019BC000253DFFDEF64034E700643EE0243DF0279
:0319CC007F002277
:1019CF00EFD3940174809480500BEF25E0FFE5AFC7
:1019DF0054FD4FF5AFEDFF7E00D3940374809480D8
:1019EF00502DEF700653B6FD53B5FDEF64014E70E9
:1019FF000653B6FD43B502EF64024E700643B602BE
:101A0F0053B5FDEF64034E700643B60243B5027F34
:021A1F000022A3
:10169900EBF582758300D39403748094805030E510
:1016A90082700553B77FC2BFE58264014583700527
:1016B90053B77FD2BFE58264024583700543B78083
:1016C900C2BFE58264034583700543B780D2BFEF8B
:1016D90014601114601214601314601D2404702422
:1016E9008DDA80208DDB801C8DDC801843BA8090D8
:1016F900FD54EDF053BA7F800BED5401FFE5D95449
:07170900FE4FF5D97F00221D
:101CD30043BA8090FA10E054F0F0EDD3940374808B
:101CE3009480500BE0FEED25E025E0FDEE4DF0EB9A
:101CF300D3940374809480500690FA10E04BF0EF75
:101D0300640190FA107006E04480F08004E0547F90
:071D1300F053BA7F7F0022AC
:101D1A0043BA8090FA00E054F0F0EDD39403748053
:101D2A009480500BE0FEED25E025E0FDEE4DF0EB52
:101D3A00D3940374809480500690FA00E04BF0EF3D
:101D4A00640190FA007006E04480F08004E0547F59
:071D5A00F053BA7F7F002265
:101D610043BA8090FA20E054F0F0EDD394037480EC
:101D71009480500BE0FEED25E025E0FDEE4DF0EB0B
:101D8100D3940374809480500690FA20E04BF0EFD6
:101D9100640190FA207006E04480F08004E0547FF2
:071DA100F053BA7F7F00221E
:101DA80043BA8090FA30E054F0F0EDD39403748095
:101DB8009480500BE0FEED25E025E0FDEE4DF0EBC4
:101DC800D3940374809480500690FA30E04BF0EF7F
:101DD800640190FA307006E04480F08004E0547F9B
:071DE800F053BA7F7F0022D7
:101DEF0043BA8090FA38E054F0F0EDD39403748046
:101DFF009480500BE0FEED25E025E0FDEE4DF0EB7D
:101E0F00D3940374809480500690FA38E04BF0EF2F
:101E1F00640190FA387006E04480F08004E0547F4B
:071E2F00F053BA7F7F00228F
:101E360043BA8090FA40E054F0F0EDD394037480F6
:101E46009480500BE0FEED25E025E0FDEE4DF0EB35
:101E5600D3940374809480500690FA40E04BF0EFE0
:101E6600640190FA407006E04480F08004E0547FFC
:071E7600F053BA7F7F002248
:101E7D0043BA8090FA48E054F0F0EDD394037480A7
:101E8D009480500BE0FEED25E025E0FDEE4DF0EBEE
:101E9D00D3940374809480500690FA48E04BF0EF91
:101EAD00640190FA487006E04480F08004E0547FAD
:071EBD00F053BA7F7F002201
:101EC40043BA8090FA50E054F0F0EDD39403748058
:101ED4009480500BE0FEED25E025E0FDEE4DF0EBA7
:101EE400D3940374809480500690FA50E04BF0EF42
:101EF400640190FA507006E04480F08004E0547F5E
:071F0400F053BA7F7F0022B9
:101F0B0043BA8090FA58E054F0F0EDD39403748008
:101F1B009480500BE0FEED25E025E0FDEE4DF0EB5F
:101F2B00D3940374809480500690FA58E04BF0EFF2
:101F3B00640190FA587006E04480F08004E0547F0E
:071F4B00F053BA7F7F002272
:101F520043BA8090FA60E054F0F0EDD394037480B9
:101F62009480500BE0FEED25E025E0FDEE4DF0EB18
:101F7200D3940374809480500690FA60E04BF0EFA3
:101F8200640190FA607006E04480F08004E0547FBF
:071F9200F053BA7F7F00222B
:101F990043BA8090FA68E054F0F0EDD3940374806A
:101FA9009480500BE0FEED25E025E0FDEE4DF0EBD1
:101FB900D3940374809480500690FA68E04BF0EF54
:101FC900640190FA687006E04480F08004E0547F70
:071FD900F053BA7F7F0022E4
:101FE00043BA8090FA70E054F0F0EDD3940374801B
:101FF0009480500BE0FEED25E025E0FDEE4DF0EB8A
:10200000D3940374809480500690FA70E04BF0EF04
:10201000640190FA707006E04480F08004E0547F20
:07202000F053BA7F7F00229C
:10215E0043BA8090FE50E054CFF0EDD394037480D8
:10216E009480500AE0FEEDC454F0FDEE4DF0EF64A5
:10217E000190FE507006E04480F08004E0547FF041
:06218E0053BA7F7F00221E
:10161B00900001120D476401700553CE7F80034388
:10162B00CE80120D2EC4333354C0FFE5CE54BF4FC2
:10163B00F5CE900002120D47C43354E0FFE5CE54B3
:10164B00DF4FF5CE900003120D47C454F0FFE5CEEB
:10165B0054EF4FF5CE900004120D4733333354F84B
:10166B00FFE5CE54F74FF5CE900005120D4725E060
:10167B0025E0FFE5CE54FB4FF5CE900006120D474B
:0E168B00FFE5CE54FC4FF5CEE4F51CC209225B
:1022B200EF700753CEEF53CE7F2243CE1043CE8032
:0122C20022F9
:08230F008FCFD2092009FD2245
:03004B0002202769
:10202700C0E0C083C082C0D075D000C007E5CE3005
:10203700E404C2098022C3E51D9480748094804023
:1020470003751D00AF1D051D74002FF582E43400D4
:10205700F583E5CFF0751C0575CDC0D007D0D0D07E
:0620670082D083D0E032BC
:03002B0002231796
:0423170053BCDF32A2
:10086600EC4D6011E8497017ED33EC3304600DE48C
:10087600FCFFFEFD22E933E8330470F8020A7F121A
:100886000A4A58046009E4CC24815006285009021B
:100896000A89284003020A86C0E0EB4A7044B98000
:1008A60006D0E0FB020A75EF4E701CBD8008EBFF18
:1008B600EAFEE9FD80EBE98DF0A4FEE5F002094FC2
:1008C600E9CDF9EAFEEBFFEF89F0A4FCE5F0CE896D
:1008D600F0A42EFFE435F0CD89F0A42DFEE435F02A
:1008E6008067EF4E7005BD80D780C3EF8BF0A4AC58
:1008F600F0EE8BF0A42CFCE435F0F8EF8AF0A42C93
:10090600E5F038FCE433CB8DF0A42CFCE5F03BF8A5
:10091600EE8AF0A42CFCE5F038F8E433CF89F0A495
:100926002CFCE5F038CF3400CE89F0A42FFFE5F09B
:100936003EFEE433C98DF0A42EFEE5F039CD8AF0F3
:10094600A42FFFE5F03EFEE43DFD33D0E0FB50076B
:100956000BBB000F020A89EC2CFCEF33FFEE33FED3
:06096600ED33FD020A6101
:10096C00020A89EC5D046005E859047003020A7FF1
:10097C00120A4A580460F6EC4860F2EC7004FDFE72
:10098C00FF22C860DB2481C85009C398600250065E
:10099C00020A869850CAF582E9294B4A7005AB8247
:1009AC00020A7575F0007C1A7880C3EF9BEE9AED05
:1009BC0099400DC3EF9BFFEE9AFEED99FDE842F0D6
:1009CC00DC23ACF0D0E0FFD0E0FED0E0FDAB822029
:1009DC00E7101BEB60BAEC2CFCEF33FFEE33FEEDB3
:1009EC0033FD020A61E803F830E705C0F075F0004A
:1009FC00EF2FFFEE33FEED33FD40B830E7C280AA97
:100A0C0075F020800E75F010800575F0087D007E65
:100A1C00007F003392D530D503120D86EC33401095
:100A2C00EF33FFEE33FEED33FDEC33FCD5F0ED226E
:0E0A3C00E5F0247EA2D513CC92E7CDCEFF22AA
:100DCA00E54B2437F8E6054B2278343007027837AA
:100DDA00E475F001120D94020D2E2000EB7F2ED245
:100DEA00008018EF540F2490D43440D4FF30040B01
:100DFA00EF24BFB41A0050032461FFE54C600215CA
:100E0A004C054FE54F7002054E30070D7834E475F6
:100E1A00F001120D94EF020D740200037403D2075D
:100E2A008003E4C207F54B8B348A358936E4F54CE6
:100E3A00F54EF54FE54C60077F20120E0580F575DB
:100E4A004DFFC201C200C202C203C205C206C208E5
:100E5A00120DD3FF700D3007057F00120E16AF4F2B
:100E6A00AE4E22B4255FC2D5C204120DD3FF24D0E0
:100E7A00B40A00501A75F00A784C30D50508B6FF46
:100E8A000106C6A426F620D5047002D20380D9240E
:100E9A00CFB41A00EF5004C2E5D204021103D20102
:100EAA0080C6D20080C0D20280BCD2D580BAD20518
:100EBA0080B47F20120E052002077401B54C004051
:100ECA00F1120DCAFF120E05020E3ED208D206809A
:100EDA0095120DCAFB120DCAFA120DCAF94A4B70C5
:100EEA000679FA7A117BFF20022EE54C602A7E00F1
:100EFA008E82758300120D4760060EEE654D70F006
:100F0A00C2D5EBC0E0EAC0E0E9C0E0EE121163D05E
:100F1A00E0F9D0E0FAD0E0FB120D2EFF60AAEBC098
:100F2A00E0EAC0E0E9C0E0120E05D0E02401F9D001
:100F3A00E03400FAD0E0FBE54D0460DCD54DD98001
:100F4A0087D20280A212114660F7E54D70010412A1
:100F5A000A94A94D600DE54D600914F54D1211ED85
:100F6A00EF60F3EA30E702F404C3995077EAF42514
:100F7A004D0430E701E404F54D800D12114660C1BD
:100F8A00EA054D254D120A94EA784AF630E701E45B
:100F9A00254D04D54D0420050114121163E4C0E067
:100FAA001211ED784AE6601320E70714F6120DEDE8
:100FBA00802204F6D0E014C0E07F00120DEDE54D6A
:100FCA006007120DE4154D800B300503120DE4D0B5
:100FDA00E0020E3ED0E00480C512114660A0E54D45
:100FEA0004120A94784AEAF6E54D200502600104E3
:050FFA00240412116344
:100FFF0074FF04C0E01211ED120DEDE54D20050256
:10100F006003120DE4D0E0B54DE87F45120DF7787F
:10101F004AE67F2B30E7047F2DF404C0E0120E0563
:10102F00D0E075F00A84C0F0120DEED0E0120DEE94
:10103F00020E3E791080027908C206C2088008D2DB
:10104F00D5790A8004790AC2D5E54D047002F54DB1
:10105F00E4FAFDFEFF120DCAFC7B08200113120DEE
:10106F00CAFD7B1030000A120DCAFE120DCAFF7B9B
:10107F0020EC3382D592D55013C3E43000069FFF86
:10108F00E49EFEE42001039DFDE49CFCE4CBF8C24A
:10109F0001EC700CCFCECDCCE824F8F870F38017AC
:1010AF00C3EF33FFEE33FEED33FDEC33FCEB33FBDD
:1010BF00994002FB0FD8E9EB300105F8D0E0C448A6
:1010CF00B201C0E00AEC4D4E4F78207B0070C2EAAF
:1010DF00B54D0040BCC0E0121165D0F0D0E020014A
:1010EF0004C4C0E0C4B201C0F0120DEED0F0D5F0D0
:1010FF00EB020E3E120DA40EDB531042580EAC4CF9
:10110F000EA84210464F104E44104E490EC14310C8
:10111F0054550F85460FE3450F4F47121A500EB027
:10112F002D0EB42E0ED72B0EB8230ED52012032A58
:10113F000E704800000ECFE54DB4FF03754D06123B
:10114F000DCAFC120DCAFD120DCAFE120DCAFF7890
:10115F0043020AC3790AA2D5200314300509B91036
:10116F00020404B9080104A2D5200602500104208C
:10117F0002689202B54C005034C0E07F2030031952
:10118F007F30A20272067205500F1211BCC202C24A
:10119F0006C205C2087F30800F300503E9C0E01298
:1011AF000E05300503D0E0F9D0E0B54CCC30051773
:1011BF007F30B9100C120E057F583004077F7880EE
:1011CF0003B90803120E053002057F2D020E057FAD
:1011DF00202008F87F2B2006F322920280CF7F0079
:1011EF00B4070050052443F8E6FF22286E756C6C97
:1011FF002900D201120DCA3001F8C201784C30D546
:10120F000108F6020E702D50434958120DCA2403DF
:10121F00B405004001E490121593120DF6743A12C2
:0A122F000DF6D203754C04021042C4
:100A4A00E9D2E7C933E833F892D5EDD2E7CD33ECF2
:070A5A0033FC5002B2D5226B
:100A6100EC30E7100FBF000C0EBE00080DBD0004F6
:100A71000BEB6014A2D5EB13FCED92E7FD2274FFA2
:100A8100FCFDFEFF22E480F8A2D574FF13FC7D80FB
:030A9100E480EF0F
:100A9400F920E72824F950037907E4F42402FB1829
:100AA400DBFDE624FB5014E9600DE4F618E604F6D9
:0F0AB400B40A08E4F6D9F57401F60A22C2D52275
:100AC300ED33EC3392D5FA602AB4FF33EDC2E77B02
:100AD300FF60067A0A79E8E4227A0A79F120D504DC
:100AE3007A0A79EC224E614E002B494E46002D497D
:100AF3004E4600E47A08F608DAFC7B00740722E825
:100B0300C0E0ECC0E0EDC0E0EEC0E0EFC0E0EA75AD
:100B1300F010A4CAABF075F04DA42BFBE435F0FC48
:100B2300EA2410FAEB34C5FBEC34D9FCEDC2E7FF41
:100B330075F056A4F42411C5F0F434C58FF0A42A3B
:100B4300E5F03BE43CF620E714120CEED0E0FFD0D6
:100B5300E0FED0E0FDD0E0FC12096F8014F4041233
:100B63000CEED0E0FFD0E0FED0E0FDD0E0FC1208B8
:100B730066D0E0F8E6FAEDD2E7CD33EC332482FB1E
:100B8300E4C3CF33CFCE33CECD33CD33DBF37B07CB
:100B930075F00A846004F6081B0AE5F0F6088FF086
:100BA300740AA4FFACF08EF0740AA42CFEACF050CF
:100BB300010C8DF0740AA42CFDE435F0F608DBDE9D
:030BC30074072292
:100BC600020A7FE86480F8E933E83360110460F0D4
:100BD600ED33EC337009E8FCE9FDEAFEEBFF220495
:100BE60060DED3EB9FEA9EE99DE8C2E78CF0C2F790
:100BF60095F0400CE8CCF8E9CDF9EACEFAEBCFFB5C
:100C0600120A4A85D0F05804700320D5B3E8047060
:100C1600075002B2D5020A8992D5EC0460F7E4CCFB
:100C2600C0E0C398F8603B94186008400DD0E0FB24
:100C3600020A61E4FBFAC9FC8028E830E406E4C94C
:100C4600FBE4CAFCE830E305E4C9CACBFCE8540778
:100C56006010F8C3E913F9EA13FAEB13FBEC13FC83
:100C6600D8F130F52FC3E49CFCEF9BFFEE9AFEED26
:100C760099FDD0E0FBEF4E4D4C701222DB03020AC9
:100C860086EC2CFCEF33FFEE33FEED33FDED30E763
:100C9600EB020A61EF2BFFEE3AFEED39FDD0E0FBE9
:100CA60050130BBB0003020A89ED13FDEE13FEEF92
:080CB60013FFEC13FC020A61BC
:100CBE003F8000004120000042C80000447A00003E
:100CCE00461C400047C35000497424004B189680C0
:100CDE004CBEBC205A0E1BCA6753C21C749DC5AEB7
:100CEE00FB60065407601C2323120D1CEB54386066
:100CFE0009120D08120D17120866ECF8EDF9EEFA4E
:100D0E00EFCB22EB120D1780F1543803241C900CFC
:100D1E00BEFE93FC0EEE93FD0EEE930ECE93FF22CF
:100D2E00BB010689828A83E0225002E722BBFE02C3
:090D3E00E32289828A83E49322F6
:100D4700BB010CE58229F582E5833AF583E0225061
:100D570006E92582F8E622BBFE06E92582F8E222AB
:0D0D6700E58229F582E5833AF583E49322C5
:100D7400BB010689828A83F0225002F722BBFE015E
:020D8400F32258
:0E0D8600C3E49FFFE49EFEE49DFDE49CFC227E
:100D9400FAE6FB0808E6F925F0F618E6CA3AF62260
:100DA400D083D082F8E4937012740193700DA3A3DE
:100DB40093F8740193F5828883E4737402936860F2
:060DC400EFA3A3A380DFF2
:10000300EFB40A07740D12000E740A309811A89900
:10001300B8130CC2983098FDA899C298B811F6305D
:0700230099FDC299F5992235
:00000001FF
