:100066003F065B4F666D7D077F6F777C395E7971E2
:100076000040761E7038375C733E783D6750376EA9
:10008600BF86DBCFE6EDFD87FFEF460102040810D1
:0300960020408087
:10001E00752203E4F521FB7A007921FF1203F275B4
:10002E002208E4F521FB7A0079217F031203F27591
:10003E0022FFE4F521FB7A0079217F061203F27587
:0F004E0022FFE4F521FB7A0079217F070203F2FC
:100AF200E4F521F522752301F524F5257526A27565
:0E0B02002740752801FB7A007921FF0200C60A
:100ACF00E4F5227521017526017527017528017539
:100ADF002901752B01752A2D752C30FB7A00792190
:030AEF0002066993
:10086D0012001E120AF2120ACFD2AFE4F518C2011D
:10087D00FFEFC39408748094805009740A2FF876A2
:10088D00100F80ED300114C201900000E0F50EA3B1
:10089D00E0F50FA3E0F510A3E0F5113000E6C2007E
:1008AD000517E51770020516C394E8E51694034085
:1008BD00D3E4F516F5170509E5097002050894103E
:1008CD00E50894274005E4F508F509AE08AF097C65
:1008DD00037DE81207E08F12AE08AF097C037DE8B7
:1008ED001207E07E007F64CFCDCFCECCCE1207E0D5
:1008FD008F13AE08AF097C007D641207E07E007F88
:10090D000ACFCDCFCECCCE1207E08F14AE08AF09F3
:10091D007C007D0A1207E08D1585120A85130B8563
:10092D00140C85150D7B007A007912752504E4FFF2
:06093D00120AA402089159
:100A6D00C374079518FFE49400FE74912FF58274FA
:100A7D00003EF583E493F4F5F8740A2518F8E69032
:100A8D00006693F4F5E80518C3E51894087480948E
:070A9D00804003E4F518227C
:1003F200EFD394077480948040037F012212078810
:10040200FED394037480948040037F0222EF7044F1
:10041200EE700B9000011207A1F45293529412074E
:10042200886401700B9000011207A14293F4529468
:10043200120788FE6402700A9000011207A142931B
:100442004294EE6403700D9000011207A1FEF45273
:1004520093EE4294EF64017046120788FE700B908F
:1004620000011207A1F452915292EE6401700B90B6
:1004720000011207A14291F452921207886402709D
:100482000A9000011207A142914292120788640366
:10049200700D9000011207A1FEF45291EE4292EF0C
:1004A20064027046120788FE700B9000011207A1C9
:1004B200F452955296EE6401700B9000011207A15E
:1004C2004295F452961207886402700A9000011253
:1004D20007A1429542961207886403700D900001AD
:1004E2001207A1FEF45295EE4296EF640370461293
:1004F2000788FE700B9000011207A1F452B152B2AC
:10050200EE6401700B9000011207A142B1F452B2E5
:100512001207886402700A9000011207A142B142D8
:10052200B21207886403700D9000011207A1FEF455
:1005320052B1EE42B2EF64047046120788FE700BAD
:100542009000011207A1F452B352B4EE6401700B91
:100552009000011207A142B3F452B4120788640258
:10056200700A9000011207A142B342B412078864D4
:1005720003700D9000011207A1FEF452B3EE42B4D3
:10058200EF64057046120788FE700B900001120797
:10059200A1F452C952CAEE6401700B900001120715
:1005A200A142C9F452CA1207886402700A9000017B
:1005B2001207A142C942CA1207886403700D900053
:1005C200011207A1FEF452C9EE42CAEF6406704658
:1005D200120788FE700B9000011207A1F452CB5251
:1005E200CCEE6401700B9000011207A142CBF452D1
:1005F200CC1207886402700A9000011207A142CB54
:1006020042CC1207886403700D9000011207A1FE0C
:10061200F452CBEE42CCEF64077049120788FF7E9A
:1006220000700B9000011207A1F452E152E2EF6454
:10063200014E700B9000011207A142E1F452E21246
:1006420007886402700A9000011207A142E142E2A7
:100652001207886403700D9000011207A1FFF45283
:07066200E1EF42E27F0022FC
:1006690043BA809000011207A16401704590FE8091
:10067900E04440F090FE82E4F09000021207A1905D
:10068900FE817006E0547FF08004E04480F0900021
:10069900041207A1543FFF90FE80E054C04FF09030
:1006A90000031207A1640190FE8870030207470244
:1006B900074190FE80E054BFF090FE84E4F0900082
:1006C900051207A1640190FE837006E04440F080A2
:1006D90004E054BFF09000061207A1640190FE8364
:1006E9007006E04420F08004E054DFF09000071227
:1006F90007A1640190FE837006E04410F08004E0D5
:1007090054EFF09000081207A1640190FE8370066F
:10071900E04408F08004E054F7F09000091207A1C2
:1007290025E0FF90FE85E054014FF090000A120782
:10073900A1640190FE857006E054FEF08004E04457
:1007490001F090000B1207A1FFE5BA54CF4FF5BA9B
:1007590012078890FE807006E0547FF08004E04420
:1007690080F0752E01752D01E4F52F7400252FF504
:0F07790082E43400F583E090FE86F053BA7F22CD
:070B4100D281120B48D280A3
:040B48007F0CDFFE41
:010B4C002286
:0D000E00120B41C281120B48C280020B4848
:0A0B5900C281120B43D281020B4847
:0A0B6300C281120B43C280020B484E
:08000300120B41C280020B4800
:0A0B2B00AC0712000E7F5A1200A65C
:0C0B3500120B41A28192D5C280020B4835
:0200A600AE07A3
:1000A8007D08EE30E704D2818002C281EE25E0FEB1
:0A00B800120B43C280120B48DDE872
:0100C200221B
:100B10007D08D281D280120B48EE25E0FE308101A3
:0A0B20000EC280120B48DDECAF0698
:010B2A0022A8
:100AA400120B2B20D522AF041200A6120B3520D531
:100AB40017120788FF1200A6740129F9E43AFA1202
:0B0AC4000B3520D503D525E9020B59A6
:1009F100120B2B20D536AF041200A6120B3520D5D1
:100A01002B12000E7F5B1200A6120B3520D51D1292
:100A11000B10EF1207CE740129F9E43AFAE51D64CF
:0F0A2100016003120B63D51DE6120003020B598F
:0300C300020943EC
:10094300C0E0C083C082C0D075D000C005C006C05F
:01095300079C
:10095400AFBA43BA8090FE84E030E606E054BFF0BC
:10096400807A90FE84E030E535E054DFF0E52E60D7
:1009740005752E008066E52D600D752D0090FE87AF
:10098400E0F52F2400803490FE87E0FEAD2F052F84
:1009940074002DF582E43400F583EEF0803E90FE81
:1009A40084E030E424E054EFF0E030E10890FE8687
:1009B40074FFF08027052F7400252FF582E434009E
:1009C400F583E090FE86F0801390FE84E030E30C23
:0E09D400E054F7F0752E01752D01D2018FBA97
:0F09E200D007D006D005D0D0D082D083D0E0325D
:03000B00020A30B6
:100A3000C0E0C0F0C083C082C0D075D000C000C08C
:100A400001C002C003C004C005C006C007120A6D81
:100A5000D200D007D006D005D004D003D002D001F8
:0D0A6000D000D0D0D082D083D0F0D0E032D2
:03001B0002005D83
:01005D003270
:0300630002005E3A
:01005E00326F
:03009B0002005F01
:01005F00326E
:0300A300020060F8
:01006000326D
:1000C600AD07EDD394047480948040037F0122ED44
:1000D600600302019BC28C9000021207A1640170AA
:1000E60004D2A98002C2A99000011207A1FED394EE
:1000F600037480948040037F0222EEFF7E00700529
:1001060053B7FDC2B9EF64014E700553B7FDD2B9BE
:10011600EF64024E700543B702C2B9EF64034E7036
:100126000543B702D2B9120788FEC39403748094BC
:100136008040037F0222E58954CF4EF58990000363
:100146001207A1FF7E0064017003538E7FEF4E708D
:1001560003438E80EF64024E700543890480035387
:1001660089FB9000041207A164017005438F01808A
:1001760003538FFE900005120835E5F0F58C9000CC
:1001860005120835F58A9000071207A1640170026E
:10019600D28C7F0022ED64016003020263C28E905E
:1001A60000021207A164017004D2AB8002C2AB90B8
:1001B60000011207A1FED394037480948040037F4C
:1001C6000222EEFF7E00700553B7F7C2BBEF640153
:1001D6004E700553B7F7D2BBEF64024E700543B7B6
:1001E60008C2BBEF64034E700543B708D2BB1207C3
:1001F60088FEC394037480948040037F0222E589BD
:1002060054CF4EF5899000031207A1FF7E006401CA
:100216007003538EBFEF4E7003438E40EF64024E61
:10022600700543894080035389BF9000041207A1DB
:1002360064017005438F028003538FFD9000051201
:100246000835E5F0F58D900005120835F58B900020
:10025600071207A164017002D28E7F0022ED6402AC
:10026600707C538EEF9000021207A1640170054363
:10027600AF04800353AFFB9000031207A1FED39493
:10028600027480948040037F0222EEFF7E006401A8
:100296007003538EFBEF4E7003438E04EF64024EE1
:1002A6007005438E088003538EF79000041207A151
:1002B60064017005438F048003538FFB9000051281
:1002C6000835E5F0F5D6900005120835F5D790000B
:1002D600071207A164017003438E107F0022ED64AC
:1002E60003707C53D1F79000021207A164017005D8
:1002F60043AF20800353AFDF9000031207A1FED364
:1003060094027480948040037F0222EEFF7E006494
:1003160001700353D1FDEF4E700343D102EF640227
:100326004E700543D104800353D1FB90000412079D
:10033600A16401700543D101800353D1FE900005ED
:10034600120835E5F0F5D4900005120835F5D5907C
:1003560000071207A16401700343D1087F0022ED54
:10036600640460030203EF53D17F9000021207A1D9
:100376006401700543AF40800353AFBF9000031282
:1003860007A1FD7C00D394027480948040037F0211
:1003960022ED64014C700353D1DF9000031207A1D4
:1003A600700343D1209000031207A1640270054335
:1003B600D140800353D1BF9000041207A16401709D
:1003C6000543D110800353D1EF900005120835FD87
:1003D600ACF0ECF5D2AF058FD39000071207A164FD
:0C03E60001700343D1807F00227F0222BF
:03000000020B4DA3
:0C0B4D00787FE4F6D8FD75812F02086D5A
:10078800BB010689828A83E0225002E722BBFE026F
:09079800E32289828A83E49322A2
:1007A100BB010CE58229F582E5833AF583E022500D
:1007B10006E92582F8E622BBFE06E92582F8E22257
:0D07C100E58229F582E5833AF583E4932271
:1007CE00BB010689828A83F0225002F722BBFE010A
:0207DE00F32204
:1007E000BC000BBE0029EF8DF084FFADF022E4CCFD
:1007F000F875F008EF2FFFEE33FEEC33FCEE9DECC6
:10080000984005FCEE9DFE0FD5F0E9E4CEFD22ED0B
:10081000F8F5F0EE8420D21CFEADF075F008EF2F55
:10082000FFED33FD4007985006D5F0F222C398FD46
:050830000FD5F0EA22E3
:10083500BB0110E58229F582E5833AF583E0F5F001
:10084500A3E0225009E92582F886F008E622BBFEDE
:100855000AE92582F8E2F5F008E222E5832AF58324
:08086500E993F5F0A3E99322E9
:00000001FF
