:0300000002171BC9
:0C171B00787FE4F6D8FD75816402176247
:1012A200535441525400494E495453544147455FA7
:1012B2004E4F4E4500494E495453544147455F54A1
:1012C2004F5F4D494E00494E495453544147455F83
:1012D200544F5F4D494E5F535441525400494E4959
:1012E2005453544147455F544F5F4D415800494E56
:1012F200495453544147455F544F5F5354415254EC
:1013020000494E495453544147455F52454144595F
:1013120000303120494E5400303220494E540030C2
:101322003320494E5400303420494E540030352089
:10133200494E5400303620494E5400303720494E31
:1013420054004E4F20494E5400434D445F4E4F4E81
:101352004500434D445F53544F5000434D445F4753
:101362004F5F5550204F52204D415800434D445F2E
:10137200474F5F444F574E204F52204D494E004336
:0C1382004D445F474F5F56414C554500FD
:1017A700121BF912138E7BFF7A1279A2E4FDFF1246
:0F17B7001A16121C6A754E01E4F550F54DF54FE8
:1017C600120003121BAB121AE71215E4121C498E03
:1017D600218F227B007A007923754214121A857BA9
:1017E600007A0079237D03E4FF121A16E54E601491
:1017F60024FE601904701912152CE550B40511E485
:10180600F54E800CE54D6008754E02800012117F82
:051816007F05121B72AA
:02181B0080A9A2
:101A5100E4F561756210FB7A0079617F05120D0A68
:101A6100D2CCC200E4F5637564FEFB7A007961FFB4
:101A7100120D0AD2CCD281D282D283D284D285D223
:031A810086D28783
:011A8400223F
:101BAB0020CC07200004D201D20030000730CC0437
:051BBB00C200C201227E
:0B1C2600A2019203300202C201A203DF
:011C31002290
:10152C00E55014602C14604614605E1460781470DE
:10153C00030215D6240560030215E37BFF7A1279AA
:10154C00A87D02E4FF121A167F02121B0E755001C1
:10155C00227BFF7A1279B77D02E4FF121A16C202BF
:10156C00121C2650727F01121B0E755002227BFF3B
:10157C007A1279C87D02E4FF121A16C202121C26D6
:10158C004055121C5B755003227BFF7A1279DF7D6C
:10159C0002E4FF121A16C202121C26503A7F0212E3
:1015AC001B0E755004227BFF7A1279F07D02E4FF4A
:1015BC00121A16C202121C26401D7F03121B0E7536
:1015CC005005121C498E518F52227BFF7A137903DE
:0815DC007D02E4FF121A162241
:1015E40020811AD281D282D283D284D285D286D269
:1015F40087754D017BFF7A137913021683208211BC
:101604007BFF7A13791A7D04E4FF121A16754D02D2
:10161400222083117BFF7A1379217D04E4FF121ABF
:1016240016754D03222084117BFF7A1379287D04DB
:10163400E4FF121A16754D04222085117BFF7A13DC
:10164400792F7D04E4FF121A16754D0522208614A5
:101654007BFF7A1379367D04E4FF121A16754D0662
:10166400755332227BFF2087127A13793D7D04E47F
:10167400FF121A16754D06755314227A1379447D98
:0716840004E4FF121A162214
:10117F00E54DB4070040030212A1901190F8282802
:10118F00730211A50211B80211D20212330211D249
:10119F000212330212947BFF7A13794B7D02E4FF24
:1011AF00121A16E4F54EF54F227BFF7A1379547D10
:1011BF0002E4FF121A167F03121B0EE4F54EF54DD3
:1011CF00F54F227BFF7A13795D7D02E4FF121A1629
:1011DF00E54F6401600CE54F70087F01121B0E751F
:1011EF004F01E54FB4010FC202121C2650087F02B7
:1011FF00121B0E754F02E54FB4021AC202121C26C3
:10120F0040137F03121B0E754F03E54DB404067593
:10121F004D01E4F54FE54D64027077308274754DE2
:10122F0001F54F227BFF7A13796E7D02E4FF121ACC
:10123F0016E54F6404600CE54F70087F02121B0E19
:10124F00754F04E54FB4040FC202121C2650087FDD
:10125F0001121B0E754F05E54FB4051AC202121C81
:10126F002640137F03121B0E754F06E54DB405067E
:10127F00754D01E4F54FE54DB40317308314754DEB
:10128F0001E4F54F227BFF7A1379817D02E4FF128F
:03129F001A1622FA
:031BC000011F0002
:101BF900E4F53D753E0CFB7A00793D7F02020D0A42
:031C7400AF1F227D
:101B0E008F1FEF14600F14601114601324037013F1
:101B1E00C2A2C2A322C2A2D2A322D2A2C2A322D204
:041B2E00A2D2A3227A
:100D0A00EFD3940740037FFF22120C2DFED39403E6
:100D1A0040037FFF22EF7041EE700B900001120C2E
:100D2A0046F452935294120C2DB4010B9000011206
:100D3A000C464293F45294120C2DFEB4020A90000F
:100D4A0001120C4642934294EEB4030D9000011234
:100D5A000C46FEF45293EE4294EF64017043120C77
:100D6A002DFE700B900001120C46F452915292EE35
:100D7A00B4010B900001120C464291F45292120CEB
:100D8A002DB4020A900001120C4642914292120CB2
:100D9A002DB4030D900001120C46FEF45291EE425E
:100DAA0092EF64027043120C2DFE700B9000011238
:100DBA000C46F452955296EEB4010B900001120CB7
:100DCA00464295F45296120C2DB4020A9000011272
:100DDA000C4642954296120C2DB4030D9000011256
:100DEA000C46FEF45295EE4296EF64037043120CE1
:100DFA002DFE700B900001120C46F452B152B2EE65
:100E0A00B4010B900001120C4642B1F452B2120C1A
:100E1A002DB4020A900001120C4642B142B2120CE1
:100E2A002DB4030D900001120C46FEF452B1EE42AD
:100E3A00B2EF64047043120C2DFE700B9000011285
:100E4A000C46F452B352B4EEB4010B900001120CEA
:100E5A004642B3F452B4120C2DB4020A90000112A5
:100E6A000C4642B342B4120C2DB4030D9000011289
:100E7A000C46FEF452B3EE42B4EF64057043120C12
:100E8A002DFE700B900001120C46F452C952CAEEA4
:100E9A00B4010B900001120C4642C9F452CA120C5A
:100EAA002DB4020A900001120C4642C942CA120C21
:100EBA002DB4030D900001120C46FEF452C9EE4205
:100ECA00CAEF64067043120C2DFE700B90000112DB
:100EDA000C46F452CB52CCEEB4010B900001120C2A
:100EEA004642CBF452CC120C2DB4020A90000112E5
:100EFA000C4642CB42CC120C2DB4030D90000112C9
:100F0A000C46FEF452CBEE42CCEF64077043120C4F
:100F1A002DFF700B900001120C46F452E152E2EFE1
:100F2A00B4010B900001120C4642E1F452E2120C99
:100F3A002DB4020A900001120C4642E142E2120C60
:100F4A002DB4030D900001120C46FFF452E1EF425A
:040F5A00E27F002210
:10002E000000000000000000002F0000000007008C
:10003E00070000147F147F1400242A7F2A12006206
:10004E0064081323003649552250000005030000B2
:10005E0000001C224100000041221C000014083E3A
:10006E0008140008083E0808000000A06000000800
:10007E000808080800006060000000201008040254
:10008E00003E5149453E0000427F40000042615112
:10009E004946002141454B31001814127F100027AC
:1000AE0045454539003C4A4949300001710905036F
:1000BE0000364949493600064949291E00003636A0
:1000CE000000000056360000000814224100001403
:1000DE0014141414000041221408000201510906E0
:1000EE0000324959513E007C1211127C007F494961
:1000FE004936003E41414122007F4141221C007F92
:10010E0049494941007F09090901003E4149497A9F
:10011E00007F0808087F0000417F41000020404119
:10012E003F01007F08142241007F40404040007F85
:10013E00020C027F007F0408107F003E4141413EC9
:10014E00007F09090906003E4151215E007F091911
:10015E0029460046494949310001017F0101003F0E
:10016E004040403F001F2040201F003F4038403F8E
:10017E0000631408146300070870080700615149F2
:10018E00454300007F41410000552A552A55000085
:10019E0041417F0000040201020400404040404003
:1001AE00000001020400002054545478007F48449B
:1001BE00443800384444442000384444487F0038D2
:1001CE005454541800087E0901020018A4A4A47CFB
:1001DE00007F080404780000447D400000408084C5
:1001EE007D00007F102844000000417F4000007C0D
:1001FE0004180478007C0804047800384444443819
:10020E0000FC242424180018242418FC007C080464
:10021E00040800485454542000043F444020003C3D
:10022E004040207C001C2040201C003C4030403CC4
:10023E00004428102844001CA0A0A07C0044645454
:10024E004C44141414141414000000000000000098
:10025E000000000000000000000000F80000000098
:10026E00000000333000000000100C06100C0600D9
:10027E00000000000000000040C07840C078400040
:10028E00043F04043F040400007088FC08300000A2
:10029E00001820FF211E0000F008F000E0180000FA
:1002AE0000211C031E211E0000F0088870000000B3
:1002BE001E2123241927211010160E000000000005
:1002CE000000000000000000000000E01804020022
:1002DE00000000071820400000020418E000000093
:1002EE000040201807000000404080F08040400091
:1002FE000202010F01020200000000F000000000E7
:10030E000101011F010101000000000000000000BA
:10031E0080B070000000000000000000000000002F
:10032E0000010101010101010000000000000000B8
:10033E000030300000000000000000008060180453
:10034E00006018060100000000E010080810E00030
:10035E00000F102020100F00001010F800000000F9
:10036E000020203F20200000007008080888700040
:10037E0000302824222130000030088888483000C0
:10038E000018202020110E000000C02010F80000E0
:10039E0000070424243F240000F808888808080079
:1003AE000019212020110E0000E01088881800008E
:1003BE00000F112020110E0000380808C838080060
:1003CE000000003F000000000070880808887000E0
:1003DE00001C222121221C0000E010080810E00061
:1003EE000000312222110F00000000C0C0000000EA
:1003FE00000000303000000000000080000000000F
:10040E000000806000000000000080402010080006
:10041E0000010204081020004040404040404000CF
:10042E0004040404040404000008102040800000AA
:10043E000020100804020100007048080808F000AF
:10044E000000003036010000C030C828E810E0007F
:10045E000718272423140B000000C038E00000000A
:10046E00203C23020227382008F888888870000074
:10047E00203F202020110E00C03008080808380048
:10048E00071820202010080008F808080810E000BF
:10049E00203F202020100F0008F88888E808100060
:1004AE00203F20202320180008F88888E808100034
:1004BE00203F200003000000C0300808083800006C
:1004CE0007182020221E020008F808000008F8086D
:1004DE00203F210101213F20000808F808080000F4
:1004EE000020203F2020000000000808F808080027
:1004FE00C08080807F00000008F888C0281808009F
:10050E00203F20012638200008F8080000000000D7
:10051E00203F20202020300008F8F800F8F80800CE
:10052E00203F003F003F200008F830C00008F808C8
:10053E00203F200007183F00E01008080810E000D8
:10054E000F10202020100F0008F808080808F000EF
:10055E00203F210101010000E01008080810E00012
:10056E000F18242438504F0008F8888888887000A7
:10057E00203F2000030C3020007088080808380047
:10058E000038202121221C00180808F8080818003D
:10059E000000203F2000000008F808000008F808BE
:1005AE00001F202020201F000878880000C838086F
:1005BE00000007380E010000F80800F80008F800E7
:1005CE00033C0700073C0300081868808068180881
:1005DE0020302C03032C30200838C800C8380800FF
:1005EE000000203F2000000010080808C83808004E
:1005FE002038262120201800000000FE02020200F2
:10060E000000007F40404000000C30C000000000A1
:10061E00000000010638C00000020202FE000000C9
:10062E00004040407F00000000000402020204006F
:10063E0000000000000000000000000000000000AC
:10064E008080808080808080000202040000000094
:10065E00000000000000000000008080808000008C
:10066E000019242222223F2008F80080800000007A
:10067E00003F112020110E0000000080808000003D
:10068E00000E112020201100000000808088F8004C
:10069E00000E112020103F2000008080808000007E
:1006AE00001F222222221300008080F088888818E2
:1006BE000020203F202000000000808080808000ED
:1006CE00006B94949493600008F800808080000082
:1006DE00203F210000203F2000809898000000005D
:1006EE000020203F2020000000000080989800008D
:1006FE0000C08080807F000008F8000080808000AD
:10070E00203F24022D302000000808F800000000D1
:10071E000020203F2020000080808080808080008C
:10072E00203F20003F20003F80800080808000001E
:10073E00203F210000203F200000808080800000AC
:10074E00001F202020201F008080008080000000DD
:10075E0080FFA12020110E0000000080808080000C
:10076E00000E112020A0FF808080800080808000FD
:10077E0020203F212000010000008080808080002A
:10078E000033242424241900008080E0808000009F
:10079E000000001F202000008080000000808000EC
:1007AE00001F202020103F2080808000008080804D
:1007BE0000010E30080601008080008000808080DD
:1007CE000F300C030C300F00008080008080800002
:1007DE000020312E0E31200080808000008080802D
:1007EE0080818E70180601000080808080808000DD
:1007FE000021302C2221300000000000807C0202FB
:10080E0000000000003F404000000000FF0000001C
:10081E0000000000FF0000000002027C80000000CB
:10082E000040403F000000000006010102020404E7
:08083E000000000000000000B2
:101BE800753D03753E1F7B007A00793D7F04020D29
:011BF8000AE2
:10138E00121BE8D2C27F64121C18C2C27F64121CE8
:10139E0018D2C2E4FD7FAE121ABFE4FDFF121ABFCF
:1013AE00E4FD7F10121ABFE4FD7F40121ABFE4FD68
:1013BE007F81121ABFE4FD7FCF121ABFE4FD7FA119
:1013CE00121ABFE4FD7FC8121ABFE4FD7FA6121ADF
:1013DE00BFE4FD7FA8121ABFE4FD7F3F121ABFE4DF
:1013EE00FD7FD3121ABFE4FDFF121ABFE4FD7FD5B5
:1013FE00121ABFE4FD7F80121ABFE4FD7FD9121AC4
:10140E00BFE4FD7FF1121ABFE4FD7FDA121ABFE4CA
:10141E00FD7F12121ABFE4FD7FDB121ABFE4FD7FBF
:10142E0040121ABFE4FD7F20121ABFE4FD7F0212A4
:10143E001ABFE4FD7F8D121ABFE4FD7F14121ABF8E
:10144E00E4FD7FA4121ABFE4FD7FA6121ABFE4FDCD
:10145E007FAF121ABFE4FD7FAF121ABF120003E472
:05146E00FDFF021B322E
:071AB800F583E493FF7D01BB
:101ABF00ED6004D2C38002C2C3C2C4E4FEC2C0EF51
:101ACF0030E704D2C18002C2C1D2C0EF25E0FF0EC1
:071ADF00BE08EAD2C4D2C325
:011AE60022DD
:101B3200AC07ED24B0FFE4FD121ABFEC54F0C4541C
:101B42000F4410FF121ABFEC540F4401FF021ABFD8
:10000300E4FCEC24B0FFE4FD121ABFE4FF121ABFB4
:100013007F10121ABFE4FB7D01E4FF121ABF0BBB72
:0600230080F50CBC08DCB6
:0100290022B4
:101BD50053070FEFC3940A500574302FFF22EF24EB
:031BE50037FF22A5
:06181D00AA07A905AF03B4
:10182300EF24E0FBC394004006EFD3947E40027B99
:101833001FEAD3947F4004E4FA0909AF02AD011211
:101843001B32E4FC75F010EBA42CF582E435F0F5C3
:1018530083E5822456F582E5833402121AB80CBC60
:1018630008E2AF02E904FD121B32E4FC75F010EB51
:10187300A42CF582E435F0F583E582245EF582E558
:0A188300833402121AB80CBC08E20C
:01188D002238
:0A199E008F5B8D5C8B5D8A5E895FB4
:1019A800E4F560AB5DAA5EA95F856082758300126D
:1019B8000C46FB601DAD5CAF5B12181D7408255BFF
:1019C800F55BD394784007E4F55B055C055C05603E
:0219D80080D1BC
:0119DA0022EA
:0A19DB00FF121BD5AB07AD55AF544A
:1019E500EB24E0FBEFD3947F4003E4FF0D121B32A1
:1019F500E4FC75F006EBA4242EF582E5F03400F541
:101A050083E5822CF582E43583121AB80CBC06E214
:011A150022AE
:0A1A16008F3E8D3F8B408A418942CC
:101A2000E4F543AB40AA41A9428543827583001285
:101A30000C46FB601BAD3FAF3E1219E57406253E18
:101A4000F53ED394784005E4F53E053F054380D349
:011A50002273
:0A1950008F548D558B568A57895825
:10195A00E4F55AE55AC3955950390554AB56AA5776
:10196A00A958855A82758300120C46C4540F12195D
:10197A00DB74062554F554AB56AA57A958855A82E2
:10198A00758300120C461219DB74092554F55405A7
:03199A005A80C0B0
:01199D002227
:0B1C32000000007F0B7EBEDEFEDFFC2A
:011C3D002284
:0E1C1800AD07AF051DEF6005121C3280F522EE
:1018F500900001120C46FFE5DE54F04FF5DE900036
:1019050002120C46C43354E0FFE5DE54DF4FF5DE2A
:10191500120C2DFFD3941F5031900003120C46FE7C
:10192500D394015025900004120C46FDD394035026
:101935001943BA80EDC43354E0FDEEC43333335458
:0B194500804D4F90FEA8F053BA7F22A7
:0B1C3E00BF010443BC802253BC7F2286
:10188E00EFD3940F4002805AE4F5BDF5BEE5BC548B
:10189E00F044404FF5BC00000000E4FDE5BC30E52F
:1018AE003D53BCDFE5DEAFBD30E50EEFFEACBEEC6A
:1018BE00FBEEF53DEBF53E8020753D008F3EE5BE1F
:1018CE00C4540FFBE53EC4F8540FC868FFE53DC491
:1018DE0054F048F53DEF4BF53EAE3DAF3E220DBD0B
:0618EE00FABA7E107F0033
:0118F40022D1
:03002B00021C7044
:041C700053BCDF3250
:101BC30042000F00004100110041001200410013C8
:011BD3000011
:0F1C0900E4F53D753E01FB7A00793DFF020D0ABF
:101B9000753D1FE4F540754101F53E753F01FB7A47
:0B1BA00000793D1218F57F01021C3E89
:061C6A00121C09021B9090
:081C5B00E490000FF0A3F02259
:091C490090000FE0FEA3E0FF2271
:10168B00EFD39400400DEF941950089000117401A2
:10169B00F08024EFD39423400DEF94415008900039
:1016AB00117402F08011EFD3944B400BEF94645004
:1016BB00069000117403F0900011E0FFB4011BA31E
:1016CB00E064027033A3E0B4032E900010E024FF1B
:1016DB00F090000FE034FFF0801EEFB4031A90007F
:1016EB0012E0B40213A3E0B4010E900010E004F07A
:1016FB00700690000FE004F0900012E0FF900011D4
:10170B00E0FE6F600A900013EFF0900012EEF022F3
:101AE7007F0812188EAD07AC06E4120B73E4FBFAFD
:101AF70079807845120A47E4FBFA79C878421209D7
:071B07003E120BAC02168B2D
:101A8500E4F543F544C3EE64809480501BC3E49FA2
:101A9500FFE49EFE742D120C73740129F9E43AFAE1
:101AA500154275430075440185424A121473EF25AA
:021AB50044FFEC
:011AB700220C
:0A1473008E458F468B478A48894951
:10147D00E546454570157430120C73AB47AA48A963
:10148D0049900001E4120C857F0122E54AD39407AF
:10149D004003754A07E54A14900000F0E4F54BE56A
:0514AD00464545603AD0
:1014B200AE45AF467C007D0A120CA78D4CE54C244C
:1014C20030FFE433FEE54B25E02401F582E43400ED
:1014D200F583EEF0A3EFF0AE45AF467C007D0A1235
:0614E2000CA78E458F46A9
:1014E800054B80C0E4FF900000E0FEEFC39E50244F
:1014F800E54B602025E024FFF582E434FFF583A363
:10150800E0AB47AA48A9498F82758300120C850F62
:10151800154B80D2AB47AA48A9498F82758300E44E
:03152800120C851D
:01152B00229D
:091C5200851E0F751004020F5EDF
:0E0F5E008F0B8E0A8D098C088B0C8A0D890E64
:100F6C00E4900016F0E510D394064003751006E4E7
:100F7C00FFFEFDFCAB0BAA0AA909A808120AE45053
:100F8C002FAB0CAA0DA90E742D120C737401250E27
:100F9C00F50EE4350DF50D9000167401F0AF0BAEA7
:100FAC000AAD09AC08120B5D8F0B8E0A8D098C08EB
:100FBC00AF0BAE0AAD09AC08120BAC900014EEF0FE
:100FCC00A3EFF0AF0BAE0AAD09AC08C004C005C06E
:100FDC0006C007900014E0FCA3E0FDE4120B73A81C
:100FEC0004A905AA06AB07D007D006D005D0041279
:100FFC0008498F0B8E0A8D098C08900014E0FEA313
:10100C00E0FFAB0CAA0DA90E850F4A1214739000C9
:10101C0017EFF0900016E02FF0EF3395E0FEEF2580
:10102C000EF50EEE350DF50DAB0CFAA90E742E1255
:10103C000C737401250EF50EE4350DF50D900016AC
:10104C00E004F0E0FFC3E50F9F14F50FD3940050BC
:10105C000122E510700CAB0CAA0DA90E120C730238
:02106C001179F8
:10106E00D204E4900017F0900017E0FD3395E0FCF9
:10107E00C3ED950F7480F86C98506EC3ED95107497
:10108E00806C985064AF0BAE0AAD09AC08E4FBFA65
:10109E007920784112093E8F0B8E0A8D098C081229
:1010AE000BAC900017E02411F8A607AF0BAE0AADFB
:1010BE0009AC08C004C005C006C007E02411F8E65C
:1010CE00FCE4120B78A804A905AA06AB07D007D03A
:1010DE0006D005D0041208498F0B8E0A8D098C0894
:1010EE00900017E004F0021075900017E0FF9000DA
:1010FE0016E02FF0AB0CAA0DA90EEF3395E08F8200
:10110E00F583E4120C85805B900017E0FFC36480CA
:10111E0094804057EF7006300403E0802C30042298
:10112E00900017E0FF2411F8E67017900016E014F7
:10113E00F0AB0CAA0DA90EEF3395E08F82F583E488
:10114E00801EC204900017E0FF2411F8E62430FE42
:10115E00AB0CAA0DA90EEFFD3395E08D82F583EE53
:0B116E00120C85900017E014F0809D2B
:05117900900016E0FFEC
:01117E00224E
:101B52004E6F7420696E746572727570746564007C
:101B6200696E746572727570746564212121210039
:071C6300E4FF121B7280F97F
:101B72008F3D30CC087BFF7A1B7952800920CC0D37
:0E1B82007BFF7A1B7962AD3DE4FF121A16223A
:10084600020C18E86480F8E933E83360110460F0BC
:10085600ED33EC337009E8FCE9FDEAFEEBFF220418
:1008660060DED3EB9FEA9EE99DE8C2E78CF0C2F713
:1008760095F0400CE8CCF8E9CDF9EACEFAEBCFFBDF
:10088600120BE385D0F05804700320D5B3E804704A
:10089600075002B2D5020C2292D5EC0460F7E4CCE4
:1008A600C0E0C398F8603B94186008400DD0E0FBA8
:1008B600020BFAE4FBFAC9FC8028E830E406E4C936
:1008C600FBE4CAFCE830E305E4C9CACBFCE85407FC
:1008D6006010F8C3E913F9EA13FAEB13FBEC13FC07
:1008E600D8F130F52FC3E49CFCEF9BFFEE9AFEEDAA
:1008F60099FDD0E0FBEF4E4D4C701222DB03020C4B
:100906001FEC2CFCEF33FFEE33FEED33FDED30E74D
:10091600EB020BFAEF2BFFEE3AFEED39FDD0E0FBD2
:1009260050130BBB0003020C22ED13FDEE13FEEF7A
:0809360013FFEC13FC020BFAA5
:10093E00EC4D6011E8497017ED33EC3304600DE4B3
:10094E00FCFFFEFD22E933E8330470F8020C1812A6
:10095E000BE358046009E4CC2481500628500902A8
:10096E000C22284003020C1FC0E0EB4A7044B980F1
:10097E0006D0E0FB020C0EEF4E701CBD8008EBFFA4
:10098E00EAFEE9FD80EBE98DF0A4FEE5F0020A2710
:10099E00E9CDF9EAFEEBFFEF89F0A4FCE5F0CE8994
:1009AE00F0A42EFFE435F0CD89F0A42DFEE435F051
:1009BE008067EF4E7005BD80D780C3EF8BF0A4AC7F
:1009CE00F0EE8BF0A42CFCE435F0F8EF8AF0A42CBA
:1009DE00E5F038FCE433CB8DF0A42CFCE5F03BF8CD
:1009EE00EE8AF0A42CFCE5F038F8E433CF89F0A4BD
:1009FE002CFCE5F038CF3400CE89F0A42FFFE5F0C3
:100A0E003EFEE433C98DF0A42EFEE5F039CD8AF01A
:100A1E00A42FFFE5F03EFEE43DFD33D0E0FB500792
:100A2E000BBB000F020C22EC2CFCEF33FFEE33FE5F
:060A3E00ED33FD020BFA8E
:100A4400020C22EC5D046005E859047003020C18E2
:100A5400120BE3580460F6EC4860F2EC7004FDFEFF
:100A6400FF22C860DB2481C85009C3986002500685
:100A7400020C1F9850CAF582E9294B4A7005AB82D3
:100A8400020C0E75F0007C1A7880C3EF9BEE9AED91
:100A940099400DC3EF9BFFEE9AFEED99FDE842F0FD
:100AA400DC23ACF0D0E0FFD0E0FED0E0FDAB822050
:100AB400E7101BEB60BAEC2CFCEF33FFEE33FEEDDA
:100AC40033FD020BFAE803F830E705C0F075F000D7
:100AD400EF2FFFEE33FEED33FD40B830E7C280AABE
:100AE40074F8CC6480CCC86480C8F58204604FC3B9
:100AF400EB9FF5F0EA9E42F0E99D42F0E89C45F058
:100B0400603C501DE5825FFFE582D313CB5BCBF4E1
:100B14002B5582FB50280ABA002409B9002008800A
:100B24001DE5825BFBE582D313CF5FCFF4C3132FA4
:100B34005582FF50090EBE00050DBD00010CC3EB2C
:100B44009FF5F0EA9E42F0E99D42F0E89C45F06092
:090B540007CC4820E701B3EC22B4
:100B5D00ED33EC33600A047003BD8004ECB2E7FCA6
:010B6D002265
:100B6E0075F020800E75F010800575F0087D007E02
:100B7E00007F003392D530D503120CFCEC334010BD
:100B8E00EF33FFEE33FEED33FDEC33FCD5F0ED220B
:0E0B9E00E5F0247EA2D513CC92E7CDCEFF2247
:100BAC00EDD2E7CD33EC3392D524814006E4FFFE41
:100BBC00FDFC22FCE4CFCECDCC24E0501174FF80A0
:100BCC00EDC3CC13CCCD13CDCE13CECF13CF04703D
:070BDC00F030D5DE020CFC35
:100BE300E9D2E7C933E833F892D5EDD2E7CD33EC58
:070BF30033FC5002B2D522D1
:100BFA00EC30E7100FBF000C0EBE00080DBD00045C
:100C0A000BEB6014A2D5EB13FCED92E7FD2274FF07
:100C1A00FCFDFEFF22E480F8A2D574FF13FC7D8060
:030C2A00E480EF74
:101727000217A7E493A3F8E493A34003F68001F21A
:1017370008DFF48029E493A3F85407240CC8C333C3
:10174700C4540F4420C8834004F456800146F6DF92
:10175700E4800B0102040810204080901BC0E47E47
:10176700019360BCA3FF543F30E509541FFEE49387
:10177700A360010ECF54C025E060A840B8E493A34E
:10178700FAE493A3F8E493A3C8C582C8CAC583CA79
:10179700F0A3C8C582C8CAC583CADFE9DEE780BE31
:011BD4000010
:100C2D00BB010689828A83E0225002E722BBFE02C5
:090C3D00E32289828A83E49322F8
:100C4600BB010CE58229F582E5833AF583E0225063
:100C560006E92582F8E622BBFE06E92582F8E222AD
:0D0C6600E58229F582E5833AF583E49322C7
:100C7300BB010689828A83F0225002F722BBFE0160
:020C8300F3225A
:100C8500F8BB010DE58229F582E5833AF583E8F0A5
:100C9500225006E92582C8F622BBFE05E92582C851
:020CA500F22239
:100CA700BC000BBE0029EF8DF084FFADF022E4CC31
:100CB700F875F008EF2FFFEE33FEEC33FCEE9DECFA
:100CC700984005FCEE9DFE0FD5F0E9E4CEFD22ED40
:100CD700F8F5F0EE8420D21CFEADF075F008EF2F8A
:100CE700FFED33FD4007985006D5F0F222C398FD7B
:050CF7000FD5F0EA2218
:0E0CFC00C3E49FFFE49EFEE49DFDE49CFC2209
:00000001FF
