:102636000000009000E5740BF0A374BEF09000E675
:0D264600E014F070F89000E5E014F070F082
:012653002264
:0C27CD00AE071FEE600512263680F522D4
:100003004C6F6164696E67202E2E2E004C6F616405
:10001300656420202020200053656E74202020205A
:100023002020200057AB0001000357AB000208005B
:10003300000000000000000C57AB000208000004A1
:06004300000000000010A7
:0A279000C1804100E9004100FE0095
:10274D0075080375091F7B007A0079087F04020F55
:01275D003447
:0628080012274D0214AF7F
:10278000E4F56275630FFB7A0079627F02020F3411
:0F27A000750903E4F508FB7A007908FF020F348E
:10275E0075080375097C7B007A007908E4FF020F87
:01276E003436
:10259E0053A23F750840750903E4750D80750C252F
:1025AE00F50BF50A750F01FB7A0079087F031213FC
:0A25BE00A97D017F01121F0AD2AFB0
:0125C80022F0
:101C55009000FEE0FE04F074EA2EF582E43400F50F
:101C650083EFF09000FEE0FF24EAF582E43400F50E
:101C750083EFF0EFD394087B017A0079EA401C7575
:101C85000D087D02E4FF121D5E7B017A0079F2905A
:101C950000FEE024F9F50D7D0380099000FEE004C7
:0A1CA500F50D7D02E4FF121D5E2222
:1017070078C27C007D017BFF7A0079277E007F0607
:10171700120CBD78C87C007D017BFF7A00792D7E95
:10172700007F0E120CBD78D67C007D017BFF7A000E
:10173700793B7E007F0E120CBDE49000E4F0122787
:101747005E1227A0755FFF75601C75615512259E97
:101757001228087BFF7A007903E4FDFF121EC9E413
:101767009000E4F07FFE1227CD9000E4E004F0E063
:10177700C3940340EF7BFF7A00790FE4FDFF121E4D
:10178700C97B017A0079C27D0612256F7BFF7A003B
:0C179700791BE4FDFF121EC9C28280FE17
:10008E000000000000000000002F0000000007002C
:10009E00070000147F147F1400242A7F2A120062A6
:1000AE006408132300364955225000000503000052
:1000BE0000001C224100000041221C000014083EDA
:1000CE0008140008083E0808000000A060000008A0
:1000DE0008080808000060600000002010080402F4
:1000EE00003E5149453E0000427F400000426151B2
:1000FE004946002141454B31001814127F1000274C
:10010E0045454539003C4A4949300001710905030E
:10011E0000364949493600064949291E000036363F
:10012E0000000000563600000008142241000014A2
:10013E00141414140000412214080002015109067F
:10014E0000324959513E007C1211127C007F494900
:10015E004936003E41414122007F4141221C007F31
:10016E0049494941007F09090901003E4149497A3F
:10017E00007F0808087F0000417F410000204041B9
:10018E003F01007F08142241007F40404040007F25
:10019E00020C027F007F0408107F003E4141413E69
:1001AE00007F09090906003E4151215E007F0919B1
:1001BE0029460046494949310001017F0101003FAE
:1001CE004040403F001F2040201F003F4038403F2E
:1001DE000063140814630007087008070061514992
:1001EE00454300007F41410000552A552A55000025
:1001FE0041417F00000402010204004040404040A3
:10020E00000001020400002054545478007F48443A
:10021E00443800384444442000384444487F003871
:10022E005454541800087E0901020018A4A4A47C9A
:10023E00007F080404780000447D40000040808464
:10024E007D00007F102844000000417F4000007CAC
:10025E0004180478007C08040478003844444438B8
:10026E0000FC242424180018242418FC007C080404
:10027E00040800485454542000043F444020003CDD
:10028E004040207C001C2040201C003C4030403C64
:10029E00004428102844001CA0A0A07C00446454F4
:1002AE004C44141414141414000000000000000038
:1002BE000000000000000000000000F80000000038
:1002CE00000000333000000000100C06100C060079
:1002DE00000000000000000040C07840C0784000E0
:1002EE00043F04043F040400007088FC0830000042
:1002FE00001820FF211E0000F008F000E01800009A
:10030E0000211C031E211E0000F008887000000052
:10031E001E2123241927211010160E0000000000A4
:10032E000000000000000000000000E018040200C1
:10033E00000000071820400000020418E000000032
:10034E000040201807000000404080F08040400030
:10035E000202010F01020200000000F00000000086
:10036E000101011F0101010000000000000000005A
:10037E0080B07000000000000000000000000000CF
:10038E000001010101010101000000000000000058
:10039E0000303000000000000000000080601804F3
:1003AE00006018060100000000E010080810E000D0
:1003BE00000F102020100F00001010F80000000099
:1003CE000020203F202000000070080808887000E0
:1003DE000030282422213000003008888848300060
:1003EE000018202020110E000000C02010F8000080
:1003FE0000070424243F240000F808888808080019
:10040E000019212020110E0000E01088881800002D
:10041E00000F112020110E0000380808C8380800FF
:10042E000000003F0000000000708808088870007F
:10043E00001C222121221C0000E010080810E00000
:10044E000000312222110F00000000C0C000000089
:10045E0000000030300000000000008000000000AE
:10046E0000008060000000000000804020100800A6
:10047E00000102040810200040404040404040006F
:10048E00040404040404040000081020408000004A
:10049E000020100804020100007048080808F0004F
:1004AE000000003036010000C030C828E810E0001F
:1004BE000718272423140B000000C038E0000000AA
:1004CE00203C23020227382008F888888870000014
:1004DE00203F202020110E00C030080808083800E8
:1004EE00071820202010080008F808080810E0005F
:1004FE00203F202020100F0008F88888E808100000
:10050E00203F20202320180008F88888E8081000D3
:10051E00203F200003000000C0300808083800000B
:10052E0007182020221E020008F808000008F8080C
:10053E00203F210101213F20000808F80808000093
:10054E000020203F2020000000000808F8080800C6
:10055E00C08080807F00000008F888C0281808003E
:10056E00203F20012638200008F808000000000077
:10057E00203F20202020300008F8F800F8F808006E
:10058E00203F003F003F200008F830C00008F80868
:10059E00203F200007183F00E01008080810E00078
:1005AE000F10202020100F0008F808080808F0008F
:1005BE00203F210101010000E01008080810E000B2
:1005CE000F18242438504F0008F888888888700047
:1005DE00203F2000030C30200070880808083800E7
:1005EE000038202121221C00180808F808081800DD
:1005FE000000203F2000000008F808000008F8085E
:10060E00001F202020201F000878880000C838080E
:10061E00000007380E010000F80800F80008F80086
:10062E00033C0700073C0300081868808068180820
:10063E0020302C03032C30200838C800C83808009E
:10064E000000203F2000000010080808C8380800ED
:10065E002038262120201800000000FE0202020091
:10066E000000007F40404000000C30C00000000041
:10067E00000000010638C00000020202FE00000069
:10068E00004040407F00000000000402020204000F
:10069E00000000000000000000000000000000004C
:1006AE008080808080808080000202040000000034
:1006BE00000000000000000000008080808000002C
:1006CE000019242222223F2008F80080800000001A
:1006DE00003F112020110E000000008080800000DD
:1006EE00000E112020201100000000808088F800EC
:1006FE00000E112020103F2000008080808000001E
:10070E00001F222222221300008080F08888881881
:10071E000020203F2020000000008080808080008C
:10072E00006B94949493600008F800808080000021
:10073E00203F210000203F200080989800000000FC
:10074E000020203F2020000000000080989800002C
:10075E0000C08080807F000008F80000808080004C
:10076E00203F24022D302000000808F80000000071
:10077E000020203F2020000080808080808080002C
:10078E00203F20003F20003F8080008080800000BE
:10079E00203F210000203F2000008080808000004C
:1007AE00001F202020201F0080800080800000007D
:1007BE0080FFA12020110E000000008080808000AC
:1007CE00000E112020A0FF8080808000808080009D
:1007DE0020203F21200001000000808080808000CA
:1007EE000033242424241900008080E0808000003F
:1007FE000000001F2020000080800000008080008C
:10080E00001F202020103F208080800000808080EC
:10081E0000010E300806010080800080008080807C
:10082E000F300C030C300F000080800080808000A1
:10083E000020312E0E3120008080800000808080CC
:10084E0080818E701806010000808080808080007C
:10085E000021302C2221300000000000807C02029A
:10086E0000000000003F404000000000FF000000BC
:10087E0000000000FF0000000002027C800000006B
:10088E000040403F00000000000601010202040487
:08089E00000000000000000052
:1014AF00D2C27F641227CDC2C27F641227CDD2C2AF
:1014BF00E4FD7FAE12238FE4FDFF12238FE4FD7F47
:1014CF001012238FE4FD7F4012238FE4FD7F8112E2
:1014DF00238FE4FD7FCF12238FE4FD7FA112238F93
:1014EF00E4FD7FC812238FE4FD7FA612238FE4FD56
:1014FF007FA812238FE4FD7F3F12238FE4FD7FD35C
:10150F0012238FE4FDFF12238FE4FD7FD512238F6B
:10151F00E4FD7F8012238FE4FD7FD912238FE4FD3A
:10152F007FF112238FE4FD7FDA12238FE4FD7F1208
:10153F0012238FE4FD7FDB12238FE4FD7F40122304
:10154F008FE4FD7F2012238FE4FD7F0212238FE4AF
:10155F00FD7F8D12238FE4FD7F1412238FE4FD7F17
:10156F00A412238FE4FD7FA612238FE4FD7FAF1219
:10157F00238FE4FD7FAF12238F121E86E4FDFF023F
:02158F0026161E
:07238800F583E493FF7D01E2
:10238F00ED6004D2C18002C2C1C2C0E49000E8F087
:10239F00C2C4EF30E704D2C38002C2C3D2C4EF2558
:1023AF00E0FF9000E8E004F0E0B408E4D2C0D2C14E
:0123BF0022FB
:10261600AE07ED24B0FFE4FD12238FEE54F0C45450
:102626000F4410FF12238FEE540F4401FF02238F35
:101E8600E49000E5F09000E5E0FFC394085033EFDE
:101E960024B0FFE4FD12238FE4FF12238F7F10127C
:101EA600238FE49000E6F07D01E4FF12238F90007B
:101EB600E6E004F0E0C3948040ED9000E5E004F035
:021EC60080C3D7
:011EC80022F7
:1027020053070FEFC3940A500574302FFF22EF24B2
:0327120037FF226C
:04166900AC07AA051B
:10166D00EB24E090012DF0C394004006EBD3947E63
:10167D00400690012D741FF0ECD3947F4004E4FCE0
:10168D000A0AAF04AD02122616E490012EF0900165
:10169D002EE0FFC39408502590012DE075F010A4A5
:1016AD002FF582E435F0F583E58224B6F582E583E6
:1016BD00340212238890012EE004F080D1AF04EAA9
:1016CD0004FD122616E490012EF090012EE0FFC3CA
:1016DD009408502590012DE075F010A42FF582E4AB
:1016ED0035F0F583E58224BEF582E58334021223BD
:0916FD008890012EE004F080D178
:0117060022C0
:0A1DFB008F448D458B468A478948C6
:101E0500E4900135F0AB46AA47A948900135E0F5C5
:101E150082758300120CFCFB6021AD45AF441216A0
:101E25006974082544F544D394784007E4F54405DE
:0B1E3500450545900135E004F080CA2F
:011E4000227F
:0A1D0800FF122702AB07AF04AD097C
:021D1200AE071A
:101D1400EB24E09000E6F0EED3947F4003E4FE0D64
:101D2400AF06122616E49000E7F09000E7E0FFC348
:101D3400940650259000E6E075F006A4248EF58202
:101D4400E5F03400F583E5822FF582E43583122330
:091D5400889000E7E004F080D162
:011D5D002263
:0A1EC9008D088B098A0A890BAC070B
:101ED300E49000E5F0AB09AA0AA90B9000E5E0F550
:101EE30082758300120CFCFB601CAF04AD08121D4D
:101EF3001274062CFCD394784004E4FC050890008B
:061F0300E5E004F080CFD0
:011F090022B5
:0A1D5E008D098B0A8A0B890CAC0773
:101D6800E49000E5F09000E5E0FFC3950D503A0CD3
:101D7800AB0AAA0BA90C8F82758300120CFCC45401
:101D88000F121D0874062CFCAB0AAA0BA90C9000B4
:101D9800E5E0F582758300120CFC121D0874092C0D
:091DA800FC9000E5E004F080BCB1
:011DB100220F
:100F3400EFD3940740037FFF22120CE3FED3940304
:100F440040037FFF22EF7041EE700B900001120C02
:100F5400FCF452935294120CE3B4010B900001126E
:100F64000CFC4293F45294120CE3FEB4020A900077
:100F740001120CFC42934294EEB4030D9000011252
:100F84000CFCFEF45293EE4294EF64017043120C95
:100F9400E3FE700B900001120CFCF452915292EE9D
:100FA400B4010B900001120CFC4291F45292120C09
:100FB400E3B4020A900001120CFC42914292120C1A
:100FC400E3B4030D900001120CFCFEF45291EE42C6
:100FD40092EF64027043120CE3FE700B9000011256
:100FE4000CFCF452955296EEB4010B900001120CD5
:100FF400FC4295F45296120CE3B4020A90000112DA
:101004000CFC42954296120CE3B4030D90000112BD
:101014000CFCFEF45295EE4296EF64037043120CFE
:10102400E3FE700B900001120CFCF452B152B2EECC
:10103400B4010B900001120CFC42B1F452B2120C38
:10104400E3B4020A900001120CFC42B142B2120C49
:10105400E3B4030D900001120CFCFEF452B1EE4215
:10106400B2EF64047043120CE3FE700B90000112A3
:101074000CFCF452B352B4EEB4010B900001120C08
:10108400FC42B3F452B4120CE3B4020A900001120D
:101094000CFC42B342B4120CE3B4030D90000112F1
:1010A4000CFCFEF452B3EE42B4EF64057043120C30
:1010B400E3FE700B900001120CFCF452C952CAEE0C
:1010C400B4010B900001120CFC42C9F452CA120C78
:1010D400E3B4020A900001120CFC42C942CA120C89
:1010E400E3B4030D900001120CFCFEF452C9EE426D
:1010F400CAEF64067043120CE3FE700B90000112F9
:101104000CFCF452CB52CCEEB4010B900001120C47
:10111400FC42CBF452CC120CE3B4020A900001124C
:101124000CFC42CB42CC120CE3B4030D9000011230
:101134000CFCFEF452CBEE42CCEF64077043120C6D
:10114400E3FF700B900001120CFCF452E152E2EF49
:10115400B4010B900001120CFC42E1F452E2120CB7
:10116400E3B4020A900001120CFC42E142E2120CC8
:10117400E3B4030D900001120CFCFFF452E1EF42C2
:04118400E27F0022E4
:1023C000EFD394015009EF7004C2A98002D2A9EDA5
:1023D000D394035020ED700553B7FDC2B9BD01057C
:1023E00053B7FDD2B9BD020543B702C2B9BD03055B
:0823F00043B702D2B97F0022BD
:1023F800EFD394015009EF7004C2AB8002D2ABED69
:10240800D394035020ED700553B7F7C2BBBD010547
:1024180053B7F7D2BBBD020543B708C2BBBD03051E
:0824280043B708D2BB7F00227C
:10268200EFD39401500DEF25E025E0FFE5AF54FBB9
:062692004FF5AFE4FF224A
:10269800EFD39401500DEFC43354E0FFE5AF54DF9E
:0626A8004FF5AFE4FF2234
:10265400EFD39401500EEFC4333354C0FFE5AF54AD
:07266400BF4FF5AFE4FF22B8
:10243000EFD394015009EF7004C2A88002D2A8ED36
:10244000D394035020ED700553B7FEC2B8BD01050B
:1024500053B7FED2B8BD020543B701C2B8BD0305EC
:0824600043B701D2B87F00224E
:10246800EFD394015009EF7004C2AA8002D2AAEDFA
:10247800D394035020ED700553B7FBC2BABD0105D4
:1024880053B7FBD2BABD020543B704C2BABD0305B0
:0824980043B704D2BA7F002211
:1026C400EFD39401500CEFC454F0FFE58F54EF4F57
:0526D400F58FE4FF2278
:1026AE00EFD39401500DEFC43354E0FFE58F54DFA8
:0626BE004FF58FE4FF223E
:10266B00EFD39401500EEFC4333354C0FFE58F54B6
:07267B00BF4FF58FE4FF22C1
:1024A000EFD394015009EF7004C2AD8002D2ADEDBC
:1024B000D394035020ED700553B7DFC2BDBD0105B5
:1024C00053B7DFD2BDBD020543B720C2BDBD030572
:0824D00043B720D2BD7F0022BA
:101E4100EF30E10543E620800353E6DFEF30E005A4
:101E510043E610800353E6EFEDD394035024ED7075
:101E61000653B6DF53B5DFBD010653B6DF43B520D8
:101E7100BD020643B62053B5DFBD030643B620437A
:051E8100B5207F0022E6
:101CAF00EFD3940140037FFF2243BA80BF0112EDAF
:101CBF0090FE817006E0547FF08011E04480F08048
:101CCF000BEF700890FE83E054874DF0EBD3940335
:101CDF005024EB700653B6DF53B5DFBB010653B686
:101CEF00DF43B520BB020643B62053B5DFBB030667
:091CFF0043B62043B5207F00220A
:1024D800EFD394015009EF7004C2AC8002D2ACED86
:1024E800D394035020ED700553B7EFC2BCBD01056E
:1024F80053B7EFD2BCBD020543B710C2BCBD03053C
:0825080043B710D2BC7F002292
:10231400EFD394015007E5AF54FE4FF5AFEDD394DE
:10232400035024ED700653B6FE53B5FEBD010653AB
:10233400B6FE43B501BD020643B60153B5FEBD0367
:0A2344000643B60143B5017F0022F5
:101F0A00EFD39401500EEF33333354F8FFE5AF5457
:101F1A00F74FF5AFEDD394035024ED700653EEFE60
:101F2A0053DFFEBD010653EEFE43DF01BD02064349
:101F3A00EE0153DFFEBD030643EE0143DF017F00DE
:011F4A002274
:101F8C00EFD39401500CEFC454F0FFE5AF54EF4F76
:101F9C00F5AFEDD394035024ED700653EEFD53DFF3
:101FAC00FDBD010653EEFD43DF02BD020643EE020A
:0F1FBC0053DFFDBD030643EE0243DF027F002229
:101FCB00EFD39401500BEF25E0FFE5AF54FD4FF538
:101FDB00AFEDD394035024ED700653B6FD53B5FD0E
:101FEB00BD010653B6FD43B502BD020643B602530F
:0E1FFB00B5FDBD030643B60243B5027F0022CA
:101B9C00EBD394035020EB700553B77FC2BFBB014E
:101BAC000553B77FD2BFBB020543B780C2BFBB038F
:101BBC000543B780D2BFEF14601114601214601388
:101BCC0014601D240470248DDA80208DDB801C8D24
:101BDC00DC801843BA8090FD54EDF053BA7F800B33
:0E1BEC00ED5401FFE5D954FE4FF5D97F0022DC
:10004E0043BA8090FA10E054F0F0EDD39403500BC5
:10005E00E0FEED25E025E0FDEE4DF0EBD3940350F0
:10006E000690FA10E04BF090FA10E0BF01054480C4
:0C007E00F08003547FF053BA7F7F002213
:1020090043BA8090FA00E054F0F0EDD39403500BFA
:10201900E0FEED25E025E0FDEE4DF0EBD394035015
:102029000690FA00E04BF090FA00E0BF0105448009
:0C203900F08003547FF053BA7F7F002238
:1020450043BA8090FA20E054F0F0EDD39403500B9E
:10205500E0FEED25E025E0FDEE4DF0EBD3940350D9
:102065000690FA20E04BF090FA20E0BF010544808D
:0C207500F08003547FF053BA7F7F0022FC
:1020810043BA8090FA30E054F0F0EDD39403500B52
:10209100E0FEED25E025E0FDEE4DF0EBD39403509D
:1020A1000690FA30E04BF090FA30E0BF0105448031
:0C20B100F08003547FF053BA7F7F0022C0
:1020BD0043BA8090FA38E054F0F0EDD39403500B0E
:1020CD00E0FEED25E025E0FDEE4DF0EBD394035061
:1020DD000690FA38E04BF090FA38E0BF01054480E5
:0C20ED00F08003547FF053BA7F7F002284
:1020F90043BA8090FA40E054F0F0EDD39403500BCA
:10210900E0FEED25E025E0FDEE4DF0EBD394035024
:102119000690FA40E04BF090FA40E0BF0105448098
:0C212900F08003547FF053BA7F7F002247
:1021350043BA8090FA48E054F0F0EDD39403500B85
:10214500E0FEED25E025E0FDEE4DF0EBD3940350E8
:102155000690FA48E04BF090FA48E0BF010544804C
:0C216500F08003547FF053BA7F7F00220B
:1021710043BA8090FA50E054F0F0EDD39403500B41
:10218100E0FEED25E025E0FDEE4DF0EBD3940350AC
:102191000690FA50E04BF090FA50E0BF0105448000
:0C21A100F08003547FF053BA7F7F0022CF
:1021AD0043BA8090FA58E054F0F0EDD39403500BFD
:1021BD00E0FEED25E025E0FDEE4DF0EBD394035070
:1021CD000690FA58E04BF090FA58E0BF01054480B4
:0C21DD00F08003547FF053BA7F7F002293
:1021E90043BA8090FA60E054F0F0EDD39403500BB9
:1021F900E0FEED25E025E0FDEE4DF0EBD394035034
:102209000690FA60E04BF090FA60E0BF0105448067
:0C221900F08003547FF053BA7F7F002256
:1022250043BA8090FA68E054F0F0EDD39403500B74
:10223500E0FEED25E025E0FDEE4DF0EBD3940350F7
:102245000690FA68E04BF090FA68E0BF010544801B
:0C225500F08003547FF053BA7F7F00221A
:1022610043BA8090FA70E054F0F0EDD39403500B30
:10227100E0FEED25E025E0FDEE4DF0EBD3940350BB
:102281000690FA70E04BF090FA70E0BF01054480CF
:0C229100F08003547FF053BA7F7F0022DE
:1025400043BA8090FE50E054CFF0EDD39403500A8C
:10255000E0FEEDC454F0FDEE4DF090FE50E0BF0102
:0F256000054480F08003547FF053BA7F7F002240
:10194400900001120CFCB4010553CE7F800343CEFA
:1019540080120CE3C4333354C0FFE5CE54BF4FF5BB
:10196400CE900002120CFCC43354E0FFE5CE54DFE9
:101974004FF5CE900003120CFCC454F0FFE5CE5496
:10198400EF4FF5CE900004120CFC33333354F8FFC0
:10199400E5CE54F74FF5CE900005120CFC25E0255A
:1019A400E0FFE5CE54FB4FF5CE900006120CFCFF91
:0F19B400E5CE54FC4FF5CEE4900000F0C20122C6
:10276F00EF700753CEEF53CE7F2243CE1043CE8070
:01277F002237
:082800008FCFD2012001FD225F
:03004B00021DB2E1
:101DB200C0E0C083C082C0D075D000C007E5CE307D
:101DC200E404C2018025900136E0C394804002E41D
:101DD200F0900136E0FF04F074012FF582E4340044
:101DE200F583E5CFF09000007405F075CDC0D00703
:091DF200D0D0D082D083D0E032C1
:101BFA00900001120CFCFFE5DE54F04FF5DE900078
:101C0A0002120CFCC43354E0FFE5DE54DF4FF5DE6C
:101C1A00120CE3FFD3941F5031900003120CFCFE08
:101C2A00D394015025900004120CFCFDD394035068
:101C3A001943BA80EDC43354E0FDEEC43333335450
:0B1C4A00804D4F90FEA8F053BA7F229F
:0B27D900BF010443BC802253BC7F22E0
:101ABC00EFD3940F4002806BE4F5BDF5BEE5BC544A
:101ACC00F044404FF5BC00000000E4900126F0E526
:101ADC00BC30E54553BCDFE5DEAFBD30E50BEFFFB9
:101AEC00ADBEED900124CF8023900124E4F0A3EF50
:101AFC00F0E5BEC4540FFDE0C4F8540FC868FF9065
:101B0C000124E0C454F048FEEF4DFFEEF0A3EFF0DB
:101B1C00900124E0FEA3E0FF22900126E004F0E017
:071B2C00B4FAAC7E107F004B
:011B3300228F
:10234E00E490012FF0A3F0C3EE64809480501DC37F
:10235E00E49FFFE49EFE742D120D29740129F9E409
:10236E003AFA154390012FE4F0A304F08543351299
:09237E00159190012FA3E02FFF3F
:012387002233
:0A1591008E308F318B328A3389349B
:10159B00E531453070157430120D29AB32AA33A9E1
:1015AB0034900001E4120D3B7F0122E535D3940703
:1015BB004003753507E535149000FFF0E490010EFC
:0715CB00F0E53145306040FE
:1015D200AE30AF317C007D0A120D5D8D36E53624CA
:1015E20030FFE433FE90010EE025E02400F582E4B2
:1015F2003401F583EEF0A3EFF0AE30AF317C007D25
:081602000A120D5D8E308F31DC
:10160A0090010EE004F080BAE490010FF09000FF20
:10161A00E0FF90010FE0FEC39F502F90010EE060A3
:10162A002925E024FEF582E43400F583A3E0AB32F9
:10163A00AA33A9348E82758300120D3B90010FE004
:10164A0004F090010EE014F080C3AB32AA33A9343F
:0E165A0090010FE0FFF582758300E4120D3B56
:01166800225F
:0927EE00851F28752904021188D9
:0E1188008F248E238D228C218B258A26892789
:10119600E4900122F0E529D394064003752906E47C
:1011A600FFFEFDFCAB24AA23A922A821120AA45003
:1011B6002FAB25AA26A927742D120D2974012527E0
:1011C600F527E43526F5269001227401F0AF24AE0A
:1011D60023AD22AC21120B1D8F248E238D228C2150
:1011E600AF24AE23AD22AC21120B6C900120EEF0A1
:1011F600A3EFF0AF24AE23AD22AC21C004C005C0DE
:1012060006C007900120E0FCA3E0FDE4120B33A822
:1012160004A905AA06AB07D007D006D005D004124C
:1012260008A98F248E238D228C21900120E0FEA315
:10123600E0FFAB25AA26A92785283512159190012E
:1012460023EFF0900122E02FF0EF3395E0FEEF253B
:1012560027F527EE3526F526AB25FAA927742E1293
:101266000D2974012527F527E43526F52690012258
:10127600E004F0E0FFC3E5289F14F528D39400505E
:101286000122E529700CAB25AA26A927120D2902F1
:0212960013A3A0
:10129800D202E4900123F0900123E0FD3395E0FCB5
:1012A800C3ED95287480F86C98506EC3ED95297439
:1012B800806C985064AF24AE23AD22AC21E4FBFAD5
:1012C8007920784112099E8F248E238D228C211239
:1012D8000B6C900123E0242AF8A607AF24AE23ADB7
:1012E80022AC21C004C005C006C007E0242AF8E6E5
:1012F800FCE4120B38A804A905AA06AB07D007D04E
:1013080006D005D0041208A98F248E238D228C21A3
:10131800900123E004F002129F900123E0FF900166
:1013280022E02FF0AB25AA26A927EF3395E08F827C
:10133800F583E4120D3B805B900123E0FFC36480DA
:1013480094804057EF7006300203E0802C30022270
:10135800900123E0FF242AF8E67017900122E01498
:10136800F0AB25AA26A927EF3395E08F82F583E411
:10137800801EC202900123E0FF242AF8E62430FEF2
:10138800AB25AA26A927EFFD3395E08D82F583EEDC
:0B139800120D3B900123E014F0809D3B
:0513A300900122E0FFB3
:0113A8002222
:0F27BE00A5A5A5A5A5000000000034431010013B
:1026EE00E4900131F0A374CFF07B017A0179317F50
:0426FE0001020F3492
:0927F700D290C290D297D2912237
:1017A300C2039001107405F078117C017D017BFF69
:1017B3007A2779BE7E00FF120CBD78167C017D016D
:1017C3007BFF7A2779C37E007F05120CBD90011041
:0717D300E0FF14F0EF60528B
:1017DA007B017A017911754D057F101222D97B019F
:1017EA007A0179167552057F1012229DE4F5647408
:1017FA00162564F582E43401F583E0FF741125644B
:10180A00F582E43401F583E0B507070564E564B4BD
:10181A0005DDE564B40504D20380077FF41227CD01
:04182A0080A4A203F1
:01182E002297
:0622D9008B4A8A4B894C80
:1022DF00C291EF4420FF121F4BE4900137F09001A1
:1022EF0037E0FFC3954D501AAB4AAA4BA94C8F82CA
:1022FF00758300120CFCFF121F4B900137E004F0A6
:04230F0080DCD2910B
:0123130022A7
:06229D008B4F8A508951AD
:1022A300C291121F4BE4900138F0900138E0C395BE
:1022B3005250207FFF121F4BAB4FAA50A9519001E0
:1022C30038E0F582758300EF120D3B900138E0048E
:0522D300F080D7D2915C
:0122D80022E3
:101A4000781B7C017D017BFF7A2779C87E007F05AA
:101A5000120CBDD2907F701225C97D017F1C122708
:101A6000157D077F1D1227157F1C12273B7F1D1236
:101A7000273B7D0AE4FF1227157D017F0112271500
:101A80007D017F021227157D037F031227157DFF3D
:101A90007F041227157D3C7F051227157D267F06C2
:101AA0001227157B017A01791B7D051226D97B014E
:0C1AB0007A01791B755705E4FF0225F14F
:0225C9008F651C
:1025CB00E4900139F05365701227AF900139EFF0A9
:1025DB00C2917F27121F4B900139E04565FF121FF7
:0625EB004BD2910227AF64
:0E27AF00C2917F07121F4B90013AEFF0D291BA
:0127BD0022F9
:102715008D66C291EF4420FF121F4BAF66121F4B0F
:03272500D291222C
:10273B00C291121F4B7FFF121F4B90013BEFF0D248
:01274B0091FC
:01274C00226A
:1026D900EDD3940540047F058002AF05AD078D4D0C
:0526E9007F100222D960
:1025F100E557D3940540047E058002AE578E57EF10
:10260100D3940540047E058002AE07EE240AFF85BF
:05261100574D0222D923
:022510008F67D3
:10251200E490013CF0FF12273B90013CEFF0E567AD
:102522007006E054FEF0800CE567B4010790013CB0
:0E253200E04401F090013CE0FDE4FF022715BB
:0818BB008B588A59895A8D5B94
:1018C300E4900127F0A3F0A3F0C2917FE1121F4B34
:1018D300D291C290AB58AA59A95A855B4D7FA012E9
:1018E30022D9D2902097047F0080027F01EF6023EA
:1018F3007F011227CD900128E475F001120DB2AFDC
:10190300F0FEBE01DFBFF4DC1227F7121A40E4FF3A
:101913001225107F0712273B900127EFF0FD7F0769
:10192300122715900127E030E40A7DFF7FE112279B
:10193300157F1022900127E030E5037F20227FFFEF
:011943002281
:0619C3008B5C8A5D895E69
:1019C900E490012AF0A3F0A3F0C2917FE2121F4B29
:1019D900D2912097047F0080027F01EF601B7F6412
:1019E9001227CD90012CE0FF04F0EFB41EE412277A
:1019F900F7121A407F011225107F0712273B900129
:101A09002AEFF0FD7F0712271590012AE030E6241E
:101A19007F6012273B90012BEFF0AB5CAA5DA95EBA
:101A2900F5527F6112229D7DFF7FE21227159001F9
:061A39002BE0FF227F00FC
:011A3F002284
:021F4B00AD07E0
:101F4D00E4900133F0A3F0C292900133F0ED30E74D
:101F5D0004D2938002C293ED25E0FDD29200900150
:101F6D0034E025E0F0309604E04401F0C292009098
:0E1F7D000133E004F0E0B408D4900134E0FF3A
:011F8B002233
:0613A9008B118A1289136A
:1013AF00EF640360030214AC753703F538F539F5B4
:1013BF003AF53BF53CF53D7F209000A1E4F0A3DF2B
:1013CF00FC7F20900081E4F0A3DFFCAB11AA12A9EF
:1013DF0013120CE3FF64C06008EF64406003021453
:1013EF0095EFB4C00543AC80800353AC7F900002EF
:1013FF00120EC87FE07E707D727C00120E048F1774
:10140F008E168D158C14E4FFFE7D01FCAB17AA160A
:10141F00A915A814C3120EA440037FFF22C3E4959D
:10142F0017F517E49516F51674019515F515E4954E
:10143F0014F514AB11AA12A913900001120CFC643D
:10144F00027026538EEF53ACBF538EF7438E04AF0B
:10145F0017AE16AD15AC147808120EB58FD68517CA
:10146F00D753AFFB438E10802043AC40AF17AE165F
:10147F00AD15AC147808120EB58FD48517D553D18E
:10148F00F043D10A80037FFF22900007120CFCC4A7
:0F149F0054F0FFE5AC54EF4FF5AC7F00227FFF18
:0114AE00221B
:0A27E4008FAD753A01E53A70FC2252
:06256F008B088A09890AAD
:10257500E49000E5F09000E5E0FFC39D501AAB083C
:10258500AA09A90A8F82758300120CFCFF1227E4A1
:082595009000E5E004F080DD98
:01259D00221B
:10272800120CE3FF600C1227E4740129F9E43AFA69
:0327380080EE220E
:05280E00AE070227E403
:05279A00035F000000D8
:03008B00021B3421
:101B3400C0E0C0F0C083C082C0D075D000C000C077
:101B440001C002C003C004C005C006C007E5AC3034
:021B5400E0208F
:101B560053ACFE9000C1E5ADF0AB5FAA60A961AEE3
:101B660002AF01EF4E6009E0FF89828A83120EFC04
:101B7600E5AC30E10653ACFD753A00D007D006D08F
:101B860005D004D003D002D001D000D0D0D082D06E
:061B960083D0F0D0E03224
:1008A600020BD8E86480F8E933E83360110460F09D
:1008B600ED33EC337009E8FCE9FDEAFEEBFF2204B8
:1008C60060DED3EB9FEA9EE99DE8C2E78CF0C2F7B3
:1008D60095F0400CE8CCF8E9CDF9EACEFAEBCFFB7F
:1008E600120BA385D0F05804700320D5B3E804702A
:1008F600075002B2D5020BE292D5EC0460F7E4CCC5
:10090600C0E0C398F8603B94186008400DD0E0FB47
:10091600020BBAE4FBFAC9FC8028E830E406E4C915
:10092600FBE4CAFCE830E305E4C9CACBFCE854079B
:100936006010F8C3E913F9EA13FAEB13FBEC13FCA6
:10094600D8F130F52FC3E49CFCEF9BFFEE9AFEED49
:1009560099FDD0E0FBEF4E4D4C701222DB03020BEB
:10096600DFEC2CFCEF33FFEE33FEED33FDED30E72D
:10097600EB020BBAEF2BFFEE3AFEED39FDD0E0FBB2
:1009860050130BBB0003020BE2ED13FDEE13FEEF5B
:0809960013FFEC13FC020BBA85
:10099E00EC4D6011E8497017ED33EC3304600DE453
:1009AE00FCFFFEFD22E933E8330470F8020BD81287
:1009BE000BA358046009E4CC248150062850090288
:1009CE000BE2284003020BDFC0E0EB4A7044B98013
:1009DE0006D0E0FB020BCEEF4E701CBD8008EBFF85
:1009EE00EAFEE9FD80EBE98DF0A4FEE5F0020A8750
:1009FE00E9CDF9EAFEEBFFEF89F0A4FCE5F0CE8934
:100A0E00F0A42EFFE435F0CD89F0A42DFEE435F0F0
:100A1E008067EF4E7005BD80D780C3EF8BF0A4AC1E
:100A2E00F0EE8BF0A42CFCE435F0F8EF8AF0A42C59
:100A3E00E5F038FCE433CB8DF0A42CFCE5F03BF86C
:100A4E00EE8AF0A42CFCE5F038F8E433CF89F0A45C
:100A5E002CFCE5F038CF3400CE89F0A42FFFE5F062
:100A6E003EFEE433C98DF0A42EFEE5F039CD8AF0BA
:100A7E00A42FFFE5F03EFEE43DFD33D0E0FB500732
:100A8E000BBB000F020BE2EC2CFCEF33FFEE33FE40
:060A9E00ED33FD020BBA6E
:100AA40074F8CC6480CCC86480C8F58204604FC3F9
:100AB400EB9FF5F0EA9E42F0E99D42F0E89C45F098
:100AC400603C501DE5825FFFE582D313CB5BCBF422
:100AD4002B5582FB50280ABA002409B9002008804B
:100AE4001DE5825BFBE582D313CF5FCFF4C3132FE5
:100AF4005582FF50090EBE00050DBD00010CC3EB6D
:100B04009FF5F0EA9E42F0E99D42F0E89C45F060D2
:090B140007CC4820E701B3EC22F4
:100B1D00ED33EC33600A047003BD8004ECB2E7FCE6
:010B2D0022A5
:100B2E0075F020800E75F010800575F0087D007E42
:100B3E00007F003392D530D503120E96EC33401061
:100B4E00EF33FFEE33FEED33FDEC33FCD5F0ED224B
:0E0B5E00E5F0247EA2D513CC92E7CDCEFF2287
:100B6C00EDD2E7CD33EC3392D524814006E4FFFE81
:100B7C00FDFC22FCE4CFCECDCC24E0501174FF80E0
:100B8C00EDC3CC13CCCD13CDCE13CECF13CF04707D
:070B9C00F030D5DE020E96D9
:100BA300E9D2E7C933E833F892D5EDD2E7CD33EC98
:070BB30033FC5002B2D52211
:100BBA00EC30E7100FBF000C0EBE00080DBD00049C
:100BCA000BEB6014A2D5EB13FCED92E7FD2274FF48
:100BDA00FCFDFEFF22E480F8A2D574FF13FC7D80A1
:030BEA00E480EFB5
:0300000002182FB4
:0C182F00787FE4F6D8FD7581670218761A
:100BED00E709F608DFFA8046E709F208DFFA803EEA
:100BFD0088828C83E709F0A3DFFA8032E309F608D7
:100C0D00DFFA8078E309F208DFFA807088828C833E
:100C1D00E309F0A3DFFA806489828A83E0A3F608F2
:100C2D00DFFA805889828A83E0A3F208DFFA804CCC
:100C3D0080D280FA80C680D4806980F280338010A3
:100C4D0080A680EA809A80A880DA80E280CA80330C
:100C5D0089828A83ECFAE493A3C8C582C8CCC58384
:100C6D00CCF0A3C8C582C8CCC583CCDFE9DEE78054
:100C7D000D89828A83E493A3F608DFF9ECFAA9F0D3
:100C8D00EDFB2289828A83ECFAE0A3C8C582C8CC29
:100C9D00C583CCF0A3C8C582C8CCC583CCDFEADE42
:100CAD00E880DB89828A83E493A3F208DFF980CCA4
:100CBD0088F0EF60010E4E60C388F0ED2402B4049D
:100CCD000050B9F582EB2402B4040050AF23234544
:060CDD008223900C3D7320
:100CE300BB010689828A83E0225002E722BBFE020F
:090CF300E32289828A83E4932242
:100CFC00BB010CE58229F582E5833AF583E02250AD
:100D0C0006E92582F8E622BBFE06E92582F8E222F6
:0D0D1C00E58229F582E5833AF583E4932210
:100D2900BB010689828A83F0225002F722BBFE01A9
:020D3900F322A3
:100D3B00F8BB010DE58229F582E5833AF583E8F0EE
:100D4B00225006E92582C8F622BBFE05E92582C89A
:020D5B00F22282
:100D5D00BC000BBE0029EF8DF084FFADF022E4CC7A
:100D6D00F875F008EF2FFFEE33FEEC33FCEE9DEC43
:100D7D00984005FCEE9DFE0FD5F0E9E4CEFD22ED89
:100D8D00F8F5F0EE8420D21CFEADF075F008EF2FD3
:100D9D00FFED33FD4007985006D5F0F222C398FDC4
:050DAD000FD5F0EA2261
:100DB200A3F8E0C5F025F0F0E582158270021583F4
:060DC200E0C838F0E82251
:100DC80075F008758200EF2FFFEE33FECD33CDCCE2
:100DD80033CCC58233C5829BED9AEC99E582984065
:100DE8000CF582EE9BFEED9AFDEC99FC0FD5F0D642
:100DF800E4CEFBE4CDFAE4CCF9A88222B800C1B96C
:100E08000059BA002DEC8BF084CFCECDFCE5F0CBA9
:100E1800F97818EF2FFFEE33FEED33FDEC33FCEBE2
:100E280033FB10D703994004EB99FB0FD8E5E4F99D
:100E3800FA227818EF2FFFEE33FEED33FDEC33FC8A
:100E4800C933C910D7059BE99A4007EC9BFCE99A7E
:100E5800F90FD8E0E4C9FAE4CCFB2275F010EF2FC3
:100E6800FFEE33FEED33FDCC33CCC833C810D707C3
:100E78009BEC9AE899400AED9BFDEC9AFCE899F8FE
:0E0E88000FD5F0DAE4CDFBE4CCFAE4C8F92291
:0E0E9600C3E49FFFE49EFEE49DFDE49CFC226D
:100EA400EB9FF5F0EA9E42F0E99D42F0E89C45F0A4
:010EB400221B
:100EB500E8600FECC313FCED13FDEE13FEEF13FF1B
:030EC500D8F1223F
:100EC800BB010DE58229F582E5833AF583020F0B14
:100ED8005007E92582F8020EFEBBFE07E92582F8D5
:100EE800020F17E58229F582E5833AF583020F247C
:060EF8008A838982E47385
:10183B00021707E493A3F8E493A34003F68001F2A5
:10184B0008DFF48029E493A3F85407240CC8C333AE
:10185B00C4540F4420C8834004F456800146F6DF7D
:10186B00E4800B0102040810204080902790E47E56
:10187B00019360BCA3FF543F30E509541FFEE49372
:10188B00A360010ECF54C025E060A840B8E493A339
:10189B00FAE493A3F8E493A3C8C582C8CAC583CA64
:1018AB00F0A3C8C582C8CAC583CADFE9DEE780BE1C
:01279F000039
:0D0EFE00E6FB08E6F908E6FA08E6CBF82264
:0C0F0B00E0F8A3E0F9A3E0FAA3E0FB2269
:0D0F1700E2FB08E2F908E2FA08E2CBF8225A
:100F2400E493F8740193F9740293FA740393FB2223
:00000001FF
