:030000000214E502
:0C14E500787FE4F6D8FD75815902152CC3
:0B228A000000007F0B7EBEDEFEDFFCCC
:012295002226
:0E226F00AD07AF051DEF600512228A80F52233
:02220800C18093
:10221C00753D03753E407B007A00793D7F03020DCE
:01222C002A87
:1012B10012221CC2B612223E1222B012215130005B
:1012C10006C281D2828004D281C2827FFF12226F44
:0212D100D2B693
:1012D3007F081216EF8E218F22AC21AD22E4120B70
:1012E30093E4FBFA79807845120A67E4FBFA79C83C
:1012F300784212095E8F268E258D248C237B007AFB
:10130300007929754214AF22AE211220FE7B007AA8
:10131300007929E4FDFF121FD7AF26AE25AD24AC1B
:10132300237B007A007929754414754503120FA1B4
:101333007B007A0079297D02E4FF121FD7AF26AE26
:1013430025AD24AC23120BCC12142E12229F8E2710
:101353008F287B007A0079297542141220FE7B00C6
:0B1363007A0079297D04E4FF121FD7F7
:03136E000212D395
:10222D00753D03753EFF7B007A00793D7F04020DFD
:01223D002A76
:0622B00012222D0211CFE5
:10000300751001751101E4F512751301F5147515D9
:1000130001751602FB7A0079101215FAE4F5A2FDB8
:050023007F0102193904
:0F226000E4F542754301FB7A007942FF020D2A33
:10215100122260753D1FE4F540754101F53E753F62
:0E21610001FB7A00793D1217D27F0102227D28
:10223E00753D03753E067B007A00793DE4FF020D85
:01224E002A65
:10004E000000000000000000002F0000000007006C
:10005E00070000147F147F1400242A7F2A120062E6
:10006E006408132300364955225000000503000092
:10007E0000001C224100000041221C000014083E1A
:10008E0008140008083E0808000000A060000008E0
:10009E000808080800006060000000201008040234
:1000AE00003E5149453E0000427F400000426151F2
:1000BE004946002141454B31001814127F1000278C
:1000CE0045454539003C4A4949300001710905034F
:1000DE0000364949493600064949291E0000363680
:1000EE0000000000563600000008142241000014E3
:1000FE0014141414000041221408000201510906C0
:10010E0000324959513E007C1211127C007F494940
:10011E004936003E41414122007F4141221C007F71
:10012E0049494941007F09090901003E4149497A7F
:10013E00007F0808087F0000417F410000204041F9
:10014E003F01007F08142241007F40404040007F65
:10015E00020C027F007F0408107F003E4141413EA9
:10016E00007F09090906003E4151215E007F0919F1
:10017E0029460046494949310001017F0101003FEE
:10018E004040403F001F2040201F003F4038403F6E
:10019E0000631408146300070870080700615149D2
:1001AE00454300007F41410000552A552A55000065
:1001BE0041417F00000402010204004040404040E3
:1001CE00000001020400002054545478007F48447B
:1001DE00443800384444442000384444487F0038B2
:1001EE005454541800087E0901020018A4A4A47CDB
:1001FE00007F080404780000447D400000408084A5
:10020E007D00007F102844000000417F4000007CEC
:10021E0004180478007C08040478003844444438F8
:10022E0000FC242424180018242418FC007C080444
:10023E00040800485454542000043F444020003C1D
:10024E004040207C001C2040201C003C4030403CA4
:10025E00004428102844001CA0A0A07C0044645434
:10026E004C44141414141414000000000000000078
:10027E000000000000000000000000F80000000078
:10028E00000000333000000000100C06100C0600B9
:10029E00000000000000000040C07840C078400020
:1002AE00043F04043F040400007088FC0830000082
:1002BE00001820FF211E0000F008F000E0180000DA
:1002CE0000211C031E211E0000F008887000000093
:1002DE001E2123241927211010160E0000000000E5
:1002EE000000000000000000000000E01804020002
:1002FE00000000071820400000020418E000000073
:10030E000040201807000000404080F08040400070
:10031E000202010F01020200000000F000000000C6
:10032E000101011F0101010000000000000000009A
:10033E0080B070000000000000000000000000000F
:10034E000001010101010101000000000000000098
:10035E000030300000000000000000008060180433
:10036E00006018060100000000E010080810E00010
:10037E00000F102020100F00001010F800000000D9
:10038E000020203F20200000007008080888700020
:10039E0000302824222130000030088888483000A0
:1003AE000018202020110E000000C02010F80000C0
:1003BE0000070424243F240000F808888808080059
:1003CE000019212020110E0000E01088881800006E
:1003DE00000F112020110E0000380808C838080040
:1003EE000000003F000000000070880808887000C0
:1003FE00001C222121221C0000E010080810E00041
:10040E000000312222110F00000000C0C0000000C9
:10041E0000000030300000000000008000000000EE
:10042E0000008060000000000000804020100800E6
:10043E0000010204081020004040404040404000AF
:10044E00040404040404040000081020408000008A
:10045E000020100804020100007048080808F0008F
:10046E000000003036010000C030C828E810E0005F
:10047E000718272423140B000000C038E0000000EA
:10048E00203C23020227382008F888888870000054
:10049E00203F202020110E00C03008080808380028
:1004AE00071820202010080008F808080810E0009F
:1004BE00203F202020100F0008F88888E808100040
:1004CE00203F20202320180008F88888E808100014
:1004DE00203F200003000000C0300808083800004C
:1004EE0007182020221E020008F808000008F8084D
:1004FE00203F210101213F20000808F808080000D4
:10050E000020203F2020000000000808F808080006
:10051E00C08080807F00000008F888C0281808007E
:10052E00203F20012638200008F8080000000000B7
:10053E00203F20202020300008F8F800F8F80800AE
:10054E00203F003F003F200008F830C00008F808A8
:10055E00203F200007183F00E01008080810E000B8
:10056E000F10202020100F0008F808080808F000CF
:10057E00203F210101010000E01008080810E000F2
:10058E000F18242438504F0008F888888888700087
:10059E00203F2000030C3020007088080808380027
:1005AE000038202121221C00180808F8080818001D
:1005BE000000203F2000000008F808000008F8089E
:1005CE00001F202020201F000878880000C838084F
:1005DE00000007380E010000F80800F80008F800C7
:1005EE00033C0700073C0300081868808068180861
:1005FE0020302C03032C30200838C800C8380800DF
:10060E000000203F2000000010080808C83808002D
:10061E002038262120201800000000FE02020200D1
:10062E000000007F40404000000C30C00000000081
:10063E00000000010638C00000020202FE000000A9
:10064E00004040407F00000000000402020204004F
:10065E00000000000000000000000000000000008C
:10066E008080808080808080000202040000000074
:10067E00000000000000000000008080808000006C
:10068E000019242222223F2008F80080800000005A
:10069E00003F112020110E0000000080808000001D
:1006AE00000E112020201100000000808088F8002C
:1006BE00000E112020103F2000008080808000005E
:1006CE00001F222222221300008080F088888818C2
:1006DE000020203F202000000000808080808000CD
:1006EE00006B94949493600008F800808080000062
:1006FE00203F210000203F2000809898000000003D
:10070E000020203F2020000000000080989800006C
:10071E0000C08080807F000008F80000808080008C
:10072E00203F24022D302000000808F800000000B1
:10073E000020203F2020000080808080808080006C
:10074E00203F20003F20003F8080008080800000FE
:10075E00203F210000203F2000008080808000008C
:10076E00001F202020201F008080008080000000BD
:10077E0080FFA12020110E000000008080808000EC
:10078E00000E112020A0FF808080800080808000DD
:10079E0020203F212000010000008080808080000A
:1007AE000033242424241900008080E0808000007F
:1007BE000000001F202000008080000000808000CC
:1007CE00001F202020103F2080808000008080802D
:1007DE0000010E30080601008080008000808080BD
:1007EE000F300C030C300F000080800080808000E2
:1007FE000020312E0E31200080808000008080800D
:10080E0080818E70180601000080808080808000BC
:10081E000021302C2221300000000000807C0202DA
:10082E0000000000003F404000000000FF000000FC
:10083E0000000000FF0000000002027C80000000AB
:10084E000040403F000000000006010102020404C7
:08085E00000000000000000092
:1011CF00D2C27F6412226FC2C27F6412226FD2C258
:1011DF00E4FD7FAE122097E4FDFF122097E4FD7F20
:1011EF0010122097E4FD7F40122097E4FD7F8112BB
:1011FF002097E4FD7FCF122097E4FD7FA112209767
:10120F00E4FD7FC8122097E4FD7FA6122097E4FD2E
:10121F007FA8122097E4FD7F3F122097E4FD7FD334
:10122F00122097E4FDFF122097E4FD7FD51220973F
:10123F00E4FD7F80122097E4FD7FD9122097E4FD13
:10124F007FF1122097E4FD7FDA122097E4FD7F12E1
:10125F00122097E4FD7FDB122097E4FD7F401220E0
:10126F0097E4FD7F20122097E4FD7F02122097E480
:10127F00FD7F8D122097E4FD7F14122097E4FD7FF0
:10128F00A4122097E4FD7FA6122097E4FD7FAF12F2
:10129F002097E4FD7FAF122097122057E4FDFF0245
:0212AF002131EB
:07209000F583E493FF7D01DD
:10209700ED6004D2C38002C2C3C2C4E4FEEEC3949F
:1020A70008748094805015C2C0EF30E704D2C18015
:1020B70002C2C1D2C0EF25E0FF0E80E1D2C4D2C375
:0120C70022F6
:10213100AC07ED24B0FFE4FD122097EC54F0C45439
:102141000F4410FF122097EC540F4401FF02209717
:10205700E4FCECC3940874809480502CEC24B0FF0B
:10206700E4FD122097E4FF1220977F10122097E4D7
:10207700FBEBC3948074809480500A7D01E4FF12C7
:0820870020970B80EC0C80CACD
:01208F00222E
:1021F10053070FEFC3940A74809480500574302FF5
:07220100FF22EF2437FF224A
:06157100AA07A905AF0363
:10157700EF24E0FBC3748094804006EFD3947E4051
:10158700027B1FEAD3947F748094804004E4FA09B5
:1015970009AF02AD01122131E4FCECC39408748059
:1015A7009480501D75F010EBA42CF582E435F0F50E
:1015B70083E5822476F582E58334021220900C803D
:1015C700D9AF02E904FD122131E4FCECC39408749D
:1015D700809480501D75F010EBA42CF582E435F053
:1015E700F583E582247EF582E58334021220900C90
:0215F70080D999
:0115F90022CF
:0A1FD7008F3D8D3E8B3F8A4089410B
:101FE100E4F542AB3FAA40A94185428275830012C4
:101FF1000C66FB6021AD3EAF3D1215717408253DA5
:10200100F53DD39478748094804007E4F53D053E16
:06201100053E054280CDF2
:0120170022A6
:0A1BF500FF1221F1AB07AD18AF1786
:101BFF00EB24E0FBEFD3947F748094804003E4FFE9
:101C0F000D122131E4FCECC3940674809480501DB6
:101C1F0075F006EBA4244EF582E5F03400F583E56C
:0D1C2F00822CF582E435831220900C80D9C0
:011C3C002285
:0A2018008F548D558B568A57895856
:10202200E4F559AB56AA57A958855982758300120F
:102032000C66FB601FAD55AF54121BFF740625548E
:10204200F554D39478748094804005E4F554055592
:04205200055980CFDD
:012056002267
:0A198B008F178D188B198A1A891B1B
:10199500E4F51DE51DC3951C50390517AB19AA1AA9
:1019A500A91B851D82758300120C66C4540F121B7A
:1019B500F574062517F517AB19AA1AA91B851D82FB
:1019C500758300120C66121BF574092517F51705AA
:0319D5001D80C0B2
:0119D80022EC
:1017D200900001120C66FFE5DE54F04FF5DE90003A
:1017E20002120C66C43354E0FFE5DE54DF4FF5DE2F
:1017F200120C4DD3941F74809480503D90000312BC
:101802000C66FFD3940174809480502D90000412D2
:101812000C66FED3940374809480501D43BA80EE0C
:10182200C43354E0FEEFC433333354804EFF120C02
:0A1832004D4F90FEA8F053BA7F223C
:0D227D00EF6401700443BC802253BC7F223B
:1016EF00EFD3940F7480948040028063E4F5BDF5CE
:1016FF00BEE5BC54F044404FF5BC00000000E4FDD3
:10170F00EDC394FA748094805045E5BC30E53D53A9
:10171F00BCDFE5DEAFBD30E50EEFFEACBEECFBEEA1
:10172F00F53DEBF53E8020753D008F3EE5BEC45480
:10173F000FFBE53EC4F8540FC868FFE53DC454F0F5
:10174F0048F53DEF4BF53EAE3DAF3E220D80B17EED
:03175F00107F00F8
:011762002264
:100D2A00EFD394077480948040037FFF22120C4D06
:100D3A00FED394037480948040037FFF22EF7044B3
:100D4A00EE700B900001120C66F452935294120C3E
:100D5A004D6401700B900001120C664293F4529498
:100D6A00120C4DFE6402700A900001120C66429346
:100D7A004294EE6403700D900001120C66FEF45268
:100D8A0093EE4294EF64017046120C4DFE700B9084
:100D9A000001120C66F452915292EE6401700B90AB
:100DAA000001120C664291F45292120C4D640270C8
:100DBA000A900001120C6642914292120C4D640391
:100DCA00700D900001120C66FEF45291EE4292EF01
:100DDA0064027046120C4DFE700B900001120C66F4
:100DEA00F452955296EE6401700B900001120C6653
:100DFA004295F45296120C4D6402700A9000011248
:100E0A000C6642954296120C4D6403700D900001D7
:100E1A00120C66FEF45295EE4296EF640370461287
:100E2A000C4DFE700B900001120C66F452B152B2D6
:100E3A00EE6401700B900001120C6642B1F452B2DA
:100E4A00120C4D6402700A900001120C6642B14203
:100E5A00B2120C4D6403700D900001120C66FEF480
:100E6A0052B1EE42B2EF64047046120C4DFE700BA2
:100E7A00900001120C66F452B352B4EE6401700B86
:100E8A00900001120C6642B3F452B4120C4D640283
:100E9A00700A900001120C6642B342B4120C4D64FF
:100EAA0003700D900001120C66FEF452B3EE42B4C8
:100EBA00EF64057046120C4DFE700B900001120C87
:100ECA0066F452C952CAEE6401700B900001120C0A
:100EDA006642C9F452CA120C4D6402700A900001AB
:100EEA00120C6642C942CA120C4D6403700D90007E
:100EFA0001120C66FEF452C9EE42CAEF640670464D
:100F0A00120C4DFE700B900001120C66F452CB527B
:100F1A00CCEE6401700B900001120C6642CBF452C5
:100F2A00CC120C4D6402700A900001120C6642CB7E
:100F3A0042CC120C4D6403700D900001120C66FE37
:100F4A00F452CBEE42CCEF64077049120C4DFF7E8F
:100F5A0000700B900001120C66F452E152E2EF6449
:100F6A00014E700B900001120C6642E1F452E2123B
:100F7A000C4D6402700A900001120C6642E142E2D2
:100F8A00120C4D6403700D900001120C66FFF452AE
:070F9A00E1EF42E27F0022BB
:101A2700EFFBD39401748094805009EB7004C2A932
:101A37008002D2A9EDFF7E00D39403748094805076
:101A470029EF700553B7FDC2B9EF64014E70055316
:101A5700B7FDD2B9EF64024E700543B702C2B9EFC2
:0D1A670064034E700543B702D2B97F002220
:101A7400EFFBD39401748094805009EB7004C2ABE3
:101A84008002D2ABEDFF7E00D39403748094805027
:101A940029EF700553B7F7C2BBEF64014E700553CD
:101AA400B7F7D2BBEF64024E700543B708C2BBEF71
:0D1AB40064034E700543B708D2BB7F0022CB
:10218A00EFD3940174809480500DEF25E025E0FF91
:0A219A00E5AF54FB4FF5AFE4FF2260
:1021A400EFD3940174809480500DEFC43354E0FF56
:0A21B400E5AF54DF4FF5AFE4FF2262
:10002E00EFD3940174809480500EEFC4333354C0D8
:0B003E00FFE5AF54BF4FF5AFE4FF2219
:101AC100EFFBD39401748094805009EB7004C2A899
:101AD1008002D2A8EDFF7E00D394037480948050DD
:101AE10029EF700553B7FEC2B8EF64014E7005537C
:101AF100B7FED2B8EF64024E700543B701C2B8EF2A
:0D1B010064034E700543B701D2B87F002287
:101B0E00EFFBD39401748094805009EB7004C2AA49
:101B1E008002D2AAEDFF7E00D3940374809480508D
:101B2E0029EF700553B7FBC2BAEF64014E7005532F
:101B3E00B7FBD2BAEF64024E700543B704C2BAEFD8
:0D1B4E0064034E700543B704D2BA7F002235
:1021D800EFD3940174809480500CEFC454F0FFE561
:0921E8008F54EF4FF58FE4FF2244
:1021BE00EFD3940174809480500DEFC43354E0FF3C
:0A21CE00E58F54DF4FF58FE4FF2288
:10216F00EFD3940174809480500EEFC4333354C076
:0B217F00FFE58F54BF4FF58FE4FF22F7
:101B5B00EFFBD39401748094805009EB7004C2ADF9
:101B6B008002D2ADEDFF7E00D3940374809480503D
:101B7B0029EF700553B7DFC2BDEF64014E700553FB
:101B8B00B7DFD2BDEF64024E700543B720C2BDEF85
:0D1B9B0064034E700543B720D2BD7F0022C9
:10183C00EF30E10543E620800353E6DFEF30E005AF
:10184C0043E610800353E6EFEDFF7E00D394037460
:10185C00809480502DEF700653B6DF53B5DFEF64E4
:10186C00014E700653B6DF43B520EF64024E70068E
:10187C0043B62053B5DFEF64034E700643B62043E6
:05188C00B5207F0022E1
:10176300EFD394017480948040037FFF2243BA80B7
:10177300EF64017012ED90FE817006E0547FF080FB
:1017830011E04480F0800BEF700890FE83E05487F3
:101793004DF0EBFF7E00D3940374809480502DEFC3
:1017A300700653B6DF53B5DFEF64014E700653B6D0
:1017B300DF43B520EF64024E700643B62053B5DF16
:0F17C300EF64034E700643B62043B5207F00222B
:101BA800EFFBD39401748094805009EB7004C2ACAD
:101BB8008002D2ACEDFF7E00D394037480948050F1
:101BC80029EF700553B7EFC2BCEF64014E7005539F
:101BD800B7EFD2BCEF64024E700543B710C2BCEF3A
:0D1BE80064034E700543B710D2BC7F00228D
:1019D900EFD39401748094805007E5AF54FE4FF51E
:1019E900AFEDFF7E00D3940374809480502DEF7087
:1019F9000653B6FE53B5FEEF64014E700653B6FEAC
:101A090043B501EF64024E700643B60153B5FEEFCC
:0E1A190064034E700643B60143B5017F002200
:10189100EFD3940174809480500EEF33333354F8B6
:1018A100FFE5AF54F74FF5AFEDFF7E00D39403741E
:1018B100809480502DEF700653EEFE53DFFEEF64EF
:1018C100014E700653EEFE43DF01EF64024E7006D7
:1018D10043EE0153DFFEEF64034E700643EE014316
:0518E100DF017F002281
:1018E600EFD3940174809480500CEFC454F0FFE55C
:1018F600AF54EF4FF5AFEDFF7E00D39403748094A1
:1019060080502DEF700653EEFD53DFFDEF64014E60
:10191600700653EEFD43DF02EF64024E700643EE9F
:101926000253DFFDEF64034E700643EE0243DF020F
:031936007F00220D
:10193900EFD3940174809480500BEF25E0FFE5AF5D
:1019490054FD4FF5AFEDFF7E00D39403748094806E
:10195900502DEF700653B6FD53B5FDEF64014E707F
:101969000653B6FD43B502EF64024E700643B60254
:1019790053B5FDEF64034E700643B60243B5027FCB
:0219890000223A
:10167800EBF582758300D39403748094805030E531
:1016880082700553B77FC2BFE58264014583700548
:1016980053B77FD2BFE58264024583700543B780A4
:1016A800C2BFE58264034583700543B780D2BFEFAC
:1016B80014601114601214601314601D2404702443
:1016C8008DDA80208DDB801C8DDC801843BA8090F9
:1016D800FD54EDF053BA7F800BED5401FFE5D9546A
:0716E800FE4FF5D97F00223F
:101C3D0043BA8090FA10E054F0F0EDD39403748021
:101C4D009480500BE0FEED25E025E0FDEE4DF0EB30
:101C5D00D3940374809480500690FA10E04BF0EF0B
:101C6D00640190FA107006E04480F08004E0547F27
:071C7D00F053BA7F7F002243
:101C840043BA8090FA00E054F0F0EDD394037480EA
:101C94009480500BE0FEED25E025E0FDEE4DF0EBE9
:101CA400D3940374809480500690FA00E04BF0EFD4
:101CB400640190FA007006E04480F08004E0547FF0
:071CC400F053BA7F7F0022FC
:101CCB0043BA8090FA20E054F0F0EDD39403748083
:101CDB009480500BE0FEED25E025E0FDEE4DF0EBA2
:101CEB00D3940374809480500690FA20E04BF0EF6D
:101CFB00640190FA207006E04480F08004E0547F89
:071D0B00F053BA7F7F0022B4
:101D120043BA8090FA30E054F0F0EDD3940374802B
:101D22009480500BE0FEED25E025E0FDEE4DF0EB5A
:101D3200D3940374809480500690FA30E04BF0EF15
:101D4200640190FA307006E04480F08004E0547F31
:071D5200F053BA7F7F00226D
:101D590043BA8090FA38E054F0F0EDD394037480DC
:101D69009480500BE0FEED25E025E0FDEE4DF0EB13
:101D7900D3940374809480500690FA38E04BF0EFC6
:101D8900640190FA387006E04480F08004E0547FE2
:071D9900F053BA7F7F002226
:101DA00043BA8090FA40E054F0F0EDD3940374808D
:101DB0009480500BE0FEED25E025E0FDEE4DF0EBCC
:101DC000D3940374809480500690FA40E04BF0EF77
:101DD000640190FA407006E04480F08004E0547F93
:071DE000F053BA7F7F0022DF
:101DE70043BA8090FA48E054F0F0EDD3940374803E
:101DF7009480500BE0FEED25E025E0FDEE4DF0EB85
:101E0700D3940374809480500690FA48E04BF0EF27
:101E1700640190FA487006E04480F08004E0547F43
:071E2700F053BA7F7F002297
:101E2E0043BA8090FA50E054F0F0EDD394037480EE
:101E3E009480500BE0FEED25E025E0FDEE4DF0EB3D
:101E4E00D3940374809480500690FA50E04BF0EFD8
:101E5E00640190FA507006E04480F08004E0547FF4
:071E6E00F053BA7F7F002250
:101E750043BA8090FA58E054F0F0EDD3940374809F
:101E85009480500BE0FEED25E025E0FDEE4DF0EBF6
:101E9500D3940374809480500690FA58E04BF0EF89
:101EA500640190FA587006E04480F08004E0547FA5
:071EB500F053BA7F7F002209
:101EBC0043BA8090FA60E054F0F0EDD39403748050
:101ECC009480500BE0FEED25E025E0FDEE4DF0EBAF
:101EDC00D3940374809480500690FA60E04BF0EF3A
:101EEC00640190FA607006E04480F08004E0547F56
:071EFC00F053BA7F7F0022C2
:101F030043BA8090FA68E054F0F0EDD39403748000
:101F13009480500BE0FEED25E025E0FDEE4DF0EB67
:101F2300D3940374809480500690FA68E04BF0EFEA
:101F3300640190FA687006E04480F08004E0547F06
:071F4300F053BA7F7F00227A
:101F4A0043BA8090FA70E054F0F0EDD394037480B1
:101F5A009480500BE0FEED25E025E0FDEE4DF0EB20
:101F6A00D3940374809480500690FA70E04BF0EF9B
:101F7A00640190FA707006E04480F08004E0547FB7
:071F8A00F053BA7F7F002233
:1020C80043BA8090FE50E054CFF0EDD3940374806F
:1020D8009480500AE0FEEDC454F0FDEE4DF0EF643C
:1020E8000190FE507006E04480F08004E0547FF0D8
:0620F80053BA7F7F0022B5
:1015FA00900001120C666401700553CE7F8003438C
:10160A00CE80120C4DC4333354C0FFE5CE54BF4FC5
:10161A00F5CE900002120C66C43354E0FFE5CE54B6
:10162A00DF4FF5CE900003120C66C454F0FFE5CEEE
:10163A0054EF4FF5CE900004120C6633333354F84E
:10164A00FFE5CE54F74FF5CE900005120C6625E063
:10165A0025E0FFE5CE54FB4FF5CE900006120C664E
:0E166A00FFE5CE54FC4FF5CEE4F51EC2012282
:10224F00EF700753CEEF53CE7F2243CE1043CE8095
:01225F00225C
:0822A8008FCFD2012001FD22BD
:03004B00021F9100
:101F9100C0E0C083C082C0D075D000C007E5CE309C
:101FA100E404C2018022C3E51F94807480948040C0
:101FB10003751F00AF1F051F74002FF582E4340065
:101FC100F583E5CFF0751E0575CDC0D007D0D0D013
:061FD10082D083D0E03253
:03002B000222B6F8
:0422B60053BCDF3204
:1020FE00E4F543F544C3EE64809480501BC3E49F23
:10210E00FFE49EFE742D120C93740129F9E43AFA41
:10211E001542754300754401854251121371EF2526
:02212E0044FF6C
:01213000228C
:0A1371008E4C8F4D8B4E8A4F895031
:10137B00E54D454C70157430120C93AB4EAA4FA92A
:10138B0050900001E4120CA57F0122D3E551940784
:10139B00748094804003755107E55114900084F0DC
:0913AB00E4F552E54D454C603AB1
:1013B400AE4CAF4D7C007D0A120CC78D53E553240F
:1013C40030FFE433FEE55225E02485F582E4340061
:1013D400F583EEF0A3EFF0AE4CAF4D7C007D0A1226
:0613E4000CC78E4C8F4D7A
:1013EA00055280C0E4FF900084E0FEEFC39E5024C3
:1013FA00E552602025E02483F582E43400F583A3D6
:10140A00E0AB4EAA4FA9508F82758300120CA50F2C
:10141A00155280D2AB4EAA4FA9508F82758300E431
:03142A00120CA5FC
:01142D00229C
:09229600850F44754504020FA1F7
:0E0FA1008F408E3F8D3E8C3D8B418A428943AE
:100FAF00E4900082F0D3E54594067480948040036A
:100FBF00754506E4FFFEFDFCAB40AA3FA93EA83DE8
:100FCF00120B04502FAB41AA42A943742D120C935C
:100FDF0074012543F543E43542F5429000827401D4
:100FEF00F0AF40AE3FAD3EAC3D120B7D8F408E3F1C
:100FFF008D3E8C3DAF40AE3FAD3EAC3D120BCC9025
:10100F000080EEF0A3EFF0AF40AE3FAD3EAC3DC081
:10101F0004C005C006C007900080E0FCA3E0FDE41B
:10102F00120B93A804A905AA06AB07D007D006D0C8
:10103F0005D0041208698F408E3F8D3E8C3D900085
:10104F0080E0FEA3E0FFAB41AA42A94385445112C1
:10105F001371900083EFF0900082E02FF0EF339543
:10106F00E0FEEF2543F543EE3542F542AB41FAA9D9
:10107F0043742E120C9374012543F543E43542F566
:10108F0042900082E004F0E0FFC3E5449F14F54472
:10109F00D3940074809480500122E545700CAB41CD
:0A10AF00AA42A943120C930211C9D2
:1010B900D202E4900083F0900083E0FD3395E0FCD8
:1010C900C3ED95447480F86C98506EC3ED954574E2
:1010D900806C985064AF40AE3FAD3EAC3DE4FBFA46
:1010E9007920784112095E8F408E3F8D3E8C3D12EA
:1010F9000BCC900083E02446F8A607AF40AE3FAD85
:101109003EAC3DC004C005C006C007E02446F8E671
:10111900FCE4120B98A804A905AA06AB07D007D0CE
:1011290006D005D0041208698F408E3F8D3E8C3D54
:10113900900083E004F00210C0900083E0FF90006B
:1011490082E02FF0AB41AA42A943EF3395E08F82A9
:10115900F583E4120CA58060900083E0FF3395E0ED
:10116900FEC3648094804058EF4E7006300203E05D
:10117900802C300222900083E0FF2446F8E67017A5
:10118900900082E014F0AB41AA42A943EF3395E005
:101199008F82F583E4801EC202900083E0FF24461B
:1011A900F8E62430FEAB41AA42A943EFFD3395E0AE
:1011B9008D82F583EE120CA5900083E014F08098DF
:0511C900900082E0FF30
:0111CE0022FE
:10220A00420093000041009500410096004100976A
:01221A0000C3
:09229F00900093E0FEA3E0FF2291
:10142E00EFFD7C00D39400748094804011ED9419EC
:10143E007480948050089000957401F08038D3ED3C
:10144E009423EC648094804012ED9441EC6480947B
:10145E008050089000957402F0801BD3ED944BECF5
:10146E00648094804010ED9464EC64809480500607
:10147E009000957403F0900095E0FF7E006401707B
:10148E001CA3E064027038A3E064037032900094F1
:10149E00E024FFF0900093E034FFF08022EF64032D
:1014AE004E701C900096E064027014A3E06401700C
:1014BE000E900094E004F07006900093E004F0901B
:1014CE000096E0FF900095E0FE6F600A900097EFA7
:0714DE00F0900096EEF022F1
:10086600020C38E86480F8E933E83360110460F07C
:10087600ED33EC337009E8FCE9FDEAFEEBFF2204F8
:1008860060DED3EB9FEA9EE99DE8C2E78CF0C2F7F3
:1008960095F0400CE8CCF8E9CDF9EACEFAEBCFFBBF
:1008A600120C0385D0F05804700320D5B3E8047009
:1008B600075002B2D5020C4292D5EC0460F7E4CCA4
:1008C600C0E0C398F8603B94186008400DD0E0FB88
:1008D600020C1AE4FBFAC9FC8028E830E406E4C9F5
:1008E600FBE4CAFCE830E305E4C9CACBFCE85407DC
:1008F6006010F8C3E913F9EA13FAEB13FBEC13FCE7
:10090600D8F130F52FC3E49CFCEF9BFFEE9AFEED89
:1009160099FDD0E0FBEF4E4D4C701222DB03020C2A
:100926003FEC2CFCEF33FFEE33FEED33FDED30E70D
:10093600EB020C1AEF2BFFEE3AFEED39FDD0E0FB91
:1009460050130BBB0003020C42ED13FDEE13FEEF3A
:0809560013FFEC13FC020C1A64
:10095E00EC4D6011E8497017ED33EC3304600DE493
:10096E00FCFFFEFD22E933E8330470F8020C381266
:10097E000C0358046009E4CC248150062850090267
:10098E000C42284003020C3FC0E0EB4A7044B98091
:10099E0006D0E0FB020C2EEF4E701CBD8008EBFF64
:1009AE00EAFEE9FD80EBE98DF0A4FEE5F0020A47D0
:1009BE00E9CDF9EAFEEBFFEF89F0A4FCE5F0CE8974
:1009CE00F0A42EFFE435F0CD89F0A42DFEE435F031
:1009DE008067EF4E7005BD80D780C3EF8BF0A4AC5F
:1009EE00F0EE8BF0A42CFCE435F0F8EF8AF0A42C9A
:1009FE00E5F038FCE433CB8DF0A42CFCE5F03BF8AD
:100A0E00EE8AF0A42CFCE5F038F8E433CF89F0A49C
:100A1E002CFCE5F038CF3400CE89F0A42FFFE5F0A2
:100A2E003EFEE433C98DF0A42EFEE5F039CD8AF0FA
:100A3E00A42FFFE5F03EFEE43DFD33D0E0FB500772
:100A4E000BBB000F020C42EC2CFCEF33FFEE33FE1F
:060A5E00ED33FD020C1A4D
:100A6400020C42EC5D046005E859047003020C3882
:100A7400120C03580460F6EC4860F2EC7004FDFEBE
:100A8400FF22C860DB2481C85009C3986002500665
:100A9400020C3F9850CAF582E9294B4A7005AB8293
:100AA400020C2E75F0007C1A7880C3EF9BEE9AED51
:100AB40099400DC3EF9BFFEE9AFEED99FDE842F0DD
:100AC400DC23ACF0D0E0FFD0E0FED0E0FDAB822030
:100AD400E7101BEB60BAEC2CFCEF33FFEE33FEEDBA
:100AE40033FD020C1AE803F830E705C0F075F00096
:100AF400EF2FFFEE33FEED33FD40B830E7C280AA9E
:100B040074F8CC6480CCC86480C8F58204604FC398
:100B1400EB9FF5F0EA9E42F0E99D42F0E89C45F037
:100B2400603C501DE5825FFFE582D313CB5BCBF4C1
:100B34002B5582FB50280ABA002409B900200880EA
:100B44001DE5825BFBE582D313CF5FCFF4C3132F84
:100B54005582FF50090EBE00050DBD00010CC3EB0C
:100B64009FF5F0EA9E42F0E99D42F0E89C45F06072
:090B740007CC4820E701B3EC2294
:100B7D00ED33EC33600A047003BD8004ECB2E7FC86
:010B8D002245
:100B8E0075F020800E75F010800575F0087D007EE2
:100B9E00007F003392D530D503120D1CEC3340107C
:100BAE00EF33FFEE33FEED33FDEC33FCD5F0ED22EB
:0E0BBE00E5F0247EA2D513CC92E7CDCEFF2227
:100BCC00EDD2E7CD33EC3392D524814006E4FFFE21
:100BDC00FDFC22FCE4CFCECDCC24E0501174FF8080
:100BEC00EDC3CC13CCCD13CDCE13CECF13CF04701D
:070BFC00F030D5DE020D1CF4
:100C0300E9D2E7C933E833F892D5EDD2E7CD33EC37
:070C130033FC5002B2D522B0
:100C1A00EC30E7100FBF000C0EBE00080DBD00043B
:100C2A000BEB6014A2D5EB13FCED92E7FD2274FFE7
:100C3A00FCFDFEFF22E480F8A2D574FF13FC7D8040
:030C4A00E480EF54
:1014F1000212B1E493A3F8E493A34003F68001F24E
:1015010008DFF48029E493A3F85407240CC8C333FB
:10151100C4540F4420C8834004F456800146F6DFCA
:10152100E4800B0102040810204080902208E47E30
:10153100019360BCA3FF543F30E509541FFEE493BF
:10154100A360010ECF54C025E060A840B8E493A386
:10155100FAE493A3F8E493A3C8C582C8CAC583CAB1
:10156100F0A3C8C582C8CAC583CADFE9DEE780BE69
:01221B0000C2
:100C4D00BB010689828A83E0225002E722BBFE02A5
:090C5D00E32289828A83E49322D8
:100C6600BB010CE58229F582E5833AF583E0225043
:100C760006E92582F8E622BBFE06E92582F8E2228D
:0D0C8600E58229F582E5833AF583E49322A7
:100C9300BB010689828A83F0225002F722BBFE0140
:020CA300F3223A
:100CA500F8BB010DE58229F582E5833AF583E8F085
:100CB500225006E92582C8F622BBFE05E92582C831
:020CC500F22219
:100CC700BC000BBE0029EF8DF084FFADF022E4CC11
:100CD700F875F008EF2FFFEE33FEEC33FCEE9DECDA
:100CE700984005FCEE9DFE0FD5F0E9E4CEFD22ED20
:100CF700F8F5F0EE8420D21CFEADF075F008EF2F6A
:100D0700FFED33FD4007985006D5F0F222C398FD5A
:050D17000FD5F0EA22F7
:0E0D1C00C3E49FFFE49EFEE49DFDE49CFC22E8
:00000001FF
