:100627009000011202D6FFE5DE54F04FF5DE900090
:10063700021202D66401700543BC80800353BC7F5D
:100647009000031202D66401700543DE2080035335
:10065700DEDF9000051202D664017004D2AD80027D
:10066700C2AD9000041202D6FF7E00D394037480BB
:1006770094805072EF700553B7DFC2BDEF64014E2F
:10068700700553B7DFD2BDEF64024E700543B72044
:10069700C2BDEF64034E700543B720D2BD1202BD41
:1006A700D3941F74809480503D9000061202D6FFA9
:1006B700D3940174809480502D9000071202D6FEC7
:1006C700D3940374809480501D43BA80EEC433548E
:1006D700E0FEEFC433333354804EFF1202BD4F9018
:0706E700FEA8F053BA7F22C8
:0D093E00EF6401700443BC802253BC7F2293
:10082300EFD3940F7480948040028063E4F5BDF5A8
:10083300BEE5BC54F044404FF5BC00000000E4FDAD
:10084300EDC394FA748094805045E5BC30E53D5384
:10085300BCDFE5DEAFBD30E50EEFFEACBEECFBEE7C
:10086300F50BEBF50C8020750B008F0CE5BEC45423
:100873000FFBE50CC4F8540FC868FFE50BC454F034
:1008830048F50BEF4BF50CAE0BAF0C220D80B17E90
:03089300107F00D3
:01089600223F
:03002B0002095770
:0409570053BCDF327C
:0F092E007DA57C06ED1D70011C144C70F7DFF1E8
:01093D002297
:1008C5005354433820414420746F205541525432CB
:1008D50020546573742050726F6772616D6D652168
:0608E5000D0A000D0A00DF
:10090D00750C0F750B017B007A00790B7F011200BE
:10091D0046750CC0E4F50BFB7A00790B7F040200E1
:01092D004683
:1008EB00750B1FE4F511751201F50C750D01750EE5
:1008FB0001F50FF510FB7A00790B1206277F010229
:02090B00093EA3
:10089700750B40751000750FC2750E01750D00754B
:1008A7001201751401E4F515751601FB7A00790B31
:0E08B7007F021204B07BFF7A0879C502002E82
:1006EE0012090D1208971208EBD2AFE4F508C3E514
:1006FE000894047480948040030207A07FFA1209C4
:10070E002EAF081208238E098F0A7F411200037F35
:10071E0044120003E5082430FF1200037F3D12004F
:10072E0003AE09AF0A7C037DE8120303EF2430FF0A
:10073E00120003AE09AF0A7C037DE81203037E00AC
:10074E007F64CFCDCFCECCCE120303EF2430FF1279
:10075E000003AE09AF0A7C007D641203037E007FA6
:10076E000ACFCDCFCECCCE120303EF2430FF120032
:10077E0003AE09AF0A7C007D0A120303ED2430FF9D
:10078E001200037F201200037F20120003050802CF
:0E079E0006FC7BFF7A0879E812002E0206F9AD
:10004600EFD394077480948040037F01221202BD8F
:10005600FED394037480948040037F0222EF7044A1
:10006600EE700B9000011202D6F4529352941202D3
:10007600BD6401700B9000011202D64293F45294B3
:100086001202BDFE6402700A9000011202D642936B
:100096004294EE6403700D9000011202D6FEF452F3
:1000A60093EE4294EF640170461202BDFE700B900F
:1000B60000011202D6F452915292EE6401700B9036
:1000C60000011202D64291F452921202BD640270ED
:1000D6000A9000011202D6429142921202BD6403B6
:1000E600700D9000011202D6FEF45291EE4292EF8C
:1000F600640270461202BDFE700B9000011202D619
:10010600F452955296EE6401700B9000011202D6DD
:100116004295F452961202BD6402700A90000112D2
:1001260002D6429542961202BD6403700D900001FC
:100136001202D6FEF45295EE4296EF640370461212
:1001460002BDFE700B9000011202D6F452B152B2FB
:10015600EE6401700B9000011202D642B1F452B265
:100166001202BD6402700A9000011202D642B14228
:10017600B21202BD6403700D9000011202D6FEF4A5
:1001860052B1EE42B2EF640470461202BDFE700B2D
:100196009000011202D6F452B352B4EE6401700B11
:1001A6009000011202D642B3F452B41202BD6402A8
:1001B600700A9000011202D642B342B41202BD6424
:1001C60003700D9000011202D6FEF452B3EE42B453
:1001D600EF640570461202BDFE700B90000112021C
:1001E600D6F452C952CAEE6401700B900001120295
:1001F600D642C9F452CA1202BD6402700A900001C6
:100206001202D642C942CA1202BD6403700D9000A2
:10021600011202D6FEF452C9EE42CAEF64067046D7
:100226001202BDFE700B9000011202D6F452CB52A0
:10023600CCEE6401700B9000011202D642CBF45250
:10024600CC1202BD6402700A9000011202D642CBA3
:1002560042CC1202BD6403700D9000011202D6FE5C
:10026600F452CBEE42CCEF640770491202BDFF7E1A
:1002760000700B9000011202D6F452E152E2EF64D4
:10028600014E700B9000011202D642E1F452E212C6
:1002960002BD6402700A9000011202D642E142E2F7
:1002A6001202BD6403700D9000011202D6FFF452D3
:0702B600E1EF42E27F0022AC
:0604B0008B178A18891960
:1004B600EF64026003020624751E02F51FF520F59F
:1004C60021F522F523F524FFEFC3948074809480F0
:1004D600500F74802FF582E43400F583E4F00F802A
:1004E600E7E4FFEFC3948074809480500F74002F6C
:1004F600F582E43400F583E4F00F80E7AB17AA1821
:10050600A9191202BDFF64C06008EF6440600302CF
:1005160005E490000A1202D6FD7C00D39403748091
:10052600948040037F0222ED4C700653B6FE53B50D
:10053600FEAB17AA18A91990000A1202D664017018
:100546000653B6FE43B50190000A1202D6FF7E009E
:100556006402700643B60153B5FEEF64034E70069F
:1005660043B60143B5011202BD64C07005439A80CB
:100576008003539A7F90000212044A7F007E607DBA
:10058600547C001203948F1D8E1C8D1B8C1AE4FF65
:10059600FE7D01FCAB1DAA1CA91BA81AC3120426CA
:1005A60040037F0222C3E4951DF51DE4951CF51C4E
:1005B6007401951BF51BE4951AF51A538EEF538EAD
:1005C600F7438E04AF1DAE1CAD1BAC1A780812049F
:1005D600378FD6851DD753AFFB438E1080037F021E
:1005E60022AB17AA18A9199000091202D664017045
:1005F6000543AF01800353AFFE9000071202D66495
:10060600017005439A108003539AEF90000B120273
:10061600D65401FFE5BA54FE4FF5BA7F00227F0299
:0106260022B1
:1000030074802520F582E43400F583EFF00520C3E6
:10001300E5209480748094804003E4F520E521700A
:0800230006752101439A022237
:10002E001202BDFF600C120003740129F9E43AFAC2
:03003E0080EE222F
:030043000207AC05
:1007AC00C0E0C083C082C0D075D000C007E59A30CD
:1007BC00E029539AFEE5247022C3E52294807480CC
:1007CC0094804003752200AF22052274002FF5821D
:1007DC00E43400F583E59BF0752305E59A30E12CB4
:1007EC00539AFDE51F652060207480251FF582E477
:1007FC003400F583E0F59B051FC3E51F94807480DE
:10080C0094804008751F008003752100D007D0D05C
:07081C00D082D083D0E0324E
:0300000002094BA7
:0C094B00787FE4F6D8FD7581240206EEEA
:1002BD00BB010689828A83E0225002E722BBFE023F
:0902CD00E32289828A83E4932272
:1002D600BB010CE58229F582E5833AF583E02250DD
:1002E60006E92582F8E622BBFE06E92582F8E22227
:0D02F600E58229F582E5833AF583E4932241
:10030300BC000BBE0029EF8DF084FFADF022E4CCDE
:10031300F875F008EF2FFFEE33FEEC33FCEE9DECA7
:10032300984005FCEE9DFE0FD5F0E9E4CEFD22EDED
:10033300F8F5F0EE8420D21CFEADF075F008EF2F37
:10034300FFED33FD4007985006D5F0F222C398FD28
:050353000FD5F0EA22C5
:1003580075F008758200EF2FFFEE33FECD33CDCC5C
:1003680033CCC58233C5829BED9AEC99E5829840DF
:100378000CF582EE9BFEED9AFDEC99FC0FD5F0D6BC
:10038800E4CEFBE4CDFAE4CCF9A88222B800C1B9E6
:100398000059BA002DEC8BF084CFCECDFCE5F0CB24
:1003A800F97818EF2FFFEE33FEED33FDEC33FCEB5D
:1003B80033FB10D703994004EB99FB0FD8E5E4F918
:1003C800FA227818EF2FFFEE33FEED33FDEC33FC05
:1003D800C933C910D7059BE99A4007EC9BFCE99AF9
:1003E800F90FD8E0E4C9FAE4CCFB2275F010EF2F3E
:1003F800FFEE33FEED33FDCC33CCC833C810D7073E
:100408009BEC9AE899400AED9BFDEC9AFCE899F878
:0E0418000FD5F0DAE4CDFBE4CCFAE4C8F9220B
:10042600EB9FF5F0EA9E42F0E99D42F0E89C45F02C
:0104360022A3
:10043700E8600FECC313FCED13FDEE13FEEF13FFA3
:03044700D8F122C7
:10044A00BB010DE58229F582E5833AF5830204872B
:10045A005007E92582F802047ABBFE07E92582F8EB
:10046A00020493E58229F582E5833AF5830204A022
:0D047A00E6FB08E6F908E6FA08E6CBF822F2
:0C048700E0F8A3E0F9A3E0FAA3E0FB22F8
:0D049300E2FB08E2F908E2FA08E2CBF822E9
:1004A000E493F8740193F9740293FA740393FB22B2
:00000001FF
