:03000000020D9856
:0C0D9800787FE4F6D8FD75813E020D4521
:10000300000000900113740BF0A374BEF090011470
:0D001300E014F070F8900113E014F070F0AC
:0100200022BD
:0C0DA400AE071FEE600512000380F52270
:100D5B009001157403F0A37430F07B017A017915BF
:050D6B007F010205A25A
:100D70009001157403F0A3740FF07B017A017915CB
:050D80007F010205A245
:100D4500120D5B120D70D2AFC294D295C291D290A2
:060D5500C292D29380FE61
:100CEF00E4F51DF51EC3EE64809480501BC3E49F92
:100CFF00FFE49EFE742D1203B3740129F9E43AFA4E
:100D0F00151C751D00751E01851C26120BCDEF25B8
:020D1F001EFFB5
:010D210022AF
:0A0BCD008E218F228B238A248925B4
:100BD700E5224521701574301203B3AB23AA24A96B
:100BE70025900001E41203C57F0122E526D394076F
:100BF7004003752607E52614900100F0E4F527E584
:050C0700224521603AC6
:100C0C00AE21AF227C007D0A1203E78D28E5282453
:100C1C0030FFE433FEE52725E02401F582E43401BE
:100C2C00F583EEF0A3EFF0AE21AF227C007D0A122B
:060C3C0003E78E218F2268
:100C4200052780C0E4FF900100E0FEEFC39E502420
:100C5200E527602025E024FFF582E43400F583A334
:100C6200E0AB23AA24A9258F827583001203C50F46
:100C7200152780D2AB23AA24A9258F82758300E48D
:030C82001203C595
:010C8500224C
:090DB00085300F7510040207F6EE
:0E07F6008F0B8E0A8D098C088B0C8A0D890ED4
:10080400E4900111F0E510D394064003751006E45A
:10081400FFFEFDFCAB0BAA0AA909A808120224508A
:100824002FAB0CAA0DA90E742D1203B37401250E5F
:10083400F50EE4350DF50D9001117401F0AF0BAE1A
:100844000AAD09AC0812029D8F0B8E0A8D098C0823
:10085400AF0BAE0AAD09AC081202EC90010FEEF03A
:10086400A3EFF0AF0BAE0AAD09AC08C004C005C0DD
:1008740006C00790010FE0FCA3E0FDE41202B3A858
:1008840004A905AA06AB07D007D006D005D00412E8
:1008940000298F0B8E0A8D098C0890010FE0FEA3AE
:1008A400E0FFAB0CAA0DA90E850F26120BCD90010B
:1008B40012EFF0900111E02FF0EF3395E0FEEF25F9
:1008C4000EF50EEE350DF50DAB0CFAA90E742E12C5
:1008D40003B37401250EF50EE4350DF50D900111E9
:1008E400E004F0E0FFC3E50F9F14F50FD39400502C
:1008F4000122E510700CAB0CAA0DA90E1203B30271
:020904000A11D6
:10090600D200E4900112F0900112E0FD3395E0FC74
:10091600C3ED950F7480F86C98506EC3ED95107406
:10092600806C985064AF0BAE0AAD09AC08E4FBFAD4
:100936007920784112011E8F0B8E0A8D098C0812C0
:1009460002EC900112E02411F8A607AF0BAE0AAD37
:1009560009AC08C004C005C006C007E02411F8E6CB
:10096600FCE41202B8A804A905AA06AB07D007D072
:1009760006D005D0041200298F0B8E0A8D098C082B
:10098600900112E004F002090D900112E0FF9001BF
:1009960011E02FF0AB0CAA0DA90EEF3395E08F8274
:1009A600F583E41203C5805B900112E0FFC3648007
:1009B60094804057EF7006300003E0802C30002210
:1009C600900112E0FF2411F8E67017900111E0146F
:1009D600F0AB0CAA0DA90EEF3395E08F82F583E4F8
:1009E600801EC200900112E0FF2411F8E62430FEBA
:1009F600AB0CAA0DA90EEFFD3395E08D82F583EEC3
:0B0A06001203C5900112E014F0809D67
:050A1100900111E0FF5F
:010A160022BD
:1005A200EFD3940740037F012212036DFED394031D
:1005B20040037F0222EF7041EE700B9000011203A4
:1005C20086F45293529412036DB4010B90000112FF
:1005D20003864293F4529412036DFEB4020A900011
:1005E2000112038642934294EEB4030D900001126D
:1005F2000386FEF45293EE4294EF640170431203B9
:100602006DFE700B900001120386F452915292EE2D
:10061200B4010B9000011203864291F4529212032C
:100622006DB4020A900001120386429142921203B3
:100632006DB4030D900001120386FEF45291EE4256
:1006420092EF6402704312036DFE700B9000011270
:100652000386F452955296EEB4010B9000011203F8
:10066200864295F4529612036DB4020A900001126A
:1006720003864295429612036DB4030D9000011257
:100682000386FEF45295EE4296EF64037043120322
:100692006DFE700B900001120386F452B152B2EE5D
:1006A200B4010B90000112038642B1F452B212035C
:1006B2006DB4020A90000112038642B142B21203E3
:1006C2006DB4030D900001120386FEF452B1EE42A6
:1006D200B2EF6404704312036DFE700B90000112BE
:1006E2000386F452B352B4EEB4010B90000112032C
:1006F2008642B3F452B412036DB4020A900001129E
:10070200038642B342B412036DB4030D900001128A
:100712000386FEF452B3EE42B4EF64057043120353
:100722006DFE700B900001120386F452C952CAEE9C
:10073200B4010B90000112038642C9F452CA12039B
:100742006DB4020A90000112038642C942CA120322
:100752006DB4030D900001120386FEF452C9EE42FD
:10076200CAEF6406704312036DFE700B9000011213
:100772000386F452CB52CCEEB4010B90000112036B
:100782008642CBF452CC12036DB4020A90000112DD
:10079200038642CB42CC12036DB4030D90000112CA
:1007A2000386FEF452CBEE42CCEF64077043120391
:1007B2006DFF700B900001120386F452E152E2EFDA
:1007C200B4010B90000112038642E1F452E21203DB
:1007D2006DB4020A90000112038642E142E2120362
:1007E2006DB4030D900001120386FFF452E1EF4253
:0407F200E27F002280
:060A17008B318A328933A5
:100A1D00EF64016003020BCA753801F539F53AF53B
:100A2D003BF53CF53DF53E7F80900080E4F0A3DF83
:100A3D00FC7F80900000E4F0A3DFFCAB31AA32A96B
:100A4D003390000A120386FED3940340037F0222E3
:100A5D00EE700553B7EFC2BC90000A120386B401C5
:100A6D000553B7EFD2BC90000A120386FFB40205FE
:100A7D0043B710C2BCEFB4030543B710D2BC120389
:100A8D006DD394C040037F022212036DFFE598548D
:100A9D003F4FF598EF64C06008EF64406003020BB0
:100AAD005F90000212053C7F007E307D2A7C001293
:100ABD0004788F378E368D358C34E4FFFE7D01FC46
:100ACD00AB37AA36A935A834C312051840037F02E7
:100ADD0022C3E49537F537E49536F536740195352F
:100AED00F535E49534F534AB31AA32A933900001D4
:100AFD00120386FB6401702CC28E538EFE5389BF88
:100B0D005389CF438E40AF37AE36AD35AC34780810
:100B1D001205298F8D85378BC2AB5389BF538FFD3E
:100B2D00D28E8062EB64027026538EEF438E01539A
:100B3D008EF7438E04AF37AE36AD35AC3478081230
:100B4D0005298FD68537D753AFFB438E1080377F5E
:100B5D000222AB31AA32A93312036DFF701390003C
:100B6D0008120386B40105438E20801A538EDF8050
:100B7D0015EFB48011900008120386B40105438768
:100B8D0080800353877FAB31AA32A93390000912BD
:100B9D000386B40104D2AC8002C2AC9000071203EC
:100BAD0086B40104D29C8002C29C90000B12038675
:0F0BBD0054C0FFE5A2543F4FF5A27F00227F02F4
:010BCC002206
:100D22007480253AF582E43400F583EFF0053AE564
:100D32003AC394804003E4F53AE53B7005753B0104
:030D4200D2992221
:100D850012036DFF600C120D22740129F9E43AFA81
:030D950080EE22CB
:03002300020C8646
:100C8600C0E0C083C082C0D075D000C007309824B1
:100C9600C298E53E701EE53CC394804003753C0057
:100CA600AF3C053C74002FF582E43400F583E599EA
:100CB600F0753D05309927C299E539653A601C748F
:100CC600802539F582E43400F583E0F5990539E5A8
:100CD60039C3948040087539008003753B00D007FE
:090CE600D0D0D082D083D0E032DE
:10002600020358E86480F8E933E83360110460F0AD
:10003600ED33EC337009E8FCE9FDEAFEEBFF220440
:1000460060DED3EB9FEA9EE99DE8C2E78CF0C2F73B
:1000560095F0400CE8CCF8E9CDF9EACEFAEBCFFB07
:1000660012032385D0F05804700320D5B3E804703A
:10007600075002B2D502036292D5EC0460F7E4CCD5
:10008600C0E0C398F8603B94186008400DD0E0FBD0
:1000960002033AE4FBFAC9FC8028E830E406E4C926
:1000A600FBE4CAFCE830E305E4C9CACBFCE8540724
:1000B6006010F8C3E913F9EA13FAEB13FBEC13FC2F
:1000C600D8F130F52FC3E49CFCEF9BFFEE9AFEEDD2
:1000D60099FDD0E0FBEF4E4D4C701222DB0302037C
:1000E6005FEC2CFCEF33FFEE33FEED33FDED30E736
:1000F600EB02033AEF2BFFEE3AFEED39FDD0E0FBC3
:1001060050130BBB0003020362ED13FDEE13FEEF6B
:0801160013FFEC13FC02033A95
:10011E00EC4D6011E8497017ED33EC3304600DE4DB
:10012E00FCFFFEFD22E933E8330470F80203581297
:10013E00032358046009E4CC248150062850090298
:10014E00036228400302035FC0E0EB4A7044B980AB
:10015E0006D0E0FB02034EEF4E701CBD8008EBFF95
:10016E00EAFEE9FD80EBE98DF0A4FEE5F002020760
:10017E00E9CDF9EAFEEBFFEF89F0A4FCE5F0CE89BC
:10018E00F0A42EFFE435F0CD89F0A42DFEE435F079
:10019E008067EF4E7005BD80D780C3EF8BF0A4ACA7
:1001AE00F0EE8BF0A42CFCE435F0F8EF8AF0A42CE2
:1001BE00E5F038FCE433CB8DF0A42CFCE5F03BF8F5
:1001CE00EE8AF0A42CFCE5F038F8E433CF89F0A4E5
:1001DE002CFCE5F038CF3400CE89F0A42FFFE5F0EB
:1001EE003EFEE433C98DF0A42EFEE5F039CD8AF043
:1001FE00A42FFFE5F03EFEE43DFD33D0E0FB5007BB
:10020E000BBB000F020362EC2CFCEF33FFEE33FE50
:06021E00ED33FD02033A7E
:1002240074F8CC6480CCC86480C8F58204604FC381
:10023400EB9FF5F0EA9E42F0E99D42F0E89C45F020
:10024400603C501DE5825FFFE582D313CB5BCBF4AA
:100254002B5582FB50280ABA002409B900200880D3
:100264001DE5825BFBE582D313CF5FCFF4C3132F6D
:100274005582FF50090EBE00050DBD00010CC3EBF5
:100284009FF5F0EA9E42F0E99D42F0E89C45F0605B
:0902940007CC4820E701B3EC227D
:10029D00ED33EC33600A047003BD8004ECB2E7FC6F
:0102AD00222E
:1002AE0075F020800E75F010800575F0087D007ECB
:1002BE00007F003392D530D50312050AEC3340107F
:1002CE00EF33FFEE33FEED33FDEC33FCD5F0ED22D4
:0E02DE00E5F0247EA2D513CC92E7CDCEFF2210
:1002EC00EDD2E7CD33EC3392D524814006E4FFFE0A
:1002FC00FDFC22FCE4CFCECDCC24E0501174FF8069
:10030C00EDC3CC13CCCD13CDCE13CECF13CF047005
:07031C00F030D5DE02050AF6
:10032300E9D2E7C933E833F892D5EDD2E7CD33EC20
:0703330033FC5002B2D52299
:10033A00EC30E7100FBF000C0EBE00080DBD000424
:10034A000BEB6014A2D5EB13FCED92E7FD2274FFD0
:10035A00FCFDFEFF22E480F8A2D574FF13FC7D8029
:03036A00E480EF3D
:10036D00BB010689828A83E0225002E722BBFE028E
:09037D00E32289828A83E49322C1
:10038600BB010CE58229F582E5833AF583E022502C
:1003960006E92582F8E622BBFE06E92582F8E22276
:0D03A600E58229F582E5833AF583E4932290
:1003B300BB010689828A83F0225002F722BBFE0129
:0203C300F32223
:1003C500F8BB010DE58229F582E5833AF583E8F06E
:1003D500225006E92582C8F622BBFE05E92582C81A
:0203E500F22202
:1003E700BC000BBE0029EF8DF084FFADF022E4CCFA
:1003F700F875F008EF2FFFEE33FEEC33FCEE9DECC3
:10040700984005FCEE9DFE0FD5F0E9E4CEFD22ED08
:10041700F8F5F0EE8420D21CFEADF075F008EF2F52
:10042700FFED33FD4007985006D5F0F222C398FD43
:050437000FD5F0EA22E0
:10043C0075F008758200EF2FFFEE33FECD33CDCC77
:10044C0033CCC58233C5829BED9AEC99E5829840FA
:10045C000CF582EE9BFEED9AFDEC99FC0FD5F0D6D7
:10046C00E4CEFBE4CDFAE4CCF9A88222B800C1B901
:10047C000059BA002DEC8BF084CFCECDFCE5F0CB3F
:10048C00F97818EF2FFFEE33FEED33FDEC33FCEB78
:10049C0033FB10D703994004EB99FB0FD8E5E4F933
:1004AC00FA227818EF2FFFEE33FEED33FDEC33FC20
:1004BC00C933C910D7059BE99A4007EC9BFCE99A14
:1004CC00F90FD8E0E4C9FAE4CCFB2275F010EF2F59
:1004DC00FFEE33FEED33FDCC33CCC833C810D70759
:1004EC009BEC9AE899400AED9BFDEC9AFCE899F894
:0E04FC000FD5F0DAE4CDFBE4CCFAE4C8F92227
:0E050A00C3E49FFFE49EFEE49DFDE49CFC2202
:10051800EB9FF5F0EA9E42F0E99D42F0E89C45F039
:0105280022B0
:10052900E8600FECC313FCED13FDEE13FEEF13FFB0
:03053900D8F122D4
:10053C00BB010DE58229F582E5833AF58302057945
:10054C005007E92582F802056CBBFE07E92582F805
:10055C00020585E58229F582E5833AF58302059249
:0D056C00E6FB08E6F908E6FA08E6CBF822FF
:0C057900E0F8A3E0F9A3E0FAA3E0FB2205
:0D058500E2FB08E2F908E2FA08E2CBF822F6
:10059200E493F8740193F9740293FA740393FB22BF
:00000001FF
