:03000000020CDE11
:0C0CDE00787FE4F6D8FD75814E020D25EC
:0B1850000000007F0B7EBEDEFEDFFC10
:01185B00226A
:0E184200AD07AF051DEF600512185080F522AE
:1016FF0031323132313231323132313200313233F3
:10170F004142432E2C6D3C3E3F61626364656667C8
:0E171F0068696A6B6C00FE123456709ABCD07A
:10177B00E4F5107511F0FB7A0079107F0112086601
:0E178B007511107B007A0079107F0402086649
:06186C0012177B020BFCC9
:1014DD00E4F5107511FFFB7A0079107F061208668E
:1014ED0075110F7B007A0079107F07120866751150
:1014FD00017B007A0079107F021208667511017B5D
:0A150D00007A0079107F04020866DE
:100F770078087C007D007BFF7A1779257E007F0843
:100F8700120B8A12186C7BFF7A1679FFE4FDFF12A9
:100F9700115A7BFF7A17790C7D02E4FF1214A27BAA
:100FA700007A0079087515087D04E4FF120FC7124F
:100FB70014DDD2EAC2EBD2C0C2ECD2EDC2EE80FEA3
:10004E000000000000000000002F0000000007006C
:10005E00070000147F147F1400242A7F2A120062E6
:10006E006408132300364955225000000503000092
:10007E0000001C224100000041221C000014083E1A
:10008E0008140008083E0808000000A060000008E0
:10009E000808080800006060000000201008040234
:1000AE00003E5149453E0000427F400000426151F2
:1000BE004946002141454B31001814127F1000278C
:1000CE0045454539003C4A4949300001710905034F
:1000DE0000364949493600064949291E0000363680
:1000EE0000000000563600000008142241000014E3
:1000FE0014141414000041221408000201510906C0
:10010E0000324959513E007C1211127C007F494940
:10011E004936003E41414122007F4141221C007F71
:10012E0049494941007F09090901003E4149497A7F
:10013E00007F0808087F0000417F410000204041F9
:10014E003F01007F08142241007F40404040007F65
:10015E00020C027F007F0408107F003E4141413EA9
:10016E00007F09090906003E4151215E007F0919F1
:10017E0029460046494949310001017F0101003FEE
:10018E004040403F001F2040201F003F4038403F6E
:10019E0000631408146300070870080700615149D2
:1001AE00454300007F41410000552A552A55000065
:1001BE0041417F00000402010204004040404040E3
:1001CE00000001020400002054545478007F48447B
:1001DE00443800384444442000384444487F0038B2
:1001EE005454541800087E0901020018A4A4A47CDB
:1001FE00007F080404780000447D400000408084A5
:10020E007D00007F102844000000417F4000007CEC
:10021E0004180478007C08040478003844444438F8
:10022E0000FC242424180018242418FC007C080444
:10023E00040800485454542000043F444020003C1D
:10024E004040207C001C2040201C003C4030403CA4
:10025E00004428102844001CA0A0A07C0044645434
:10026E004C44141414141414000000000000000078
:10027E000000000000000000000000F80000000078
:10028E00000000333000000000100C06100C0600B9
:10029E00000000000000000040C07840C078400020
:1002AE00043F04043F040400007088FC0830000082
:1002BE00001820FF211E0000F008F000E0180000DA
:1002CE0000211C031E211E0000F008887000000093
:1002DE001E2123241927211010160E0000000000E5
:1002EE000000000000000000000000E01804020002
:1002FE00000000071820400000020418E000000073
:10030E000040201807000000404080F08040400070
:10031E000202010F01020200000000F000000000C6
:10032E000101011F0101010000000000000000009A
:10033E0080B070000000000000000000000000000F
:10034E000001010101010101000000000000000098
:10035E000030300000000000000000008060180433
:10036E00006018060100000000E010080810E00010
:10037E00000F102020100F00001010F800000000D9
:10038E000020203F20200000007008080888700020
:10039E0000302824222130000030088888483000A0
:1003AE000018202020110E000000C02010F80000C0
:1003BE0000070424243F240000F808888808080059
:1003CE000019212020110E0000E01088881800006E
:1003DE00000F112020110E0000380808C838080040
:1003EE000000003F000000000070880808887000C0
:1003FE00001C222121221C0000E010080810E00041
:10040E000000312222110F00000000C0C0000000C9
:10041E0000000030300000000000008000000000EE
:10042E0000008060000000000000804020100800E6
:10043E0000010204081020004040404040404000AF
:10044E00040404040404040000081020408000008A
:10045E000020100804020100007048080808F0008F
:10046E000000003036010000C030C828E810E0005F
:10047E000718272423140B000000C038E0000000EA
:10048E00203C23020227382008F888888870000054
:10049E00203F202020110E00C03008080808380028
:1004AE00071820202010080008F808080810E0009F
:1004BE00203F202020100F0008F88888E808100040
:1004CE00203F20202320180008F88888E808100014
:1004DE00203F200003000000C0300808083800004C
:1004EE0007182020221E020008F808000008F8084D
:1004FE00203F210101213F20000808F808080000D4
:10050E000020203F2020000000000808F808080006
:10051E00C08080807F00000008F888C0281808007E
:10052E00203F20012638200008F8080000000000B7
:10053E00203F20202020300008F8F800F8F80800AE
:10054E00203F003F003F200008F830C00008F808A8
:10055E00203F200007183F00E01008080810E000B8
:10056E000F10202020100F0008F808080808F000CF
:10057E00203F210101010000E01008080810E000F2
:10058E000F18242438504F0008F888888888700087
:10059E00203F2000030C3020007088080808380027
:1005AE000038202121221C00180808F8080818001D
:1005BE000000203F2000000008F808000008F8089E
:1005CE00001F202020201F000878880000C838084F
:1005DE00000007380E010000F80800F80008F800C7
:1005EE00033C0700073C0300081868808068180861
:1005FE0020302C03032C30200838C800C8380800DF
:10060E000000203F2000000010080808C83808002D
:10061E002038262120201800000000FE02020200D1
:10062E000000007F40404000000C30C00000000081
:10063E00000000010638C00000020202FE000000A9
:10064E00004040407F00000000000402020204004F
:10065E00000000000000000000000000000000008C
:10066E008080808080808080000202040000000074
:10067E00000000000000000000008080808000006C
:10068E000019242222223F2008F80080800000005A
:10069E00003F112020110E0000000080808000001D
:1006AE00000E112020201100000000808088F8002C
:1006BE00000E112020103F2000008080808000005E
:1006CE00001F222222221300008080F088888818C2
:1006DE000020203F202000000000808080808000CD
:1006EE00006B94949493600008F800808080000062
:1006FE00203F210000203F2000809898000000003D
:10070E000020203F2020000000000080989800006C
:10071E0000C08080807F000008F80000808080008C
:10072E00203F24022D302000000808F800000000B1
:10073E000020203F2020000080808080808080006C
:10074E00203F20003F20003F8080008080800000FE
:10075E00203F210000203F2000008080808000008C
:10076E00001F202020201F008080008080000000BD
:10077E0080FFA12020110E000000008080808000EC
:10078E00000E112020A0FF808080800080808000DD
:10079E0020203F212000010000008080808080000A
:1007AE000033242424241900008080E0808000007F
:1007BE000000001F202000008080000000808000CC
:1007CE00001F202020103F2080808000008080802D
:1007DE0000010E30080601008080008000808080BD
:1007EE000F300C030C300F000080800080808000E2
:1007FE000020312E0E31200080808000008080800D
:10080E0080818E70180601000080808080808000BC
:10081E000021302C2221300000000000807C0202DA
:10082E0000000000003F404000000000FF000000FC
:10083E0000000000FF0000000002027C80000000AB
:10084E000040403F000000000006010102020404C7
:08085E00000000000000000092
:100BFC00D2957F64121842C2957F64121842D29526
:100C0C00E4FD7FAE1216A8E4FDFF1216A8E4FD7FEA
:100C1C00101216A8E4FD7F401216A8E4FD7F811285
:100C2C0016A8E4FD7FCF1216A8E4FD7FA11216A82A
:100C3C00E4FD7FC81216A8E4FD7FA61216A8E4FDF9
:100C4C007FA81216A8E4FD7F3F1216A8E4FD7FD3FF
:100C5C001216A8E4FDFF1216A8E4FD7FD51216A803
:100C6C00E4FD7F801216A8E4FD7FD91216A8E4FDDE
:100C7C007FF11216A8E4FD7FDA1216A8E4FD7F12AC
:100C8C001216A8E4FD7FDB1216A8E4FD7F401216B5
:100C9C00A8E4FD7F201216A8E4FD7F021216A8E43A
:100CAC00FD7F8D1216A8E4FD7F141216A8E4FD7FBB
:100CBC00A41216A8E4FD7FA61216A8E4FD7FAF12BD
:100CCC0016A8E4FD7FAF1216A812172DE4FDFF0243
:020CDC00000313
:0716A100F583E493FF7D01D6
:1016A800ED6004D2968002C296C297E4FEC294EF1F
:1016B80030E704D2C48002C2C4D294EF25E0FF0E02
:0716C800BE08EAD297D2969A
:0116CF0022F8
:10000300AC07ED24B0FFE4FD1216A8EC54F0C45481
:100013000F4410FF1216A8EC540F4401FF0216A858
:10172D00E4FCEC24B0FFE4FD1216A8E4FF1216A8A9
:10173D007F101216A8E4FB7D01E4FF1216A80BBB67
:06174D0080F50CBC08DC75
:011753002273
:10181E0053070FEFC3940A500574302FFF22EF24A5
:03182E0037FF225F
:060DE700AA07A905AF03F5
:100DED00EF24E0FBC394004006EFD3947E40027BDA
:100DFD001FEAD3947F4004E4FA0909AF02AD011252
:100E0D000003E4FC75F010EBA42CF582E435F0F54D
:100E1D0083E5822476F582E58334021216A10CBC9B
:100E2D0008E2AF02E904FD120003E4FC75F010EBDB
:100E3D00A42CF582E435F0F583E582247EF582E578
:0A0E4D008334021216A10CBC08E267
:010E57002278
:0A115A008F108D118B128A13891477
:10116400E4F515AB12AA13A9148515827583001230
:101174000BC9FB601DAD11AF10120DE774082510EB
:10118400F510D394784007E4F51005110511051501
:0211940080D108
:011196002236
:0A146700FF12181EAB07AD11AF1005
:10147100EB24E0FBEFD3947F4003E4FF0D12000364
:10148100E4FC75F006EBA4244EF582E5F03400F59A
:1014910083E5822CF582E435831216A10CBC06E2A9
:0114A1002228
:0A14A2008F108D118B128A1389142C
:1014AC00E4F515AB12AA13A91485158275830012E5
:1014BC000BC9FB601BAD11AF101214717406251013
:1014CC00F510D394784005E4F5100511051580D37B
:0114DC0022ED
:0A0FC7008F108D118B128A1389140C
:100FD100E4F516E516C3951550390510AB12AA13A1
:100FE100A914851682758300120BC9C4540F1214FB
:100FF1006774062510F510AB12AA13A91485168281
:10100100758300120BC912146774092510F51005B8
:031011001680C086
:0110140022B9
:10086600EFD3940740037FFF22120BB0FED394030D
:1008760040037FFF22EF7041EE700B900001120BD8
:10088600C9F452935294120BB0B4010B90000112AA
:100896000BC94293F45294120BB0FEB4020A9000B4
:1008A60001120BC942934294EEB4030D900001125B
:1008B6000BC9FEF45293EE4294EF64017043120B9F
:1008C600B0FE700B900001120BC9F452915292EED9
:1008D600B4010B900001120BC94291F45292120B13
:1008E600B0B4020A900001120BC942914292120B57
:1008F600B0B4030D900001120BC9FEF45291EE4202
:1009060092EF64027043120BB0FE700B900001125E
:100916000BC9F452955296EEB4010B900001120BDE
:10092600C94295F45296120BB0B4020A9000011215
:100936000BC942954296120BB0B4030D90000112FA
:100946000BC9FEF45295EE4296EF64037043120B08
:10095600B0FE700B900001120BC9F452B152B2EE08
:10096600B4010B900001120BC942B1F452B2120B42
:10097600B0B4020A900001120BC942B142B2120B86
:10098600B0B4030D900001120BC9FEF452B1EE4251
:10099600B2EF64047043120BB0FE700B90000112AC
:1009A6000BC9F452B352B4EEB4010B900001120B12
:1009B600C942B3F452B4120BB0B4020A9000011249
:1009C6000BC942B342B4120BB0B4030D900001122E
:1009D6000BC9FEF452B3EE42B4EF64057043120B3A
:1009E600B0FE700B900001120BC9F452C952CAEE48
:1009F600B4010B900001120BC942C9F452CA120B82
:100A0600B0B4020A900001120BC942C942CA120BC5
:100A1600B0B4030D900001120BC9FEF452C9EE42A8
:100A2600CAEF64067043120BB0FE700B9000011201
:100A36000BC9F452CB52CCEEB4010B900001120B51
:100A4600C942CBF452CC120BB0B4020A9000011288
:100A56000BC942CB42CC120BB0B4030D900001126D
:100A66000BC9FEF452CBEE42CCEF64077043120B77
:100A7600B0FF700B900001120BC9F452E152E2EF85
:100A8600B4010B900001120BC942E1F452E2120BC1
:100A9600B0B4020A900001120BC942E142E2120B05
:100AA600B0B4030D900001120BC9FFF452E1EF42FE
:040AB600E27F0022B9
:10155100EFD394015009EF7004C2A98002D2A9ED22
:10156100D394035020ED700553B7FDC2B9BD0105F9
:1015710053B7FDD2B9BD020543B702C2B9BD0305D8
:0815810043B702D2B97F00223A
:10158900EFD394015009EF7004C2AB8002D2ABEDE6
:10159900D394035020ED700553B7F7C2BBBD0105C5
:1015A90053B7F7D2BBBD020543B708C2BBBD03059C
:0815B90043B708D2BB7F0022FA
:1017C700EFD39401500DEF25E025E0FFE5AF54FB83
:0617D7004FF5AFE4FF2214
:1017DD00EFD39401500DEFC43354E0FFE5AF54DF68
:0617ED004FF5AFE4FF22FE
:10179900EFD39401500EEFC4333354C0FFE5AF5477
:0717A900BF4FF5AFE4FF2282
:1015C100EFD394015009EF7004C2A88002D2A8EDB4
:1015D100D394035020ED700553B7FEC2B8BD010589
:1015E10053B7FED2B8BD020543B701C2B8BD03056A
:0815F10043B701D2B87F0022CC
:1015F900EFD394015009EF7004C2AA8002D2AAED78
:10160900D394035020ED700553B7FBC2BABD010551
:1016190053B7FBD2BABD020543B704C2BABD03052D
:0816290043B704D2BA7F00228E
:10180900EFD39401500CEFC454F0FFE58F54EF4F20
:05181900F58FE4FF2241
:1017F300EFD39401500DEFC43354E0FFE58F54DF72
:061803004FF58FE4FF2207
:1017B000EFD39401500EEFC4333354C0FFE58F5480
:0717C000BF4FF58FE4FF228B
:10163100EFD394015009EF7004C2AD8002D2ADED39
:10164100D394035020ED700553B7DFC2BDBD010532
:1016510053B7DFD2BDBD020543B720C2BDBD0305EF
:0816610043B720D2BD7F002237
:10101500EF30E10543E620800353E6DFEF30E005DE
:1010250043E610800353E6EFEDD394035024ED70AF
:101035000653B6DF53B5DFBD010653B6DF43B52012
:10104500BD020643B62053B5DFBD030643B62043B4
:05105500B5207F002220
:100F1E00EFD3940140037FFF2243BA80BF0112ED4D
:100F2E0090FE817006E0547FF08011E04480F080E6
:100F3E000BEF700890FE83E054874DF0EBD39403D3
:100F4E005024EB700653B6DF53B5DFBB010653B624
:100F5E00DF43B520BB020643B62053B5DFBB030605
:090F6E0043B62043B5207F0022A8
:10166900EFD394015009EF7004C2AC8002D2ACED03
:10167900D394035020ED700553B7EFC2BCBD0105EB
:1016890053B7EFD2BCBD020543B710C2BCBD0305B9
:0816990043B710D2BC7F002210
:10151700EFD394015007E5AF54FE4FF5AFEDD394E9
:10152700035024ED700653B6FE53B5FEBD010653B6
:10153700B6FE43B501BD020643B60153B5FEBD0372
:0A1547000643B60143B5017F002200
:10109C00EFD39401500EEF33333354F8FFE5AF54D4
:1010AC00F74FF5AFEDD394035024ED700653EEFEDD
:1010BC0053DFFEBD010653EEFE43DF01BD020643C6
:1010CC00EE0153DFFEBD030643EE0143DF017F005B
:0110DC0022F1
:1010DD00EFD39401500CEFC454F0FFE5AF54EF4F34
:1010ED00F5AFEDD394035024ED700653EEFD53DFB1
:1010FD00FDBD010653EEFD43DF02BD020643EE02C8
:0F110D0053DFFDBD030643EE0243DF027F0022E6
:10111C00EFD39401500BEF25E0FFE5AF54FD4FF5F5
:10112C00AFEDD394035024ED700653B6FD53B5FDCB
:10113C00BD010653B6FD43B502BD020643B60253CC
:0E114C00B5FDBD030643B60243B5027F002287
:100EC000EBD394035020EB700553B77FC2BFBB0137
:100ED0000553B77FD2BFBB020543B780C2BFBB0378
:100EE0000543B780D2BFEF14601114601214601371
:100EF00014601D240470248DDA80208DDB801C8D0D
:100F0000DC801843BA8090FD54EDF053BA7F800B1B
:0E0F1000ED5401FFE5D954FE4FF5D97F0022C4
:1011970043BA8090FA10E054F0F0EDD39403500B6B
:1011A700E0FEED25E025E0FDEE4DF0EBD394035096
:1011B7000690FA10E04BF090FA10E0BF010544806A
:0C11C700F08003547FF053BA7F7F0022B9
:1011D30043BA8090FA00E054F0F0EDD39403500B3F
:1011E300E0FEED25E025E0FDEE4DF0EBD39403505A
:1011F3000690FA00E04BF090FA00E0BF010544804E
:0C120300F08003547FF053BA7F7F00227C
:10120F0043BA8090FA20E054F0F0EDD39403500BE2
:10121F00E0FEED25E025E0FDEE4DF0EBD39403501D
:10122F000690FA20E04BF090FA20E0BF01054480D1
:0C123F00F08003547FF053BA7F7F002240
:10124B0043BA8090FA30E054F0F0EDD39403500B96
:10125B00E0FEED25E025E0FDEE4DF0EBD3940350E1
:10126B000690FA30E04BF090FA30E0BF0105448075
:0C127B00F08003547FF053BA7F7F002204
:1012870043BA8090FA38E054F0F0EDD39403500B52
:10129700E0FEED25E025E0FDEE4DF0EBD3940350A5
:1012A7000690FA38E04BF090FA38E0BF0105448029
:0C12B700F08003547FF053BA7F7F0022C8
:1012C30043BA8090FA40E054F0F0EDD39403500B0E
:1012D300E0FEED25E025E0FDEE4DF0EBD394035069
:1012E3000690FA40E04BF090FA40E0BF01054480DD
:0C12F300F08003547FF053BA7F7F00228C
:1012FF0043BA8090FA48E054F0F0EDD39403500BCA
:10130F00E0FEED25E025E0FDEE4DF0EBD39403502C
:10131F000690FA48E04BF090FA48E0BF0105448090
:0C132F00F08003547FF053BA7F7F00224F
:10133B0043BA8090FA50E054F0F0EDD39403500B85
:10134B00E0FEED25E025E0FDEE4DF0EBD3940350F0
:10135B000690FA50E04BF090FA50E0BF0105448044
:0C136B00F08003547FF053BA7F7F002213
:1013770043BA8090FA58E054F0F0EDD39403500B41
:10138700E0FEED25E025E0FDEE4DF0EBD3940350B4
:101397000690FA58E04BF090FA58E0BF01054480F8
:0C13A700F08003547FF053BA7F7F0022D7
:1013B30043BA8090FA60E054F0F0EDD39403500BFD
:1013C300E0FEED25E025E0FDEE4DF0EBD394035078
:1013D3000690FA60E04BF090FA60E0BF01054480AC
:0C13E300F08003547FF053BA7F7F00229B
:1013EF0043BA8090FA68E054F0F0EDD39403500BB9
:1013FF00E0FEED25E025E0FDEE4DF0EBD39403503C
:10140F000690FA68E04BF090FA68E0BF010544805F
:0C141F00F08003547FF053BA7F7F00225E
:10142B0043BA8090FA70E054F0F0EDD39403500B74
:10143B00E0FEED25E025E0FDEE4DF0EBD3940350FF
:10144B000690FA70E04BF090FA70E0BF0105448013
:0C145B00F08003547FF053BA7F7F002222
:1016D00043BA8090FE50E054CFF0EDD39403500A0B
:1016E000E0FEEDC454F0FDEE4DF090FE50E0BF0181
:0F16F000054480F08003547FF053BA7F7F0022BF
:100D6A00900001120BC9B4010553CE7F800343CE14
:100D7A0080120BB0C4333354C0FFE5CE54BF4FF5D5
:100D8A00CE900002120BC9C43354E0FFE5CE54DF03
:100D9A004FF5CE900003120BC9C454F0FFE5CE54B0
:100DAA00EF4FF5CE900004120BC933333354F8FFDA
:100DBA00E5CE54F74FF5CE900005120BC925E02574
:100DCA00E0FFE5CE54FB4FF5CE900006120BC9FFAB
:0D0DDA00E5CE54FC4FF5CEE4F51AC2002220
:10183100EF700753CEEF53CE7F2243CE1043CE80BD
:011841002284
:08185C008FCFD2002000FD2215
:03004B0002105A46
:10105A00C0E0C083C082C0D075D000C007E5CE30E2
:10106A00E404C200801EE51BC394804003751B0084
:10107A00AF1B051B74002FF582E43400F583E5CF1E
:10108A00F0751A0575CDC0D007D0D0D082D083D0E4
:02109A00E03242
:0518720003240000004A
:1017540053877F759850538EBF538EFE53890F4322
:101764008920758BF3758DF3C2ABD28ED2AFD2AC18
:071774008B248A258926223F
:081864002001FD8F99D2012241
:100026008B178A188919AB17AA18A919120BB06071
:10003600130519E5197002051814F9120BB0FF1211
:05004600186480E222B5
:03002300020E5872
:100E5800C0E0C0F0C083C082C0D075D000C000C060
:100E680001C002C003C004C005C006C007309826F0
:100E7800C2988599A085A099D20185A027E5254526
:100E880026452460117B007A0079278526828525EE
:100E9800837D01120BFA309904C299C201D007D0A0
:100EA80006D005D004D003D002D001D000D0D0D0D5
:080EB80082D083D0F0D0E032BB
:100CEA00020F77E493A3F8E493A34003F68001F29A
:100CFA0008DFF48029E493A3F85407240CC8C3330B
:100D0A00C4540F4420C8834004F456800146F6DFD9
:100D1A00E4800B0102040810204080901872E47EDF
:100D2A00019360BCA3FF543F30E509541FFEE493CE
:100D3A00A360010ECF54C025E060A840B8E493A395
:100D4A00FAE493A3F8E493A3C8C582C8CAC583CAC0
:100D5A00F0A3C8C582C8CAC583CADFE9DEE780BE78
:011877000070
:100ABA00E709F608DFFA8046E709F208DFFA803E1E
:100ACA0088828C83E709F0A3DFFA8032E309F6080B
:100ADA00DFFA8078E309F208DFFA807088828C8373
:100AEA00E309F0A3DFFA806489828A83E0A3F60827
:100AFA00DFFA805889828A83E0A3F208DFFA804C01
:100B0A0080D280FA80C680D4806980F280338010D7
:100B1A0080A680EA809A80A880DA80E280CA803340
:100B2A0089828A83ECFAE493A3C8C582C8CCC583B8
:100B3A00CCF0A3C8C582C8CCC583CCDFE9DEE78088
:100B4A000D89828A83E493A3F608DFF9ECFAA9F007
:100B5A00EDFB2289828A83ECFAE0A3C8C582C8CC5D
:100B6A00C583CCF0A3C8C582C8CCC583CCDFEADE76
:100B7A00E880DB89828A83E493A3F208DFF980CCD8
:100B8A0088F0EF60010E4E60C388F0ED2402B404D1
:100B9A000050B9F582EB2402B4040050AF23234578
:060BAA008223900B0A7388
:100BB000BB010689828A83E0225002E722BBFE0243
:090BC000E32289828A83E4932276
:100BC900BB010CE58229F582E5833AF583E02250E1
:100BD90006E92582F8E622BBFE06E92582F8E2222B
:0D0BE900E58229F582E5833AF583E4932245
:060BF6008A838982E4738A
:00000001FF
