:0F0023007D367C07ED1D70011C144C70F7DFF16A
:0100320022AB
:10054200EFFB7A00702ED3ED9420EC941740047CDC
:10055200177D20C3ED9450EC940050047C007D5034
:10056200C2DE8C118D12C374709DF50C74179CF54C
:100572000BD2DE22EB64014A702ED3ED9420EC9470
:100582001740047C177D20C3ED9450EC9400500476
:100592007C007D50C2DE8C138D14C374709DF50EE9
:1005A20074179CF50DD2DE22EB64024A702DD3ED56
:1005B2009420EC941740047C177D20C3ED9450ECFA
:1005C200940050047C007D50C2DE8C158D16C374DD
:0C05D200709DF51074179CF50FD2DE220E
:1002B5008B2A8A2B892CAD07ED7E00D3940374809D
:1002C5009480400302045FEF6403600302035BC292
:1002D500DEF5F9F5E9AB2AAA2BA92C1205DEFFE517
:1002E500A254CF4FF5A29000011205F7FFE5D954AE
:1002F500F14FF5D99000041205F75401FFE5D954E3
:10030500FE4FF5D99000051205F7FFD394037480CD
:100315009480400302045FEF700553B77FC2BFEFBF
:1003250064014E700553B77FD2BFEF64024E70056E
:1003350043B780C2BFEF64034E700543B780D2BF99
:10034500AB2AAA2BA92C9000081205F764016003BB
:1003550002045FD2DE22AB2AE52C2404F9E4352B16
:10036500FA1205DE5431120624AB2AAA2BA92C90C9
:1003750000021205F7C3944874809480400FE92465
:1003850004F9E43AFA1205DE54CF120624ED704062
:10039500AB2AAA2BA92C9000041205F7FF900002A6
:1003A5001205F7FE4FF5DA9000031205F7FFE5F2A7
:1003B500543F4FF5F2900006120636F51285F011FE
:1003C500C2008E08851117F5188518EAE517F5FAA4
:1003D500ED64017040AB2AAA2BA92C9000041205EC
:1003E500F7FF9000021205F7FE4FF5DB90000312B0
:1003F50005F7FFE5F3543F4FF5F390000612063677
:10040500F51485F013C2018E09851319F51A851A9D
:10041500EBE519F5FBED64027040AB2AAA2BA92C7C
:100425009000041205F7FF9000021205F7FE4FF544
:10043500DC9000031205F7FFE5F4543F4FF5F49007
:100445000006120636F51685F015C2028E0A8515C8
:0B0455001BF51C851CECE51BF5FC22D0
:03003B0002066E4C
:10066E00C0E0C0D030D822C2D830910AE512251889
:10067E00F518E5118008E50C2518F518E50B35176A
:10068E00F5178518EAE517F5FA30D922C2D9309058
:10069E000AE514251AF51AE5138008E50E251AF554
:1006AE001AE50D3519F519851AEBE519F5FB30DA52
:1006BE0022C2DA30B70AE516251CF51CE5158008AE
:1006CE00E510251CF51CE50F351BF51B851CECE50F
:0D06DE001BF5FC30DF02C2DFD0D0D0E032CF
:100003007522FFE4F521FB7A0079217F0112003E7E
:10001300752280E4F521FB7A0079217F0302003EFB
:1006EB00752208E4F521F525F526F529FB7A007925
:1006FB00217F031202B575234CE4F5247525017493
:10070B00FFF527F5287B007A007921E4FF1202B56B
:10071B0075234CE4F52475250174FFF527F5287B2B
:10072B00007A0079217F011202B575234CE4F52480
:10073B0075250174FFF527F5287B007A0079217F59
:04074B00020202B5EF
:100460001200031206EB752D05752EDC752F0B752A
:1004700030B8753111753294C203C204C205AD2E75
:10048000AC2DE4FF120542AD30AC2F7F01120542C6
:10049000AD32AC317F02120542D2AF7F0112002390
:1004A000300316E52E152E7002152D14D39450E549
:1004B0002D94005017C2038013052EE52E700205FF
:1004C0002DC39420E52D94174002D203AD2EAC2D00
:1004D000E4FF120542300416E53015307002152F86
:1004E00014D39450E52F94005017C20480130530A4
:1004F000E5307002052FC39420E52F94174002D2F7
:1005000004AD30AC2F7F01120542300516E53215DF
:10051000327002153114D39450E53194005017C253
:100520000580130532E53270020531C39420E531B0
:1005300094174002D205AD32AC317F02120542025F
:02054000049B1A
:10003E00EFD394077480948040037F01221205DE73
:10004E00FED394037480948040037F0222EF7044A9
:10005E00EE700B9000011205F7F4529352941205B4
:10006E00DE6401700B9000011205F74293F4529476
:10007E001205DEFE6402700A9000011205F742932B
:10008E004294EE6403700D9000011205F7FEF452D7
:10009E0093EE4294EF640170461205DEFE700B90F3
:1000AE0000011205F7F452915292EE6401700B901A
:1000BE0000011205F74291F452921205DE640270AD
:1000CE000A9000011205F7429142921205DE640376
:1000DE00700D9000011205F7FEF45291EE4292EF70
:1000EE00640270461205DEFE700B9000011205F7D9
:1000FE00F452955296EE6401700B9000011205F7C2
:10010E004295F452961205DE6402700A90000112B6
:10011E0005F7429542961205DE6403700D900001BC
:10012E001205F7FEF45295EE4296EF6403704612F6
:10013E0005DEFE700B9000011205F7F452B152B2BB
:10014E00EE6401700B9000011205F742B1F452B249
:10015E001205DE6402700A9000011205F742B142E8
:10016E00B21205DE6403700D9000011205F7FEF465
:10017E0052B1EE42B2EF640470461205DEFE700B11
:10018E009000011205F7F452B352B4EE6401700BF5
:10019E009000011205F742B3F452B41205DE640268
:1001AE00700A9000011205F742B342B41205DE64E4
:1001BE0003700D9000011205F7FEF452B3EE42B437
:1001CE00EF640570461205DEFE700B9000011205FD
:1001DE00F7F452C952CAEE6401700B900001120579
:1001EE00F742C9F452CA1205DE6402700A90000189
:1001FE001205F742C942CA1205DE6403700D900063
:10020E00011205F7FEF452C9EE42CAEF64067046BB
:10021E001205DEFE700B9000011205F7F452CB5260
:10022E00CCEE6401700B9000011205F742CBF45234
:10023E00CC1205DE6402700A9000011205F742CB63
:10024E0042CC1205DE6403700D9000011205F7FE1C
:10025E00F452CBEE42CCEF640770491205DEFF7EFE
:10026E0000700B9000011205F7F452E152E2EF64B8
:10027E00014E700B9000011205F742E1F452E212AA
:10028E0005DE6402700A9000011205F742E142E2B7
:10029E001205DE6403700D9000011205F7FFF45293
:0702AE00E1EF42E27F0022B4
:0300000002074FA5
:0C074F00787FE4F6D8FD7581320204606A
:1005DE00BB010689828A83E0225002E722BBFE021B
:0905EE00E32289828A83E493224E
:1005F700BB010CE58229F582E5833AF583E02250B9
:1006070006E92582F8E622BBFE06E92582F8E22202
:0D061700E58229F582E5833AF583E493221C
:10062400BB010689828A83F0225002F722BBFE01B5
:02063400F322AF
:10063600BB0110E58229F582E5833AF583E0F5F002
:10064600A3E0225009E92582F886F008E622BBFEDF
:100656000AE92582F8E2F5F008E222E5832AF58325
:08066600E993F5F0A3E99322EA
:00000001FF
