:10000000020FAE43BA8090FA21E4F053BA7F0000A9
:1000100000000000C2A275CED243BA8074C0F05373
:10002000BA7F22020C309005887401F0A3F0E4A39B
:10003000F0A3F0A3F0A3F0A37402F07B017A05799A
:0A00400088120AC5E4FDFF020C86D9
:10004B00020D2575950075960053B1FC53B2FCE576
:0F005B00A254F34404F5A2D2A222AE070201156B
:10006B00020A2F43BA8090FA22E4F09000031205A3
:10007B008AFF90FA27E5F0F0A3EFF0900005120548
:10008B008AFF90FA25E5F0F0A3EFF0900007120538
:10009B005D90FA23F090000912055DFFD394037471
:1000AB00809480500890FA29E054FC4FF0900001A6
:1000BB0012055D640190FA207006E04440F0800464
:1000CB00E054BFF090000212055D640190FA2070BD
:1000DB0006E04420F08004E054DFF09000081205A5
:1000EB005D640190FA297006E04404F08004E0544A
:1000FB00FBF0120544640190FA217006E04480F095
:10010B008004E0547FF053BA7F228F9990040374DC
:09011B0001F0900403E070FA22E7
:02012B0021DDD4
:0201330021DDCC
:02013B0021DDC4
:0201430021DDBC
:02014B0021DDB4
:0201530021DDAC
:02015B0021DDA4
:020163008078A2
:02016B008070A2
:020173008068A2
:02017B008060A2
:020183008058A2
:02018B008050A2
:020193008048A2
:02019B008040A2
:0201A3008038A2
:0201AB008030A2
:0201B3008028A2
:0201BB008020A2
:0201C3008018A2
:0201CB008010A2
:0201D3008008A2
:1001DB008000016BE508248BF582E43405F583E0A0
:1001EB0005082290058830070390058BE475F00114
:1001FB001207690205442000E97F2ED2008018EF18
:10020B00540F2490D43440D4FF30040BEF24BFB4EC
:10021B001A0050032461FFE50960021509050CE57E
:10022B000C7002050B30070E900588E475F0011277
:10023B000769EF0207210200657403D2078003E40C
:10024B00C207F508900588120780E4F509F50BF550
:10025B000CE50960077F2012022280F5750AFFC2A8
:10026B0001C200C202C203C205C206C2081201EEDD
:10027B00FF700D3007057F00120233AF0CAE0B225F
:10028B00B4255FC2D5C2041201EEFF24D0B40A001C
:10029B00501A75F00A780930D50508B6FF0106C665
:1002AB00A426F620D5047002D20380D924CFB41A29
:1002BB0000EF5004C2E5D204020434D20180C6D24E
:1002CB000080C0D20280BCD2D580BAD20580B47F68
:1002DB00201202222002077401B5090040F112011D
:1002EB00DFFF12022202025CD208D20680951201B5
:1002FB00DFFB1201DFFA1201DFF94A4B70067905B9
:10030B007A057BFF20022EE509602A7E008E82751E
:10031B00830012055D60060EEE650A70F0C2D5EB28
:10032B00C0E0EAC0E0E9C0E0EE12047BD0E0F9D017
:10033B00E0FAD0E0FB120544FF60AAEBC0E0EAC094
:10034B00E0E9C0E0120222D0E02401F9D0E0340051
:10035B00FAD0E0FBE50A0460DCD50AD980877BFF85
:10036B007A047977D202809C791080027908C206D0
:10037B00C2088008D2D5790A8004790AC2D5E50A69
:10038B00047002F50AE4FAFDFEFF1201DFFC7B08A4
:10039B002001131201DFFD7B1030000A1201DFFE7A
:1003AB001201DFFF7B20EC3382D592D55013C3E4CF
:1003BB003000069FFFE49EFEE42001039DFDE49CBC
:1003CB00FCE4CBF8C201EC700CCFCECDCCE824F81A
:1003DB00F870F38017C3EF33FFEE33FEED33FDEC14
:1003EB0033FCEB33FB994002FB0FD8E9EB300105F3
:1003FB00F8D0E0C448B201C0E00AEC4D4E4F782073
:10040B007B0070C2EAB50A0040BCC0E012047DD08C
:10041B00F0D0E0200104C4C0E0C4B201C0F012026D
:10042B000BD0F0D5F0EB02025C12078902F95303F3
:10043B00735802CA4C02C64203774F037F44037FB3
:10044B004902DF4303855503694603694503694741
:10045B0005255002CE2D02D22E02F52B02D62302F9
:10046B00F320050E2A028E48000002ED3F3F3F00AD
:10047B00790AA2D5200314300509B910020404B976
:10048B00080104A2D5200602500104200268920242
:10049B00B509005034C0E07F203003197F30A20231
:1004AB0072067205500F1204D4C202C206C205C2F4
:1004BB00087F30800F300503E9C0E01202223005BF
:1004CB0003D0E0F9D0E0B509CC3005177F30B91077
:1004DB000C1202227F583004077F788003B908037F
:1004EB001202223002057F2D0202227F202008F803
:1004FB007F2B2006F322920280CF286E756C6C291D
:10050B0000D2011201DF3001F8C201780930D501A8
:10051B0008F602028E2D504349581201DF2403B412
:10052B0005004001E490052093120213743A120265
:10053B0013D203750904020373BB010689828A83F4
:10054B00E0225002E722BBFE02E32289828A83E487
:10055B009322BB010CE58229F582E5833AF583E012
:10056B00225006E92582F8E622BBFE06E92582F831
:10057B00E222E58229F582E5833AF583E49322BBF7
:10058B000110E58229F582E5833AF583E0F5F0A3C6
:10059B00E0225009E92582F886F008E622BBFE0A24
:1005AB00E92582F8E2F5F008E222E5832AF583E9F2
:1005BB0093F5F0A3E9932275F008758200EF2FFFF6
:1005CB00EE33FECD33CDCC33CCC58233C5829BED20
:1005DB009AEC99E58298400CF582EE9BFEED9AFD24
:1005EB00EC99FC0FD5F0D6E4CEFBE4CDFAE4CCF9D4
:1005FB00A88222B800C1B90059BA002DEC8BF08447
:10060B00CFCECDFCE5F0CBF97818EF2FFFEE33FE14
:10061B00ED33FDEC33FCEB33FB10D703994004EBCC
:10062B0099FB0FD8E5E4F9FA227818EF2FFFEE3398
:10063B00FEED33FDEC33FCC933C910D7059BE99AAA
:10064B004007EC9BFCE99AF90FD8E0E4C9FAE4CC3B
:10065B00FB2275F010EF2FFFEE33FEED33FDCC33A5
:10066B00CCC833C810D7079BEC9AE899400AED9B8E
:10067B00FDEC9AFCE899F80FD5F0DAE4CDFBE4CC6D
:10068B00FAE4C8F922EB9FF5F0EA9E42F0E99D42AD
:10069B00F0E89C45F022E8600FECC313FCED13FD72
:1006AB00EE13FEEF13FFD8F122BB010DE58229F506
:1006BB0082E5833AF5830207405007E92582F80269
:1006CB000733BBFE07E92582F802074CE58229F5C3
:1006DB0082E5833AF583020759ECF0A3EDF0A3EE24
:1006EB00F0A3EFF022A8828583F0D083D08212078B
:1006FB0007120707120707120707E473E493A3C552
:10070B0083C5F0C583C8C582C8F0A3C583C5F0C532
:10071B0083C8C582C822BB010689828A83F0225016
:10072B0002F722BBFE01F322E6FB08E6F908E6FA24
:10073B0008E6CBF822E0F8A3E0F9A3E0FAA3E0FB8C
:10074B0022E2FB08E2F908E2FA08E2CBF822E49392
:10075B00F8740193F9740293FA740393FB22F8E093
:10076B00FBA3A3E0F925F0F0E58215827002158357
:10077B00E0FA38F022EBF0A3EAF0A3E9F022D08301
:10078B00D082F8E4937012740193700DA3A393F8C5
:10079B00740193F5828883E4737402936860EFA30A
:1007AB00A3A380DF900591EBF0A3EAF0A3E9F0EFB0
:1007BB006401600302095C90040004F0E4A3F0A35D
:1007CB00F0A3F0A3F0A3F0A3F0FFEFC39480748029
:1007DB009480500F74872FF582E43404F583E4F092
:1007EB000F80E7E4FFEFC3948074809480500F7404
:1007FB00072FF582E43404F583E4F00F80E79005CE
:10080B0091E0FBA3E0FAA3E0F9120544FFE598544D
:10081B003F4FF598EF64C06008EF64406003020936
:10082B00019000021206B47F007E607D547C0012A2
:10083B0005FE9005941206E4E4FFFE7D01FC900595
:10084B0094E0F8A3E0F9A3E0FAA3E0FBC31206904F
:10085B0040037FFF22900594E0F8A3E0F9A3E0FAB0
:10086B00A3E0FBC3E49BFFE49AFE740199FDE498BB
:10087B00FC9005941206E4900591E0FBA3E0FAA32B
:10088B00E0F990000112055D64027032538EEF4364
:10089B008E01538EF7438E04900594E0FCA3E0FD8C
:1008AB00A3E0FEA3E0FF78081206A18FD690059473
:1008BB00A3A3A3E0F5D753AFFB438E108077C28E73
:1008CB00538EFE5389BF5389CF438E40900594E0DE
:1008DB00FCA3E0FDA3E0FEA3E0FF78081206A18FC6
:1008EB008D900594A3A3A3E0F58BC2AB5389BF53A3
:1008FB008FFDD28E803F900591E0FBA3E0FAA3E041
:10090B00F9120544FF7E00701490000812055D6417
:10091B00017005438E20801D538EDF8018EF64809D
:10092B004E701290000812055D64017005438780BC
:10093B00800353877F900591E0FBA3E0FAA3E0F9D6
:10094B0090000712055D7004C29C8002D29C7F0050
:10095B00227FFF2290059B746BF0A37401F0A374AC
:10096B0000F090059F746BF0A37400F0A37400F07B
:10097B0090059A7401F090059EF0FB7A05799AFF29
:10098B00120BBDE4FBFD7F01120E4BE4FBFD7F015F
:10099B00120E9243BA8090FA39E04420F053BA7F9A
:1009AB009005887401F090058D746BF090058B7435
:1009BB0000F0A37400F09005897403F0A37400F0A9
:1009CB00E490058EF0A3F07B017A057988120B4534
:1009DB00E4FBFD7F01120DBDE4900590F0A304F044
:1009EB00A3F0900597746BF09005957403F0A374C6
:1009FB0000F09005937402F0A37400F090059974C5
:100A0B0001F0E4900598F07B017A05799012006E65
:100A1B0043BA8090FA2174A1F053BA7FE4FBFD7FB7
:100A2B0001020E04C0E0C083C082C0D075D000C0EC
:100A3B0007AFBA43BA8090FA02E030E012E054FEFE
:100A4B00F0300B04C20BD20E300A04C20AD20D9046
:100A5B00FA32E030E006E054FEF0D20C90FA32E0CD
:100A6B0030E204E054FBF090FA3AE030E006E05458
:100A7B00FEF0D20990FA3AE030E104E054FDF09038
:100A8B00FA22E030E011E054FEF0E5CE30E406D27D
:100A9B0010D2A28002D20F90FA22E030E104E0548F
:100AAB00FDF090FA22E030E204E054FBF08FBAD074
:100ABB0007D0D0D082D083D0E03290000112055DF8
:100ACB006401700553CE7F800343CE80120544C46E
:100ADB00333354C0FFE5CE54BF4FF5CE9000021216
:100AEB00055DC43354E0FFE5CE54DF4FF5CE9000E7
:100AFB000312055DC454F0FFE5CE54EF4FF5CE90D5
:100B0B00000412055D33333354F8FFE5CE54F74F31
:100B1B00F5CE90000512055D25E025E0FFE5CE54EE
:100B2B00FB4FF5CE90000612055DFFE5CE54FC4F52
:100B3B00F5CEE4900507F0C2112243BA8090FA0279
:100B4B00E4F090000112058AFF90FA07E5F0F0A39C
:100B5B00EFF090000312058AFF90FA05E5F0F0A381
:100B6B00EFF090000512055D90FA03F0900006126D
:100B7B00055D640190FA007006E04420F08004E00B
:100B8B0054DFF090000712055D640190FA007006C7
:100B9B00E04410F08004E054EFF01205446401903F
:100BAB00FA017006E04480F08004E0547FF053BA01
:100BBB007F2243BA80EF6401706790FA32F090FAAB
:100BCB003AF090000112055D90FA33F0900002129A
:100BDB00058AFF90FA35E5F0F0A3EFF090000512CF
:100BEB00055D90FA3BF090000612058AFF90FA3DE6
:100BFB00E5F0F0A3EFF0120544640190FA317006B2
:100C0B00E04480F08004E0547FF090000412055D16
:100C1B00640190FA397006E04480F08004E0547F60
:100C2B00F053BA7F22C0E0C083C082C0D075D00021
:100C3B00C007309831C298900406E07029900404E4
:100C4B00E0C39480748094804002E4F0900404E04C
:100C5B00FF04F074072FF582E43404F583E599F073
:100C6B009004057405F0309907C299900403E4F0E1
:100C7B00D007D0D0D082D083D0E032EFD3940174A0
:100C8B00809480500BEF25E0FFE5AF54FD4FF5AF9F
:100C9B00EDFF7E00D3940374809480502DEF70068B
:100CAB0053B6FD53B5FDEF64014E700653B6FD43CD
:100CBB00B502EF64024E700643B60253B5FDEF6406
:100CCB00034E700643B60243B5027F0022EFFBD3FF
:100CDB009401748094805009EB7004C2AC8002D2F2
:100CEB00ACEDFF7E00D39403748094805029EF7099
:100CFB000553B7EFC2BCEF64014E700553B7EFD28B
:100D0B00BCEF64024E700543B710C2BCEF64034ED8
:100D1B00700543B710D2BC7F0022C0E0C083C082F5
:100D2B00C0D075D000C007E5CE30E404C2118029D5
:100D3B009005B0E0C39480748094804002E4F090FE
:100D4B0005B0E0FF04F074082FF582E43405F58359
:100D5B00E5CFF09005077405F075CDC0D007D0D066
:100D6B00D082D083D0E03212004E120F47120026F1
:100D7B0012095FD2AF7BFF7A0F79BA12024A3009A0
:100D8B0007C209D20B120ED9300E08C20E120FA0D9
:100D9B00120003301005C210120F74300F07C20F70
:100DAB00D20A120F10300DD6C20D120F74120F9201
:100DBB0080CC43BA8090FA00E054F0F0EDD394036A
:100DCB0074809480500BE0FEED25E025E0FDEE4DA8
:100DDB00F0EBD3940374809480500690FA00E04BB0
:100DEB00F0EF640190FA007006E04480F08004E0BC
:100DFB00547FF053BA7F7F002243BA8090FA20E0F1
:100E0B0054F0F0EDD3940374809480500BE0FEED1E
:100E1B0025E025E0FDEE4DF0EBD394037480948038
:100E2B00500690FA20E04BF0EF640190FA20700628
:100E3B00E04480F08004E0547FF053BA7F7F0022BF
:100E4B0043BA8090FA30E054F0F0EDD39403748001
:100E5B009480500BE0FEED25E025E0FDEE4DF0EB30
:100E6B00D3940374809480500690FA30E04BF0EFEB
:100E7B00640190FA307006E04480F08004E0547F07
:100E8B00F053BA7F7F002243BA8090FA38E054F0D7
:100E9B00F0EDD3940374809480500BE0FEED25E0CD
:100EAB0025E0FDEE4DF0EBD3940374809480500657
:100EBB0090FA38E04BF0EF640190FA387006E0449A
:100ECB0080F08004E0547FF053BA7F7F002243BA56
:100EDB008090FA02E4F053BA7F43BA8090FA05741B
:100EEB0000F0A37400F053BA7F43BA80A37403F0ED
:100EFB00A37400F053BA7F43BA8090FA01E04440E8
:100F0B00F053BA7F2243BA8090FA02E4F053BA7FCF
:100F1B0043BA8090FA057402F0A37400F053BA7FC1
:100F2B0043BA80A37401F0A37400F053BA7F43BAA1
:100F3B008090FA01E04440F053BA7F229005887408
:100F4B0040F0A37401F0A31206F00001C20090055B
:100F5B008F7401F0E4A3F07B017A0579887F01128D
:100F6B0007AF7D017F01020CD843BA8090FA21E4D0
:100F7B00F053BA7F00000000000075CE4243BA80E8
:100F8B0074A0F053BA7F2243BA8090FA31E0444008
:100F9B00F053BA7F2243BA8090FA39E04420F053E1
:100FAB00BA7F22787FE4F6D8FD758122020D725349
:100FBB0054433841384B3634443420554152543124
:100FCB002D424D4D2D535049BBA5CEAAD6F7B4D3C8
:0C0FDB00CDB8B4ABB3CCD0F22E0D0A00A0
:00000001FF
