:1000000002001A7D607C09ED1D70011C144C70F714
:10001000EF1F70011E144E70EA22787FE4F6D8FDBF
:1000200075813D0201D453910F53920F53A2CF22F9
:10003B0002003EC0E0C083C082C0D075D000C002B9
:10004B00C004C005C006C00730D854C2D8AFDAC34D
:10005B00EF9448748094804015E50F2517F517E54C
:10006B000E3516F5168517EAE516F5FA8031E5DA41
:10007B005411602B852921852A22AFFA7529008F0F
:10008B002AE52AFEADEA7C00E42DF52AEC3EF529A3
:10009B00C3E52A9522F517E5299521F516D20430EB
:1000AB00D954C2D9AFDBC3EF944874809480401508
:1000BB00E5112519F519E5103518F5188519EBE536
:1000CB0018F5FB8031E5DB5411602B852B23852C38
:1000DB0024AFFB752B008F2CE52CFEADEB7C00E4E5
:1000EB002DF52CEC3EF52BC3E52C9524F519E52BC2
:1000FB009523F518D20530DA54C2DAAFDCC3EF948E
:10010B0048748094804015E513251BF51BE51235CB
:10011B001AF51A851BECE51AF5FC8031E5DC541158
:10012B00602B852D25852E26AFFC752D008F2EE59A
:10013B002EFEADEC7C00E42DF52EEC3EF52DC3E54B
:10014B002E9526F51BE52D9525F51AD20630DB618C
:10015B00ADBA43BA80C2DB90FD54E0C394487480BF
:10016B0094804016E5152509F509E5143508F508C1
:10017B00A3E509F0E508A3F0803590FD54E0541198
:10018B00602D852F2785302890FD56E0752F00F5C3
:10019B0030FE90FD55E07A002400F530EA3EF52F55
:1001AB00C3E5309528F509E52F9527F508D2078D7E
:1001BB00BA30DF02C2DFD007D006D005D004D002A0
:1001CB00D0D0D082D083D0E03212002612048675B4
:1001DB0031007532807533007534407535007536D6
:1001EB0020753702753800C200C201C202C203ADCE
:1001FB0032AC31E4FF1203EEAD34AC337F011203AA
:10020B00EEAD36AC357F021203EEAD38AC377F0363
:10021B001203EE7F0A7E00120003300016E5321542
:10022B00327002153114D39410E53194005017C27B
:10023B000080130532E53270020531C394F0E531CD
:10024B0094004002D200AD32AC31E4FF1203EE3029
:10025B000116E53415347002153314D39408E533C5
:10026B0094005017C20180130534E5347002053336
:10027B00C39478E53394004002D201AD34AC337FA4
:10028B00011203EEC3E536942CE53594014007E4E7
:10029B00F535F536802CC3E53694C8E5359400402A
:1002AB00047D01800DC3E5369464E5359400400967
:1002BB00E4FD7F0212060380097D207C007F021281
:1002CB0003EE0536E53670020535300316E53815B5
:1002DB00387002153714D39418E53794005017C2B1
:1002EB000380130538E53870020537C394E8E5370A
:1002FB0094034002D203AD38AC377F031203EE02F6
:10030B00021EAD07ED64047021C2DEF5F9F5E912AA
:10031B00050EFFE5D954F14FF5D9900004120527CE
:10032B00640160030203EDD2DE22ED702790000121
:10033B00120527FFE5F2543F4FF5F290000212052C
:10034B0054F50F85F00EC204850E16F5178517EAC6
:10035B00E516F5FAED64017027900001120527FFF1
:10036B00E5F3543F4FF5F3900002120554F5118558
:10037B00F010C205851018F5198519EBE518F5FB7A
:10038B00ED64027027900001120527FFE5F4543F3E
:10039B004FF5F4900002120554F51385F012C206C6
:1003AB0085121AF51B851BECE51AF5FCED64037041
:1003BB003143BA80900001120527FF90FD57E0549E
:1003CB003F4FF0900002120554F51585F014C2074B
:1003DB00851408F50990FD55E509F0E508A3F053E0
:1003EB00BA7F22EF701FEC5403C4F854F0C8E4C476
:1003FB00540F48FFE5F254CD4FFBEC5404C3134BA1
:10040B00F5F28DFA22EF6401701FEC5403C4F8541B
:10041B00F0C8E4C4540F48FFE5F354CD4FFBEC5444
:10042B0004C3134BF5F38DFB22EF6402701FEC54E6
:10043B0003C4F854F0C8E4C4540F48FFE5F454CD9A
:10044B004FFBEC5404C3134BF5F48DFC22EF640308
:10045B00702843BA80EC5403C4F854F0C8E4C45475
:10046B000F48FF90FD57E054CD4FFBEC5404C313E2
:10047B004BF090FD56EDF053BA7F22E4F53A753B05
:10048B0080F53CFB7A007939FF12030D753A407504
:10049B003B40753C007B007A0079397F0112030DDC
:1004AB00753A80753B20753C007B007A0079397F6B
:1004BB000212030D753AC0E4F53BF53CFB7A00796B
:1004CB00397F0312030D753908753D017B007A00E6
:1004DB0079397F0412030DE4FB7D427F0412058CF6
:1004EB00E4FB7D42FF12058CE4FB7D427F0112058C
:1004FB008CE4FB7D427F0212058CE4FB7D427F0383
:10050B0002058CBB010689828A83E0225002E72216
:10051B00BBFE02E32289828A83E49322BB010CE5B2
:10052B008229F582E5833AF583E0225006E925829C
:10053B00F8E622BBFE06E92582F8E222E58229F5E0
:10054B0082E5833AF583E49322BB0110E58229F51A
:10055B0082E5833AF583E0F5F0A3E0225009E92523
:10056B0082F886F008E622BBFE0AE92582F8E2F55E
:10057B00F008E222E5832AF583E993F5F0A3E993EA
:10058B0022EBF582758300D39403748094805030F2
:10059B00E582700553B77FC2BFE582640145837066
:1005AB000553B77FD2BFE58264024583700543B71D
:1005BB0080C2BFE58264034583700543B780D2BF19
:1005CB00EF14601114601214601314601D24047076
:1005DB00248DDA80208DDB801C8DDC801843BA8063
:1005EB0090FD54EDF053BA7F800BED5401FFE5D92C
:1005FB0054FE4FF5D97F0022EFFB7A007012ED64A9
:10060B0001700653F2CDF5FA2243F23275FAFF224E
:10061B00EB64014A7012ED6401700653F3CDF5FBE8
:10062B002243F33275FBFF22EFFB7A006402701258
:10063B00ED6401700653F4CDF5FC2243F43275FCE6
:10064B00FF22EB64034A702343BA80ED640190FDF3
:10065B0057700BE054CDF090FD56E4F0800AE04467
:0C066B0032F090FD5674FFF053BA7F226D
:00000001FF
