:030000000213CA1E
:0C13CA00787FE4F6D8FD75814202141112
:10201800000000900200740BF0A374BEF09002015F
:0D202800E014F070F8900200E014F070F089
:012035002288
:0C218600AE071FEE600512201880F52245
:101E78000000000000000000000000010100000058
:101E88000000000000000000000102010101FE1234
:101E9800000104120D0C04120B04111A080C28007E
:011EA8000039
:102143007532037533F87B007A007932E4FF020BB2
:01215300008B
:0621B80012214302120790
:102154007532037533017B007A007932E4FF020B98
:01216400007A
:101FC40075320375330C7B007A0079327F03120B70
:101FD400007533017B007A0079327F04120B00759F
:0D1FE40033307B007A0079327F05020B005C
:101ED900E4F532753380FB7A0079327F01120B0009
:101EE9007532037533607B007A0079327F01120BFA
:0F1EF900007533107B007A0079327F04020B00F2
:101EA900E5A2543F4440F5A2753240753301E4750B
:101EB9003780753625F535F534753901FB7A0079A2
:0F1EC900327F01120D547D017F01121E40D2AFF6
:011ED80022E7
:102176007533C0E4F532FB7A0079327F03020B0037
:100E99001212E99201200103020FC77B017A01793D
:090EA900809001E6E0FD12186BD7
:100EB20078327C007D007BFF7A1E79787E007F0687
:100EC200120936900213E0F532A3E0F5339001E601
:100ED200E0F5349001E5E0F5359001E4E0F536A265
:100EE20001E433F5377B007A007932754106E4FD7F
:040EF200FF12175183
:100EF6007532017533017534809001E6E0F535757C
:100F06003601E535D394084025AB32AA33A93475AA
:100F16004108AD36E4FF12175174082534F534E460
:100F26003533F53374F82535F535053680D4AB32CF
:0E0F3600AA33A934853541AD36E4FF121751B8
:100F440075320175330275340575350E753603E552
:100F540035D394084025AB32AA33A934754108AD82
:100F640036E4FF12175174082534F534E43533F5AB
:100F74003374F82535F535053680D4AB32AA33A958
:0B0F840034853541AD36E4FF121751F3
:100F8F0078377C007D007BFF7A1E797E7E007F059F
:100F9F00120936900213E0F537A3E0F538A3E0F518
:100FAF0039A3E0F53AA3E0F53B7B007A007937757A
:080FBF004105E4FDFF1217518A
:010FC7002207
:080FC8008B328A3389348D3528
:050FD000E49001FFF0B8
:100FD50078367C00FD7BFF7A1E7983FE7F0212093D
:100FE500369001FFE0F5368535377B007A00793696
:0A0FF5007541027D07E4FF12175159
:100FFF009001FF7404F09001FFE0C39535400302A8
:02100F0010E9E6
:1010110078FC7C017D017BFF7A1E79857E007F0152
:10102100120936AB32AA33A9349001FFE0F582757B
:1010310083001209759001FBF07B017A0179FB7540
:101041003C01E4FF1214567FC81221869001FFE093
:05105100D3940D4033B3
:1010560078EB7C017D017BFF7A1E79867E007F0B13
:101066001209369001FFE09001EBF0A3E535F07B25
:10107600017A0179EB7541087D06E4FF121751C22A
:031086008080FE69
:06108900E535640D60472F
:10108F0078F67C017D017BFF7A1E79917E007F05CA
:10109F001209369001FFE09001F6F0A3E535F0A3B9
:1010AF00740DF09001FDE09001F9F09001FEE090D9
:1010BF0001FAF07B017A0179F67541057D06E4FFAF
:0710CF00121751C28080FEE0
:0C10D6009001FFE09001FDF0A3E535F073
:0710E200A3E004F002100579
:0110E90022E4
:1010EA009001E7E4F0A304F0E4A3F0A3F012215482
:1010FA00121FC4121ED91221B8751BFF751C0E755A
:0E110A001D99122176121EA912203612219272
:1011180078217C007D007BFF7A1E79967E007F0314
:10112800120936C2001221D21215C68F211215C615
:0B1138008F22E522F4540FF5236060C5
:1011430078247C007D007BFF7A1E79997E007F01E5
:101153001209367524017B007A0079247541017DDB
:1011630005E4FF1217519001E7E07002A3E0601E4F
:1011730078257C007D007BFF7A1E799A7E007F0DA7
:0E1183001209367B007A0079257D0D120FC807
:0F1191009001E9E4F0A304F0E49001E7F0A3F08B
:0311A00002111821
:1011A30078247C007D007BFF7A1E79A77E007F0177
:1011B3001209367524027B007A0079247541017D7A
:1011C30005E4FF1217519001E7E4F0A304F0A3E054
:0911D3007002A3E0700302111880
:1011DC0078257C007D007BFF7A1E79A87E007F013C
:1011EC001209367B007A007925753C01E4FF121454
:0811FC0056E49001E9F0A3F0B4
:03120400021118BC
:10004E000000000000000000002F0000000007006C
:10005E00070000147F147F1400242A7F2A120062E6
:10006E006408132300364955225000000503000092
:10007E0000001C224100000041221C000014083E1A
:10008E0008140008083E0808000000A060000008E0
:10009E000808080800006060000000201008040234
:1000AE00003E5149453E0000427F400000426151F2
:1000BE004946002141454B31001814127F1000278C
:1000CE0045454539003C4A4949300001710905034F
:1000DE0000364949493600064949291E0000363680
:1000EE0000000000563600000008142241000014E3
:1000FE0014141414000041221408000201510906C0
:10010E0000324959513E007C1211127C007F494940
:10011E004936003E41414122007F4141221C007F71
:10012E0049494941007F09090901003E4149497A7F
:10013E00007F0808087F0000417F410000204041F9
:10014E003F01007F08142241007F40404040007F65
:10015E00020C027F007F0408107F003E4141413EA9
:10016E00007F09090906003E4151215E007F0919F1
:10017E0029460046494949310001017F0101003FEE
:10018E004040403F001F2040201F003F4038403F6E
:10019E0000631408146300070870080700615149D2
:1001AE00454300007F41410000552A552A55000065
:1001BE0041417F00000402010204004040404040E3
:1001CE00000001020400002054545478007F48447B
:1001DE00443800384444442000384444487F0038B2
:1001EE005454541800087E0901020018A4A4A47CDB
:1001FE00007F080404780000447D400000408084A5
:10020E007D00007F102844000000417F4000007CEC
:10021E0004180478007C08040478003844444438F8
:10022E0000FC242424180018242418FC007C080444
:10023E00040800485454542000043F444020003C1D
:10024E004040207C001C2040201C003C4030403CA4
:10025E00004428102844001CA0A0A07C0044645434
:10026E004C44141414141414000000000000000078
:10027E000000000000000000000000F80000000078
:10028E00000000333000000000100C06100C0600B9
:10029E00000000000000000040C07840C078400020
:1002AE00043F04043F040400007088FC0830000082
:1002BE00001820FF211E0000F008F000E0180000DA
:1002CE0000211C031E211E0000F008887000000093
:1002DE001E2123241927211010160E0000000000E5
:1002EE000000000000000000000000E01804020002
:1002FE00000000071820400000020418E000000073
:10030E000040201807000000404080F08040400070
:10031E000202010F01020200000000F000000000C6
:10032E000101011F0101010000000000000000009A
:10033E0080B070000000000000000000000000000F
:10034E000001010101010101000000000000000098
:10035E000030300000000000000000008060180433
:10036E00006018060100000000E010080810E00010
:10037E00000F102020100F00001010F800000000D9
:10038E000020203F20200000007008080888700020
:10039E0000302824222130000030088888483000A0
:1003AE000018202020110E000000C02010F80000C0
:1003BE0000070424243F240000F808888808080059
:1003CE000019212020110E0000E01088881800006E
:1003DE00000F112020110E0000380808C838080040
:1003EE000000003F000000000070880808887000C0
:1003FE00001C222121221C0000E010080810E00041
:10040E000000312222110F00000000C0C0000000C9
:10041E0000000030300000000000008000000000EE
:10042E0000008060000000000000804020100800E6
:10043E0000010204081020004040404040404000AF
:10044E00040404040404040000081020408000008A
:10045E000020100804020100007048080808F0008F
:10046E000000003036010000C030C828E810E0005F
:10047E000718272423140B000000C038E0000000EA
:10048E00203C23020227382008F888888870000054
:10049E00203F202020110E00C03008080808380028
:1004AE00071820202010080008F808080810E0009F
:1004BE00203F202020100F0008F88888E808100040
:1004CE00203F20202320180008F88888E808100014
:1004DE00203F200003000000C0300808083800004C
:1004EE0007182020221E020008F808000008F8084D
:1004FE00203F210101213F20000808F808080000D4
:10050E000020203F2020000000000808F808080006
:10051E00C08080807F00000008F888C0281808007E
:10052E00203F20012638200008F8080000000000B7
:10053E00203F20202020300008F8F800F8F80800AE
:10054E00203F003F003F200008F830C00008F808A8
:10055E00203F200007183F00E01008080810E000B8
:10056E000F10202020100F0008F808080808F000CF
:10057E00203F210101010000E01008080810E000F2
:10058E000F18242438504F0008F888888888700087
:10059E00203F2000030C3020007088080808380027
:1005AE000038202121221C00180808F8080818001D
:1005BE000000203F2000000008F808000008F8089E
:1005CE00001F202020201F000878880000C838084F
:1005DE00000007380E010000F80800F80008F800C7
:1005EE00033C0700073C0300081868808068180861
:1005FE0020302C03032C30200838C800C8380800DF
:10060E000000203F2000000010080808C83808002D
:10061E002038262120201800000000FE02020200D1
:10062E000000007F40404000000C30C00000000081
:10063E00000000010638C00000020202FE000000A9
:10064E00004040407F00000000000402020204004F
:10065E00000000000000000000000000000000008C
:10066E008080808080808080000202040000000074
:10067E00000000000000000000008080808000006C
:10068E000019242222223F2008F80080800000005A
:10069E00003F112020110E0000000080808000001D
:1006AE00000E112020201100000000808088F8002C
:1006BE00000E112020103F2000008080808000005E
:1006CE00001F222222221300008080F088888818C2
:1006DE000020203F202000000000808080808000CD
:1006EE00006B94949493600008F800808080000062
:1006FE00203F210000203F2000809898000000003D
:10070E000020203F2020000000000080989800006C
:10071E0000C08080807F000008F80000808080008C
:10072E00203F24022D302000000808F800000000B1
:10073E000020203F2020000080808080808080006C
:10074E00203F20003F20003F8080008080800000FE
:10075E00203F210000203F2000008080808000008C
:10076E00001F202020201F008080008080000000BD
:10077E0080FFA12020110E000000008080808000EC
:10078E00000E112020A0FF808080800080808000DD
:10079E0020203F212000010000008080808080000A
:1007AE000033242424241900008080E0808000007F
:1007BE000000001F202000008080000000808000CC
:1007CE00001F202020103F2080808000008080802D
:1007DE0000010E30080601008080008000808080BD
:1007EE000F300C030C300F000080800080808000E2
:1007FE000020312E0E31200080808000008080800D
:10080E0080818E70180601000080808080808000BC
:10081E000021302C2221300000000000807C0202DA
:10082E0000000000003F404000000000FF000000FC
:10083E0000000000FF0000000002027C80000000AB
:10084E000040403F000000000006010102020404C7
:08085E00000000000000000092
:10120700D2857F64122186C2857F64122186D285AA
:10121700E4FD7FAE121F0FE4FDFF121F0FE4FD7FF9
:1012270010121F0FE4FD7F40121F0FE4FD7F811294
:101237001F0FE4FD7FCF121F0FE4FD7FA1121F0FC9
:10124700E4FD7FC8121F0FE4FD7FA6121F0FE4FD08
:101257007FA8121F0FE4FD7F3F121F0FE4FD7FD30E
:10126700121F0FE4FDFF121F0FE4FD7FD5121F0FA2
:10127700E4FD7F80121F0FE4FD7FD9121F0FE4FDED
:101287007FF1121F0FE4FD7FDA121F0FE4FD7F12BB
:10129700121F0FE4FD7FDB121F0FE4FD7F40121FBB
:1012A7000FE4FD7F20121F0FE4FD7F02121F0FE4E2
:1012B700FD7F8D121F0FE4FD7F14121F0FE4FD7FCA
:1012C700A4121F0FE4FD7FA6121F0FE4FD7FAF12CC
:1012D7001F0FE4FD7FAF121F0F121FF1E4FDFF0286
:0212E700000302
:071F0800F583E493FF7D0166
:101F0F00ED6004D2848002C284C283E4FEC287EFF4
:101F1F0030E704D2868002C286D287EF25E0FF0E1B
:071F2F00BE08EAD283D28450
:011F36002288
:10000300AC07ED24B0FFE4FD121F0FEC54F0C45411
:100013000F4410FF121F0FEC540F4401FF021F0F78
:101FF100E4FCEC24B0FFE4FD121F0FE4FF121F0FFD
:102001007F10121F0FE4FB7D01E4FF121F0F0BBBBA
:0620110080F50CBC08DCA8
:0120170022A6
:10210A0053070FEFC3940A500574302FFF22EF24B0
:03211A0037FF226A
:06155500AA07A905AF037F
:10155B00EF24E0FBC394004006EFD3947E40027B64
:10156B001FEAD3947F4004E4FA0909AF02AD0112DC
:10157B000003E4FC75F010EBA42CF582E435F0F5D8
:10158B0083E5822476F582E5833402121F080CBCB6
:10159B0008E2AF02E904FD120003E4FC75F010EB66
:1015AB00A42CF582E435F0F583E582247EF582E503
:0A15BB00833402121F080CBC08E282
:0115C5002203
:0A196B008F0F8D108B118A12891363
:10197500E4F514AB11AA12A913851482758300121C
:101985000975FB601DAD10AF0F1215557408250FB5
:10199500F50FD394784007E4F50F051005100514ED
:0219A50080D1EF
:0119A700221D
:0A1C7800FF12210AAB07AD3DAF3C9F
:101C8200EB24E0FBEFD3947F4003E4FF0D1200034B
:101C9200E4FC75F006EBA4244EF582E5F03400F581
:101CA20083E5822CF582E43583121F080CBC06E220
:011CB200220F
:0A1CB3008F158D168B178A188919FA
:101CBD00E4F51AAB17AA18A919851A8275830012B3
:101CCD000975FB601BAD16AF15121C827406251528
:101CDD00F515D394784005E4F5150516051A80D34E
:011CED0022D4
:0A1751008F3C8D3D8B3E8A3F89409E
:10175B00E4F542E542C395415039053CAB3EAA3F07
:10176B00A940854282758300120975C4540F121C5F
:10177B00787406253CF53CAB3EAA3FA940854282D6
:10178B00758300120975121C787409253CF53C050C
:03179B004280C0C9
:01179E002228
:100B0000EFD3940740037FFF2212095CFED39403C6
:100B100040037FFF22EF7041EE700B90000112093D
:100B200075F45293529412095CB4010B90000112B7
:100B300009754293F4529412095CFEB4020A9000C3
:100B40000112097542934294EEB4030D9000011214
:100B50000975FEF45293EE4294EF6401704312095A
:100B60005CFE700B900001120975F452915292EEE6
:100B7000B4010B9000011209754291F452921209CE
:100B80005CB4020A90000112097542914292120966
:100B90005CB4030D900001120975FEF45291EE420F
:100BA00092EF6402704312095CFE700B9000011218
:100BB0000975F452955296EEB4010B90000112099A
:100BC000754295F4529612095CB4020A9000011223
:100BD00009754295429612095CB4030D900001120A
:100BE0000975FEF45295EE4296EF640370431209C4
:100BF0005CFE700B900001120975F452B152B2EE16
:100C0000B4010B90000112097542B1F452B21209FD
:100C10005CB4020A90000112097542B142B2120995
:100C20005CB4030D900001120975FEF452B1EE425E
:100C3000B2EF6404704312095CFE700B9000011265
:100C40000975F452B352B4EEB4010B9000011209CD
:100C50007542B3F452B412095CB4020A9000011256
:100C6000097542B342B412095CB4030D900001123D
:100C70000975FEF452B3EE42B4EF640570431209F5
:100C80005CFE700B900001120975F452C952CAEE55
:100C9000B4010B90000112097542C9F452CA12093D
:100CA0005CB4020A90000112097542C942CA1209D5
:100CB0005CB4030D900001120975FEF452C9EE42B6
:100CC000CAEF6406704312095CFE700B90000112BB
:100CD0000975F452CB52CCEEB4010B90000112090D
:100CE0007542CBF452CC12095CB4020A9000011296
:100CF000097542CB42CC12095CB4030D900001127D
:100D00000975FEF452CBEE42CCEF64077043120932
:100D10005CFF700B900001120975F452E152E2EF92
:100D2000B4010B90000112097542E1F452E212097C
:100D30005CB4020A90000112097542E142E2120914
:100D40005CB4030D900001120975FFF452E1EF420B
:040D5000E27F00221C
:101D2800EFD394015009EF7004C2A98002D2A9ED43
:101D3800D394035020ED700553B7FDC2B9BD01051A
:101D480053B7FDD2B9BD020543B702C2B9BD0305F9
:081D580043B702D2B97F00225B
:101D6000EFD394015009EF7004C2AB8002D2ABED07
:101D7000D394035020ED700553B7F7C2BBBD0105E6
:101D800053B7F7D2BBBD020543B708C2BBBD0305BD
:081D900043B708D2BB7F00221B
:10209F00EFD39401500DEF25E025E0FFE5AF54FBA2
:0620AF004FF5AFE4FF2233
:1020B500EFD39401500DEFC43354E0FFE5AF54DF87
:0620C5004FF5AFE4FF221D
:10207100EFD39401500EEFC4333354C0FFE5AF5496
:07208100BF4FF5AFE4FF22A1
:101D9800EFD394015009EF7004C2A88002D2A8EDD5
:101DA800D394035020ED700553B7FEC2B8BD0105AA
:101DB80053B7FED2B8BD020543B701C2B8BD03058B
:081DC80043B701D2B87F0022ED
:101DD000EFD394015009EF7004C2AA8002D2AAED99
:101DE000D394035020ED700553B7FBC2BABD010573
:101DF00053B7FBD2BABD020543B704C2BABD03054F
:081E000043B704D2BA7F0022AF
:1020E100EFD39401500CEFC454F0FFE58F54EF4F40
:0520F100F58FE4FF2261
:1020CB00EFD39401500DEFC43354E0FFE58F54DF91
:0620DB004FF58FE4FF2227
:10208800EFD39401500EEFC4333354C0FFE58F549F
:07209800BF4FF58FE4FF22AA
:101E0800EFD394015009EF7004C2AD8002D2ADED5A
:101E1800D394035020ED700553B7DFC2BDBD010553
:101E280053B7DFD2BDBD020543B720C2BDBD030510
:081E380043B720D2BD7F002258
:10179F00EF30E10543E620800353E6DFEF30E0054D
:1017AF0043E610800353E6EFEDD394035024ED701E
:1017BF000653B6DF53B5DFBD010653B6DF43B52081
:1017CF00BD020643B62053B5DFBD030643B6204323
:0517DF00B5207F00228F
:1016F800EFD3940140037FFF2243BA80BF0112ED6C
:1017080090FE817006E0547FF08011E04480F08004
:101718000BEF700890FE83E054874DF0EBD39403F1
:101728005024EB700653B6DF53B5DFBB010653B642
:10173800DF43B520BB020643B62053B5DFBB030623
:0917480043B62043B5207F0022C6
:101E4000EFD394015009EF7004C2AC8002D2ACED24
:101E5000D394035020ED700553B7EFC2BCBD01050C
:101E600053B7EFD2BCBD020543B710C2BCBD0305DA
:081E700043B710D2BC7F002231
:101CEE00EFD394015007E5AF54FE4FF5AFEDD3940B
:101CFE00035024ED700653B6FE53B5FEBD010653D8
:101D0E00B6FE43B501BD020643B60153B5FEBD0393
:0A1D1E000643B60143B5017F002221
:1018AD00EFD39401500EEF33333354F8FFE5AF54BB
:1018BD00F74FF5AFEDD394035024ED700653EEFEC4
:1018CD0053DFFEBD010653EEFE43DF01BD020643AD
:1018DD00EE0153DFFEBD030643EE0143DF017F0042
:0118ED0022D8
:1018EE00EFD39401500CEFC454F0FFE5AF54EF4F1B
:1018FE00F5AFEDD394035024ED700653EEFD53DF98
:10190E00FDBD010653EEFD43DF02BD020643EE02AE
:0F191E0053DFFDBD030643EE0243DF027F0022CD
:10192D00EFD39401500BEF25E0FFE5AF54FD4FF5DC
:10193D00AFEDD394035024ED700653B6FD53B5FDB2
:10194D00BD010653B6FD43B502BD020643B60253B3
:0E195D00B5FDBD030643B60243B5027F00226E
:10169A00EBD394035020EB700553B77FC2BFBB0155
:1016AA000553B77FD2BFBB020543B780C2BFBB0396
:1016BA000543B780D2BFEF1460111460121460138F
:1016CA0014601D240470248DDA80208DDB801C8D2B
:1016DA00DC801843BA8090FD54EDF053BA7F800B3A
:0E16EA00ED5401FFE5D954FE4FF5D97F0022E3
:1019A80043BA8090FA10E054F0F0EDD39403500B52
:1019B800E0FEED25E025E0FDEE4DF0EBD39403507D
:1019C8000690FA10E04BF090FA10E0BF0105448051
:0C19D800F08003547FF053BA7F7F0022A0
:1019E40043BA8090FA00E054F0F0EDD39403500B26
:1019F400E0FEED25E025E0FDEE4DF0EBD394035041
:101A04000690FA00E04BF090FA00E0BF0105448034
:0C1A1400F08003547FF053BA7F7F002263
:101A200043BA8090FA20E054F0F0EDD39403500BC9
:101A3000E0FEED25E025E0FDEE4DF0EBD394035004
:101A40000690FA20E04BF090FA20E0BF01054480B8
:0C1A5000F08003547FF053BA7F7F002227
:101A5C0043BA8090FA30E054F0F0EDD39403500B7D
:101A6C00E0FEED25E025E0FDEE4DF0EBD3940350C8
:101A7C000690FA30E04BF090FA30E0BF010544805C
:0C1A8C00F08003547FF053BA7F7F0022EB
:101A980043BA8090FA38E054F0F0EDD39403500B39
:101AA800E0FEED25E025E0FDEE4DF0EBD39403508C
:101AB8000690FA38E04BF090FA38E0BF0105448010
:0C1AC800F08003547FF053BA7F7F0022AF
:101AD40043BA8090FA40E054F0F0EDD39403500BF5
:101AE400E0FEED25E025E0FDEE4DF0EBD394035050
:101AF4000690FA40E04BF090FA40E0BF01054480C4
:0C1B0400F08003547FF053BA7F7F002272
:101B100043BA8090FA48E054F0F0EDD39403500BB0
:101B2000E0FEED25E025E0FDEE4DF0EBD394035013
:101B30000690FA48E04BF090FA48E0BF0105448077
:0C1B4000F08003547FF053BA7F7F002236
:101B4C0043BA8090FA50E054F0F0EDD39403500B6C
:101B5C00E0FEED25E025E0FDEE4DF0EBD3940350D7
:101B6C000690FA50E04BF090FA50E0BF010544802B
:0C1B7C00F08003547FF053BA7F7F0022FA
:101B880043BA8090FA58E054F0F0EDD39403500B28
:101B9800E0FEED25E025E0FDEE4DF0EBD39403509B
:101BA8000690FA58E04BF090FA58E0BF01054480DF
:0C1BB800F08003547FF053BA7F7F0022BE
:101BC40043BA8090FA60E054F0F0EDD39403500BE4
:101BD400E0FEED25E025E0FDEE4DF0EBD39403505F
:101BE4000690FA60E04BF090FA60E0BF0105448093
:0C1BF400F08003547FF053BA7F7F002282
:101C000043BA8090FA68E054F0F0EDD39403500B9F
:101C1000E0FEED25E025E0FDEE4DF0EBD394035022
:101C20000690FA68E04BF090FA68E0BF0105448046
:0C1C3000F08003547FF053BA7F7F002245
:101C3C0043BA8090FA70E054F0F0EDD39403500B5B
:101C4C00E0FEED25E025E0FDEE4DF0EBD3940350E6
:101C5C000690FA70E04BF090FA70E0BF01054480FA
:0C1C6C00F08003547FF053BA7F7F002209
:101F370043BA8090FE50E054CFF0EDD39403500A9B
:101F4700E0FEEDC454F0FDEE4DF090FE50E0BF0111
:0F1F5700054480F08003547FF053BA7F7F00224F
:1014D800900001120975B4010553CE7F800343CEF5
:1014E8008012095CC4333354C0FFE5CE54BF4FF5B6
:1014F800CE900002120975C43354E0FFE5CE54DFE4
:101508004FF5CE900003120975C454F0FFE5CE5490
:10151800EF4FF5CE90000412097533333354F8FFBA
:10152800E5CE54F74FF5CE90000512097525E02554
:10153800E0FFE5CE54FB4FF5CE900006120975FF8B
:0D154800E5CE54FC4FF5CEE4F51EC20422A2
:10216500EF700753CEEF53CE7F2243CE1043CE8080
:012175002247
:0821B0008FCFD2042004FD22B0
:03004B000218296F
:10182900C0E0C083C082C0D075D000C007E5CE300B
:10183900E404C204801EE51FC394804003751F00A1
:10184900AF1F051F74002FF582E43401F583E5CF3E
:10185900F0751E0575CDC0D007D0D0D082D083D009
:02186900E0326B
:0321C900D2B2226D
:0321CC00C2CC2260
:0321CF00C2B22277
:1017E400D2CCC2B2C2CDEF3392B3D2CDC2CDEFA22E
:1017F400E692B3D2CDC2CDA2E592B3D2CDC2CDA2F0
:10180400E492B3D2CDC2CDA2E392B3D2CDC2CDA2E3
:10181400E292B3D2CDC2CDA2E192B3D2CDC2CD1366
:0518240092B3D2CD22B9
:0921A700C2C0D2CCC2B2D2C022E7
:0321D200C2C42262
:1015C600E4D2C4C296C295A2973325E0FFD295C253
:1015D60095A297E4334207EF25E0FFD295C295A284
:1015E60097E4334207EF25E0FFD295C295A297E430
:1015F600334207EF25E0FFD295C295A297E4334226
:1016060007EF25E0FFD295C295A297E4334207EF94
:1016160025E0FFD295C295A297E4334207EF25E075
:0F162600FFD295C295A297E4334207D295D29690
:011635002292
:060D54008B3B8A3C893D47
:100D5A00EF64016003020E96750801F509F50AF5BC
:100D6A000BF50CF50DF50E7F80900080E4F0A3DF03
:100D7A00FC7F80900000E4F0A3DFFCAB3BAA3CA917
:100D8A003D12095CFFE598543F4FF598EF64C06047
:100D9A0008EF64406003020E4B900002120A947F2F
:100DAA00007E307D2A7C001209DE8F418E408D3F05
:100DBA008C3EE4FFFE7D01FCAB41AA40A93FA83E60
:100DCA00C3120A7040037FFF22C3E49541F541E450
:100DDA009540F5407401953FF53FE4953EF53EABED
:100DEA003BAA3CA93D900001120975640270265382
:100DFA008EEF438E01538EF7438E04AF41AE40AD62
:100E0A003FAC3E7808120A818FD68541D753AFFB93
:100E1A00438E108060C28E538EFE5389BF5389CF92
:100E2A00438E40AF41AE40AD3FAC3E7808120A81D6
:100E3A008F8D85418BC2AB5389BF538FFDD28E8074
:100E4A0034AB3BAA3CA93D12095CFF701390000821
:100E5A00120975B40105438E20801A538EDF80155E
:100E6A00EFB48011900008120975B4010543878018
:100E7A00800353877FAB3BAA3CA93D900007120928
:0E0E8A00757004C29C8002D29C7F00227FFF04
:010E98002237
:0A219D008F99750B01E50B70FC2211
:061F66008B3D8A3E893F1D
:101F6C00E4900201F0900201E0FFC39D501AAB3DDA
:101F7C00AA3EA93F8F82758300120975FF12219D1D
:081F8C00900201E004F080DD89
:011F9400222A
:10211D0012095CFF600C12219D740129F9E43AFA51
:03212D0080EE221F
:0521C400AE0702219DA1
:05002600031B000000B7
:030023000216368C
:10163600C0E0C0F0C083C082C0D075D000C000C07A
:1016460001C002C003C004C005C006C00730981F11
:10165600C298900202E599F0AB1BAA1CA91DAE0226
:0F166600AF01EF4E6009E0FF89828A83120AC844
:10167500309907C280C299750B00D007D006D005F6
:10168500D004D003D002D001D000D0D0D082D083F6
:05169500D0F0D0E032AE
:0C002B004101E5004101E4004101E60054
:0212E9008F3C38
:1012EB00C202C2039001E4E0B40700400302137E84
:1012FB00901302F8282873021317021330021344B9
:10130B0002134B021352021360021373E53C645732
:10131B006003D38001C392029001E47401F0E49066
:10132B0001E6F08050E53C64AB6003D38001C392CF
:10133B00029001E47402F0803C9001E4740380108D
:10134B009001E4740480099001E47405F0A3E53C7A
:10135B00F0C2028020C2029001E5E014F0E07015AB
:10136B009001E47406F0800DE49001E4F0D203C226
:10137B00028002D20230020BE49001E4F0A3F0A34E
:10138B00F080399001E6E0FF04F074802FF582E4E1
:0A139B003401F583E53CF030032235
:1013A5007B017A0179809001E6E014FD121F958F8B
:1013B5003DE53C653D600BE49001E4F0A3F0A3F04E
:0213C500C20361
:0213C700A2037F
:0113C9002201
:061F95008B3E8A3F8940EB
:101F9B00E4900201F0EDD394004018AB3EAA3FA9A8
:101FAB00401D8D82758300120975FF900201E02F91
:081FBB00F080E2900201E0FF5A
:011FC30022FB
:0621BE0057AB0001000315
:100037004E02050000000000000000000000000064
:0100470000B8
:1020F60030020AEFF4FF900204E05FF0229002043F
:04210600E04FF02294
:10205400900215E024FF92027F011220F6900216EE
:0D206400E024FF92027F081220F6022130D6
:10186B008D3C900003120975247F70359000051292
:10187B000975900213F0900006120975900214F08E
:10188B00900007120975FF5401900215F0EF5402F6
:10189B00A3F09000071209755404900217F0122060
:0218AB005422C5
:0B21920090020374FFF0A3F002213064
:10213000900203E0FF1217E4900204E0FF1217E49C
:032140000221A7D2
:1020360078EB7C017D017BFF7A2179BE7E007F06ED
:0E2046001209367B017A0179EB7D06021F66D6
:061456008B398A3A893B44
:10145C009002057457F0A374ABF0E4A3F0A37402EC
:10146C00F0A37408F0A3EFF0E4A3F0A3F0A3F0A3AF
:10147C00F0A3F0A3F0A3F0A3F0900200F090020010
:10148C00E0FFC3953C502AEFC394065024AB39AA15
:10149C003AA93BE0F582758300120975FE740C2F96
:1014AC00F582E43402F583EEF0900200E004F08063
:1014BC00CC7B017A0279057D0D121F95900212EFFB
:0C14CC00F07B017A0279057D0E021F669C
:1013D6000210EAE493A3F8E493A34003F68001F233
:1013E60008DFF48029E493A3F85407240CC8C33318
:1013F600C4540F4420C8834004F456800146F6DFE7
:10140600E4800B0102040810204080900026E47E50
:10141600019360BCA3FF543F30E509541FFEE493DB
:10142600A360010ECF54C025E060A840B8E493A3A2
:10143600FAE493A3F8E493A3C8C582C8CAC583CACD
:10144600F0A3C8C582C8CAC583CADFE9DEE780BE85
:0100480000B7
:10086600E709F608DFFA8046E709F208DFFA803E74
:1008760088828C83E709F0A3DFFA8032E309F60861
:10088600DFFA8078E309F208DFFA807088828C83C9
:10089600E309F0A3DFFA806489828A83E0A3F6087D
:1008A600DFFA805889828A83E0A3F208DFFA804C57
:1008B60080D280FA80C680D4806980F2803380102E
:1008C60080A680EA809A80A880DA80E280CA803397
:1008D60089828A83ECFAE493A3C8C582C8CCC5830F
:1008E600CCF0A3C8C582C8CCC583CCDFE9DEE780DF
:1008F6000D89828A83E493A3F608DFF9ECFAA9F05E
:10090600EDFB2289828A83ECFAE0A3C8C582C8CCB3
:10091600C583CCF0A3C8C582C8CCC583CCDFEADECC
:10092600E880DB89828A83E493A3F208DFF980CC2E
:1009360088F0EF60010E4E60C388F0ED2402B40427
:100946000050B9F582EB2402B4040050AF232345CE
:0609560082239008B67335
:10095C00BB010689828A83E0225002E722BBFE0299
:09096C00E32289828A83E49322CC
:10097500BB010CE58229F582E5833AF583E0225037
:1009850006E92582F8E622BBFE06E92582F8E22281
:0D099500E58229F582E5833AF583E493229B
:1009A20075F008758200EF2FFFEE33FECD33CDCC0C
:1009B20033CCC58233C5829BED9AEC99E58298408F
:1009C2000CF582EE9BFEED9AFDEC99FC0FD5F0D66C
:1009D200E4CEFBE4CDFAE4CCF9A88222B800C1B996
:1009E2000059BA002DEC8BF084CFCECDFCE5F0CBD4
:1009F200F97818EF2FFFEE33FEED33FDEC33FCEB0D
:100A020033FB10D703994004EB99FB0FD8E5E4F9C7
:100A1200FA227818EF2FFFEE33FEED33FDEC33FCB4
:100A2200C933C910D7059BE99A4007EC9BFCE99AA8
:100A3200F90FD8E0E4C9FAE4CCFB2275F010EF2FED
:100A4200FFEE33FEED33FDCC33CCC833C810D707ED
:100A52009BEC9AE899400AED9BFDEC9AFCE899F828
:0E0A62000FD5F0DAE4CDFBE4CCFAE4C8F922BB
:100A7000EB9FF5F0EA9E42F0E99D42F0E89C45F0DC
:010A80002253
:100A8100E8600FECC313FCED13FDEE13FEEF13FF53
:030A9100D8F12277
:100A9400BB010DE58229F582E5833AF583020AD785
:100AA4005007E92582F8020ACABBFE07E92582F845
:100AB400020AE3E58229F582E5833AF583020AF026
:060AC4008A838982E473BD
:0D0ACA00E6FB08E6F908E6FA08E6CBF8229C
:0C0AD700E0F8A3E0F9A3E0FAA3E0FB22A2
:0D0AE300E2FB08E2F908E2FA08E2CBF82293
:100AF000E493F8740193F9740293FA740393FB225C
:00000001FF
